{
  "address": "0x3997e41F60643491b9a26666eD4668303D7fDF4b",
  "abi": [
    {
      "inputs": [
        {
          "internalType": "address",
          "name": "_lzEndpoint",
          "type": "address"
        },
        {
          "internalType": "address",
          "name": "_owner",
          "type": "address"
        },
        {
          "internalType": "address",
          "name": "_dexRouter",
          "type": "address"
        },
        {
          "internalType": "address",
          "name": "_stablecoinOFT",
          "type": "address"
        }
      ],
      "stateMutability": "nonpayable",
      "type": "constructor"
    },
    {
      "inputs": [],
      "name": "InvalidDelegate",
      "type": "error"
    },
    {
      "inputs": [],
      "name": "InvalidEndpointCall",
      "type": "error"
    },
    {
      "inputs": [
        {
          "internalType": "bytes",
          "name": "options",
          "type": "bytes"
        }
      ],
      "name": "InvalidOptions",
      "type": "error"
    },
    {
      "inputs": [],
      "name": "LzTokenUnavailable",
      "type": "error"
    },
    {
      "inputs": [
        {
          "internalType": "uint32",
          "name": "eid",
          "type": "uint32"
        }
      ],
      "name": "NoPeer",
      "type": "error"
    },
    {
      "inputs": [
        {
          "internalType": "uint256",
          "name": "msgValue",
          "type": "uint256"
        }
      ],
      "name": "NotEnoughNative",
      "type": "error"
    },
    {
      "inputs": [
        {
          "internalType": "address",
          "name": "addr",
          "type": "address"
        }
      ],
      "name": "OnlyEndpoint",
      "type": "error"
    },
    {
      "inputs": [
        {
          "internalType": "uint32",
          "name": "eid",
          "type": "uint32"
        },
        {
          "internalType": "bytes32",
          "name": "sender",
          "type": "bytes32"
        }
      ],
      "name": "OnlyPeer",
      "type": "error"
    },
    {
      "inputs": [
        {
          "internalType": "address",
          "name": "owner",
          "type": "address"
        }
      ],
      "name": "OwnableInvalidOwner",
      "type": "error"
    },
    {
      "inputs": [
        {
          "internalType": "address",
          "name": "account",
          "type": "address"
        }
      ],
      "name": "OwnableUnauthorizedAccount",
      "type": "error"
    },
    {
      "inputs": [
        {
          "internalType": "address",
          "name": "token",
          "type": "address"
        }
      ],
      "name": "SafeERC20FailedOperation",
      "type": "error"
    },
    {
      "anonymous": false,
      "inputs": [
        {
          "indexed": true,
          "internalType": "uint32",
          "name": "sourceEid",
          "type": "uint32"
        },
        {
          "indexed": true,
          "internalType": "bytes32",
          "name": "recipient",
          "type": "bytes32"
        },
        {
          "indexed": false,
          "internalType": "bytes32",
          "name": "destinationToken",
          "type": "bytes32"
        },
        {
          "indexed": false,
          "internalType": "uint256",
          "name": "stableAmount",
          "type": "uint256"
        },
        {
          "indexed": false,
          "internalType": "uint256",
          "name": "amountOut",
          "type": "uint256"
        }
      ],
      "name": "CrossChainSwapCompleted",
      "type": "event"
    },
    {
      "anonymous": false,
      "inputs": [
        {
          "indexed": true,
          "internalType": "address",
          "name": "sender",
          "type": "address"
        },
        {
          "indexed": false,
          "internalType": "uint32",
          "name": "destinationEid",
          "type": "uint32"
        },
        {
          "indexed": false,
          "internalType": "bytes32",
          "name": "recipient",
          "type": "bytes32"
        },
        {
          "indexed": false,
          "internalType": "address",
          "name": "sourceToken",
          "type": "address"
        },
        {
          "indexed": false,
          "internalType": "bytes32",
          "name": "destinationToken",
          "type": "bytes32"
        },
        {
          "indexed": false,
          "internalType": "uint256",
          "name": "amountIn",
          "type": "uint256"
        },
        {
          "indexed": false,
          "internalType": "uint256",
          "name": "stableAmount",
          "type": "uint256"
        },
        {
          "indexed": false,
          "internalType": "uint256",
          "name": "amountOutMin",
          "type": "uint256"
        }
      ],
      "name": "CrossChainSwapInitiated",
      "type": "event"
    },
    {
      "anonymous": false,
      "inputs": [
        {
          "components": [
            {
              "internalType": "uint32",
              "name": "eid",
              "type": "uint32"
            },
            {
              "internalType": "uint16",
              "name": "msgType",
              "type": "uint16"
            },
            {
              "internalType": "bytes",
              "name": "options",
              "type": "bytes"
            }
          ],
          "indexed": false,
          "internalType": "struct EnforcedOptionParam[]",
          "name": "_enforcedOptions",
          "type": "tuple[]"
        }
      ],
      "name": "EnforcedOptionSet",
      "type": "event"
    },
    {
      "anonymous": false,
      "inputs": [
        {
          "indexed": true,
          "internalType": "address",
          "name": "previousOwner",
          "type": "address"
        },
        {
          "indexed": true,
          "internalType": "address",
          "name": "newOwner",
          "type": "address"
        }
      ],
      "name": "OwnershipTransferred",
      "type": "event"
    },
    {
      "anonymous": false,
      "inputs": [
        {
          "indexed": false,
          "internalType": "uint32",
          "name": "eid",
          "type": "uint32"
        },
        {
          "indexed": false,
          "internalType": "bytes32",
          "name": "peer",
          "type": "bytes32"
        }
      ],
      "name": "PeerSet",
      "type": "event"
    },
    {
      "inputs": [],
      "name": "SWAP",
      "outputs": [
        {
          "internalType": "uint16",
          "name": "",
          "type": "uint16"
        }
      ],
      "stateMutability": "view",
      "type": "function"
    },
    {
      "inputs": [
        {
          "internalType": "uint256",
          "name": "stableAmount",
          "type": "uint256"
        },
        {
          "internalType": "uint256",
          "name": "amountOutMin",
          "type": "uint256"
        },
        {
          "internalType": "bytes32",
          "name": "destinationToken",
          "type": "bytes32"
        },
        {
          "internalType": "bytes32",
          "name": "recipient",
          "type": "bytes32"
        }
      ],
      "name": "_performSwap",
      "outputs": [
        {
          "internalType": "uint256",
          "name": "amountOut",
          "type": "uint256"
        }
      ],
      "stateMutability": "nonpayable",
      "type": "function"
    },
    {
      "inputs": [
        {
          "internalType": "address",
          "name": "_addr",
          "type": "address"
        }
      ],
      "name": "addressToBytes32",
      "outputs": [
        {
          "internalType": "bytes32",
          "name": "",
          "type": "bytes32"
        }
      ],
      "stateMutability": "pure",
      "type": "function"
    },
    {
      "inputs": [
        {
          "components": [
            {
              "internalType": "uint32",
              "name": "srcEid",
              "type": "uint32"
            },
            {
              "internalType": "bytes32",
              "name": "sender",
              "type": "bytes32"
            },
            {
              "internalType": "uint64",
              "name": "nonce",
              "type": "uint64"
            }
          ],
          "internalType": "struct Origin",
          "name": "origin",
          "type": "tuple"
        }
      ],
      "name": "allowInitializePath",
      "outputs": [
        {
          "internalType": "bool",
          "name": "",
          "type": "bool"
        }
      ],
      "stateMutability": "view",
      "type": "function"
    },
    {
      "inputs": [
        {
          "internalType": "uint32",
          "name": "_eid",
          "type": "uint32"
        },
        {
          "internalType": "uint16",
          "name": "_msgType",
          "type": "uint16"
        },
        {
          "internalType": "bytes",
          "name": "_extraOptions",
          "type": "bytes"
        }
      ],
      "name": "combineOptions",
      "outputs": [
        {
          "internalType": "bytes",
          "name": "",
          "type": "bytes"
        }
      ],
      "stateMutability": "view",
      "type": "function"
    },
    {
      "inputs": [
        {
          "internalType": "uint32",
          "name": "_destinationEid",
          "type": "uint32"
        },
        {
          "internalType": "bytes32",
          "name": "_recipient",
          "type": "bytes32"
        },
        {
          "internalType": "address",
          "name": "_sourceToken",
          "type": "address"
        },
        {
          "internalType": "bytes32",
          "name": "_destinationToken",
          "type": "bytes32"
        },
        {
          "internalType": "uint256",
          "name": "_amountIn",
          "type": "uint256"
        },
        {
          "internalType": "uint256",
          "name": "_amountOutMin",
          "type": "uint256"
        },
        {
          "internalType": "bytes",
          "name": "_options",
          "type": "bytes"
        }
      ],
      "name": "crossChainSwap",
      "outputs": [],
      "stateMutability": "payable",
      "type": "function"
    },
    {
      "inputs": [],
      "name": "dexRouter",
      "outputs": [
        {
          "internalType": "contract IPayfundsRouter02",
          "name": "",
          "type": "address"
        }
      ],
      "stateMutability": "view",
      "type": "function"
    },
    {
      "inputs": [],
      "name": "endpoint",
      "outputs": [
        {
          "internalType": "contract ILayerZeroEndpointV2",
          "name": "",
          "type": "address"
        }
      ],
      "stateMutability": "view",
      "type": "function"
    },
    {
      "inputs": [
        {
          "internalType": "uint32",
          "name": "eid",
          "type": "uint32"
        },
        {
          "internalType": "uint16",
          "name": "msgType",
          "type": "uint16"
        }
      ],
      "name": "enforcedOptions",
      "outputs": [
        {
          "internalType": "bytes",
          "name": "enforcedOption",
          "type": "bytes"
        }
      ],
      "stateMutability": "view",
      "type": "function"
    },
    {
      "inputs": [
        {
          "internalType": "address",
          "name": "_sourceToken",
          "type": "address"
        },
        {
          "internalType": "uint256",
          "name": "_amountIn",
          "type": "uint256"
        }
      ],
      "name": "estimateSwapOutput",
      "outputs": [
        {
          "internalType": "uint256",
          "name": "sourceStableAmount",
          "type": "uint256"
        }
      ],
      "stateMutability": "view",
      "type": "function"
    },
    {
      "inputs": [
        {
          "components": [
            {
              "internalType": "uint32",
              "name": "srcEid",
              "type": "uint32"
            },
            {
              "internalType": "bytes32",
              "name": "sender",
              "type": "bytes32"
            },
            {
              "internalType": "uint64",
              "name": "nonce",
              "type": "uint64"
            }
          ],
          "internalType": "struct Origin",
          "name": "",
          "type": "tuple"
        },
        {
          "internalType": "bytes",
          "name": "",
          "type": "bytes"
        },
        {
          "internalType": "address",
          "name": "_sender",
          "type": "address"
        }
      ],
      "name": "isComposeMsgSender",
      "outputs": [
        {
          "internalType": "bool",
          "name": "",
          "type": "bool"
        }
      ],
      "stateMutability": "view",
      "type": "function"
    },
    {
      "inputs": [
        {
          "components": [
            {
              "internalType": "uint32",
              "name": "srcEid",
              "type": "uint32"
            },
            {
              "internalType": "bytes32",
              "name": "sender",
              "type": "bytes32"
            },
            {
              "internalType": "uint64",
              "name": "nonce",
              "type": "uint64"
            }
          ],
          "internalType": "struct Origin",
          "name": "_origin",
          "type": "tuple"
        },
        {
          "internalType": "bytes32",
          "name": "_guid",
          "type": "bytes32"
        },
        {
          "internalType": "bytes",
          "name": "_message",
          "type": "bytes"
        },
        {
          "internalType": "address",
          "name": "_executor",
          "type": "address"
        },
        {
          "internalType": "bytes",
          "name": "_extraData",
          "type": "bytes"
        }
      ],
      "name": "lzReceive",
      "outputs": [],
      "stateMutability": "payable",
      "type": "function"
    },
    {
      "inputs": [
        {
          "internalType": "uint32",
          "name": "",
          "type": "uint32"
        },
        {
          "internalType": "bytes32",
          "name": "",
          "type": "bytes32"
        }
      ],
      "name": "nextNonce",
      "outputs": [
        {
          "internalType": "uint64",
          "name": "nonce",
          "type": "uint64"
        }
      ],
      "stateMutability": "view",
      "type": "function"
    },
    {
      "inputs": [],
      "name": "oAppVersion",
      "outputs": [
        {
          "internalType": "uint64",
          "name": "senderVersion",
          "type": "uint64"
        },
        {
          "internalType": "uint64",
          "name": "receiverVersion",
          "type": "uint64"
        }
      ],
      "stateMutability": "pure",
      "type": "function"
    },
    {
      "inputs": [],
      "name": "owner",
      "outputs": [
        {
          "internalType": "address",
          "name": "",
          "type": "address"
        }
      ],
      "stateMutability": "view",
      "type": "function"
    },
    {
      "inputs": [
        {
          "internalType": "uint32",
          "name": "eid",
          "type": "uint32"
        }
      ],
      "name": "peers",
      "outputs": [
        {
          "internalType": "bytes32",
          "name": "peer",
          "type": "bytes32"
        }
      ],
      "stateMutability": "view",
      "type": "function"
    },
    {
      "inputs": [
        {
          "internalType": "bytes32",
          "name": "",
          "type": "bytes32"
        }
      ],
      "name": "pendingSwaps",
      "outputs": [
        {
          "internalType": "bytes32",
          "name": "recipient",
          "type": "bytes32"
        },
        {
          "internalType": "bytes32",
          "name": "destinationToken",
          "type": "bytes32"
        },
        {
          "internalType": "uint256",
          "name": "amountOutMin",
          "type": "uint256"
        },
        {
          "internalType": "uint256",
          "name": "stableAmount",
          "type": "uint256"
        },
        {
          "internalType": "address",
          "name": "refundRecipient",
          "type": "address"
        },
        {
          "internalType": "uint256",
          "name": "timestamp",
          "type": "uint256"
        },
        {
          "internalType": "bool",
          "name": "executed",
          "type": "bool"
        }
      ],
      "stateMutability": "view",
      "type": "function"
    },
    {
      "inputs": [
        {
          "internalType": "uint32",
          "name": "_dstEid",
          "type": "uint32"
        },
        {
          "internalType": "bytes32",
          "name": "_to",
          "type": "bytes32"
        },
        {
          "internalType": "bytes32",
          "name": "_destinationToken",
          "type": "bytes32"
        },
        {
          "internalType": "uint256",
          "name": "_amountOutMin",
          "type": "uint256"
        },
        {
          "internalType": "uint256",
          "name": "_stableAmount",
          "type": "uint256"
        },
        {
          "internalType": "bytes",
          "name": "_options",
          "type": "bytes"
        },
        {
          "internalType": "bool",
          "name": "_payInLzToken",
          "type": "bool"
        }
      ],
      "name": "quoteSwap",
      "outputs": [
        {
          "components": [
            {
              "internalType": "uint256",
              "name": "nativeFee",
              "type": "uint256"
            },
            {
              "internalType": "uint256",
              "name": "lzTokenFee",
              "type": "uint256"
            }
          ],
          "internalType": "struct MessagingFee",
          "name": "fee",
          "type": "tuple"
        }
      ],
      "stateMutability": "view",
      "type": "function"
    },
    {
      "inputs": [],
      "name": "renounceOwnership",
      "outputs": [],
      "stateMutability": "nonpayable",
      "type": "function"
    },
    {
      "inputs": [
        {
          "internalType": "address",
          "name": "_delegate",
          "type": "address"
        }
      ],
      "name": "setDelegate",
      "outputs": [],
      "stateMutability": "nonpayable",
      "type": "function"
    },
    {
      "inputs": [
        {
          "components": [
            {
              "internalType": "uint32",
              "name": "eid",
              "type": "uint32"
            },
            {
              "internalType": "uint16",
              "name": "msgType",
              "type": "uint16"
            },
            {
              "internalType": "bytes",
              "name": "options",
              "type": "bytes"
            }
          ],
          "internalType": "struct EnforcedOptionParam[]",
          "name": "_enforcedOptions",
          "type": "tuple[]"
        }
      ],
      "name": "setEnforcedOptions",
      "outputs": [],
      "stateMutability": "nonpayable",
      "type": "function"
    },
    {
      "inputs": [
        {
          "internalType": "uint32",
          "name": "_eid",
          "type": "uint32"
        },
        {
          "internalType": "bytes32",
          "name": "_peer",
          "type": "bytes32"
        }
      ],
      "name": "setPeer",
      "outputs": [],
      "stateMutability": "nonpayable",
      "type": "function"
    },
    {
      "inputs": [],
      "name": "stablecoin",
      "outputs": [
        {
          "internalType": "address",
          "name": "",
          "type": "address"
        }
      ],
      "stateMutability": "view",
      "type": "function"
    },
    {
      "inputs": [],
      "name": "stablecoinOFT",
      "outputs": [
        {
          "internalType": "contract IOFT",
          "name": "",
          "type": "address"
        }
      ],
      "stateMutability": "view",
      "type": "function"
    },
    {
      "inputs": [
        {
          "internalType": "address",
          "name": "newOwner",
          "type": "address"
        }
      ],
      "name": "transferOwnership",
      "outputs": [],
      "stateMutability": "nonpayable",
      "type": "function"
    },
    {
      "inputs": [
        {
          "internalType": "address payable",
          "name": "_to",
          "type": "address"
        },
        {
          "internalType": "uint256",
          "name": "_amount",
          "type": "uint256"
        }
      ],
      "name": "withdrawNative",
      "outputs": [],
      "stateMutability": "nonpayable",
      "type": "function"
    },
    {
      "inputs": [
        {
          "internalType": "contract IERC20",
          "name": "_token",
          "type": "address"
        },
        {
          "internalType": "address",
          "name": "_to",
          "type": "address"
        },
        {
          "internalType": "uint256",
          "name": "_amount",
          "type": "uint256"
        }
      ],
      "name": "withdrawToken",
      "outputs": [],
      "stateMutability": "nonpayable",
      "type": "function"
    },
    {
      "stateMutability": "payable",
      "type": "receive"
    }
  ],
  "transactionHash": "0x704c24721e2ca6b1da62eca4e71f69f670495dabc96506b88d498d8adea3eb31",
  "args": [
    "0x6EDCE65403992e310A62460808c4b910D972f10f",
    "0x49f51e3C94B459677c3B1e611DB3E44d4E6b1D55",
    "0x1F2Ea7012Be2Fb0Ba2ce8B7B2A1ab3357Ab2315d",
    "0x4d7c436e23ce51c42A9d6587B5812673f2dC756C"
  ],
  "numDeployments": 1,
  "solcInputHash": "a4b1a8b81e30368676cc8974b9694f42",
  "bytecode": "0x6101003462000224576001600160401b0390601f62002b8838819003918201601f191683019291908484118385101762000229578160809284926040968752833981010312620002245762000054816200023f565b9062000063602082016200023f565b906200007f6060620000778684016200023f565b92016200023f565b926001600160a01b0392831680156200020c57600080546001600160a01b031981168317825590928591839083167f8be0079c531659141344cd1fd0a4f28419497f9722a3daafe3b4186f6b6457e08680a3169081608052813b1562000208578291602483928951958693849263ca5eb5e160e01b845260048401525af1968715620001fc5784959697620001ce575b5050501660a052811660c05260e05251612933908162000255823960805181818161046201528181610fbd0152818161157501528181612072015281816121f101526127ee015260a0518181816102ca01528181610ac701528181610ba90152818161107c0152611295015260c0518181816106b501528181610c1101528181610d0901528181610de50152611178015260e051818181610b5201528181610c5601528181611033015281816112c9015281816115fb015261260e0152f35b90918093945011620001e85750845281903880806200010f565b634e487b7160e01b81526041600452602490fd5b508551903d90823e3d90fd5b8280fd5b8551631e4fbdf760e01b815260006004820152602490fd5b600080fd5b634e487b7160e01b600052604160045260246000fd5b51906001600160a01b0382168203620002245756fe6080604052600436101561001b575b361561001957600080fd5b005b60003560e01c806301e33667146101cb57806304d84108146101c65780630758d924146101c157806307b18bde146101bc5780630f57864e146101b757806313137d65146101b257806317442b70146101ad5780633400288b146101a85780634689b47c146101a35780635535d4611461019e5780635a5ef655146101995780635e280f111461019457806368a88e811461018f578063715018a61461018a5780637d25a05e146101855780637d61cf0d1461018057806382413eac1461017b57806382c947b7146101765780638da5cb5b1461017157806396ac36371461016c578063b98bd07014610167578063bb0b6a5314610162578063bc70b3541461015d578063ca5eb5e114610158578063e9cbd82214610153578063f2fde38b1461014e5763ff7bd03d0361000e576116b6565b61162a565b6115e5565b611544565b6114f0565b6114b5565b6113a3565b61125f565b611236565b611205565b6111a7565b611162565b61113b565b6110dd565b610fec565b610fa7565b610a21565b6109b3565b6105cc565b610539565b610509565b610404565b61034c565b6102f9565b6102b4565b610298565b6101e6565b6001600160a01b038116036101e157565b600080fd5b346101e15760603660031901126101e1576000602061025260043561020a816101d0565b602435610216816101d0565b61021e611d7c565b60405163a9059cbb60e01b81526001600160a01b039091166004820152604480356024830152909485938492839190820190565b03926001600160a01b03165af180156102935761026b57005b6100199060203d60201161028c575b61028481836108a7565b8101906116fc565b503d61027a565b611714565b346101e15760003660031901126101e157602060405160018152f35b346101e15760003660031901126101e1576040517f00000000000000000000000000000000000000000000000000000000000000006001600160a01b03168152602090f35b346101e15760403660031901126101e157600080808060043561031b816101d0565b60243590610327611d7c565b82908215610342575b6001600160a01b031690f11561029357005b6108fc9150610330565b346101e15760203660031901126101e157600435600052600360205260e060406000208054906001810154906002810154600382015460018060a01b036004840154169160ff600660058601549501541694604051968752602087015260408601526060850152608084015260a0830152151560c0820152f35b60609060031901126101e157600490565b9181601f840112156101e1578235916001600160401b0383116101e157602083818601950101116101e157565b60e03660031901126101e157610419366103c6565b6001600160401b036084358181116101e1576104399036906004016103d7565b9161044560a4356101d0565b60c4359081116101e15761045d9036906004016103d7565b5050337f00000000000000000000000000000000000000000000000000000000000000006001600160a01b0316036104f1576104a061049b84611720565b611da8565b9260208101358094036104bb57610019935060643590611e52565b6104c58491611720565b60405163309afaf360e21b815263ffffffff9190911660048201526024810191909152604490fd5b0390fd5b6040516391ac5e4f60e01b8152336004820152602490fd5b346101e15760003660031901126101e157604080516001815260026020820152f35b63ffffffff8116036101e157565b346101e15760403660031901126101e1577f238399d427b947898edb290f5ff0f9109849b1c3ba196a42e35f00c50a54b98b6004356105778161052b565b60243590610583611d7c565b63ffffffff81166000526001602052816040600020556105bb604051928392836020909392919363ffffffff60408201951681520152565b0390a1005b801515036101e157565b565b346101e15760e03660031901126101e1576004356105e98161052b565b60843560a435916001600160401b0383116101e15761060f6106b19336906004016103d7565b909160c4359161061e836105c0565b610626611763565b5061063b61063386611792565b6103e8900490565b9361064583611f37565b9461064e61172a565b63ffffffff85168152956020870152846040968792898483015260608201526106783686866117ae565b60808201526106856117f4565b60a08201526106926117f4565b60c08201528251633b6f743b60e01b8152998a928392600484016118dd565b03817f00000000000000000000000000000000000000000000000000000000000000006001600160a01b03165afa9586156102935761079297600097610796575b50855160243560208201526044356040820152606435606082015260808101919091523360a082015261076b9461074f949093909261074991906107438460c081015b03601f1981018652856108a7565b84611cb3565b916120c5565b60208061075f865184519061190c565b9501519101519061190c565b610773611749565b8381526020908101918252915192835251908201529081906040820190565b0390f35b61073591975061076b959361074f95936107436107cb610749948b3d8d116107da575b6107c381836108a7565b81019061183f565b9a9450509395509395506106f2565b503d6107b9565b6024359061ffff821682036101e157565b359061ffff821682036101e157565b90600182811c92168015610831575b602083101461081b57565b634e487b7160e01b600052602260045260246000fd5b91607f1691610810565b634e487b7160e01b600052604160045260246000fd5b604081019081106001600160401b0382111761086c57604052565b61083b565b606081019081106001600160401b0382111761086c57604052565b60a081019081106001600160401b0382111761086c57604052565b90601f801991011681019081106001600160401b0382111761086c57604052565b906040519182600082546108db81610801565b90818452602094600191600181169081600014610949575060011461090a575b5050506105ca925003836108a7565b600090815285812095935091905b8183106109315750506105ca93508201013880806108fb565b85548884018501529485019487945091830191610918565b925050506105ca94925060ff191682840152151560051b8201013880806108fb565b60005b83811061097e5750506000910152565b818101518382015260200161096e565b906020916109a78151809281855285808601910161096b565b601f01601f1916010190565b346101e15760403660031901126101e157610792610a0d610a086004356109d98161052b565b63ffffffff6109e66107e1565b9116600052600260205260406000209061ffff16600052602052604060002090565b6108c8565b60405191829160208352602083019061098e565b60e03660031901126101e157610a3860043561052b565b610a436044356101d0565b60c4356001600160401b0381116101e157610a629036906004016103d7565b6040516323b872dd60e01b815233600482015230602482015260843560448201529091906020818060648101038160006044356001600160a01b03165af1801561029357610ab891600091610f88575b50611919565b60405163095ea7b360e01b81527f00000000000000000000000000000000000000000000000000000000000000006001600160a01b0316600482015260843560248201526020818060448101038160006044356001600160a01b03165af1801561029357610f69575b50610ba46000610b2f611974565b610b4d604435610b3e836119a5565b6001600160a01b039091169052565b610b7a7f0000000000000000000000000000000000000000000000000000000000000000610b3e836119b2565b610b83426118fd565b6040516338ed173960e01b8152938492839290309060843560048601611a8c565b0381837f00000000000000000000000000000000000000000000000000000000000000006001600160a01b03165af1801561029357610bf691600091610f46575b50610bf08151611ac6565b906119c2565b51610c02600435611f37565b60405163095ea7b360e01b81527f00000000000000000000000000000000000000000000000000000000000000006001600160a01b03166004820152602481018390529092906020818060448101038160007f00000000000000000000000000000000000000000000000000000000000000006001600160a01b03165af1801561029357610f27575b50610c9861063383611792565b610ca061172a565b63ffffffff6004351681529360208501528260408501526060840152610cc73685836117ae565b6080840152610cd46117f4565b60a0840152610ce16117f4565b60c084015260408051633b6f743b60e01b815293908480610d0584600483016118c0565b03817f00000000000000000000000000000000000000000000000000000000000000006001600160a01b03165afa93841561029357600094610efe575b506040805160243560208201526064359181019190915260a4356060820152608081018490523360a080830191909152815293949293610de1939092610d969190610d8e60c0866108a7565b600435611cb3565b60c0610da58285600435612007565b92610db3885185519061190c565b97610dc089341015611ae2565b80519060405180988194829363c7c7f5b360e01b8452309160048501611b9e565b03917f00000000000000000000000000000000000000000000000000000000000000006001600160a01b03165af193841561029357610e2a94610ed0575b503392600435612168565b506040805160043563ffffffff16815260243560208201526044356001600160a01b0316918101919091526064356060820152608435608082015260a081019190915260a43560c082015233907fabc44f0535f939ebb721351addb80fec24670284d6ab1957041eb8aac7514b099060e090a2803411610ea657005b60008080610eb5819434611ad5565b818115610ec7575b3390f11561029357005b506108fc610ebd565b610ef19060c03d60c011610ef7575b610ee981836108a7565b810190611b7b565b50610e1f565b503d610edf565b610de1939450610f1f610d969160403d6040116107da576107c381836108a7565b949350610d42565b610f3f9060203d60201161028c5761028481836108a7565b5038610c8b565b610f6391503d806000833e610f5b81836108a7565b8101906119d6565b38610be5565b610f819060203d60201161028c5761028481836108a7565b5038610b21565b610fa1915060203d60201161028c5761028481836108a7565b38610ab2565b346101e15760003660031901126101e1576040517f00000000000000000000000000000000000000000000000000000000000000006001600160a01b03168152602090f35b346101e15760403660031901126101e157600435611009816101d0565b611011611974565b908151156110d8576001600160a01b031660208201526110789060009061105b7f0000000000000000000000000000000000000000000000000000000000000000610b3e836119b2565b6040518093819263d06ca61f60e01b835260243560048401611bdb565b03817f00000000000000000000000000000000000000000000000000000000000000006001600160a01b03165afa90811561029357610792916110c791600091610f465750610bf08151611ac6565b516040519081529081906020820190565b61198f565b346101e157600080600319360112611138576110f7611d7c565b80546001600160a01b03198116825581906001600160a01b03167f8be0079c531659141344cd1fd0a4f28419497f9722a3daafe3b4186f6b6457e08280a380f35b80fd5b346101e15760403660031901126101e15761115760043561052b565b602060405160008152f35b346101e15760003660031901126101e1576040517f00000000000000000000000000000000000000000000000000000000000000006001600160a01b03168152602090f35b346101e15760a03660031901126101e1576111c1366103c6565b506064356001600160401b0381116101e1576111e19036906004016103d7565b505060206084356111f1816101d0565b6040516001600160a01b0390911630148152f35b346101e15760203660031901126101e1576020600435611224816101d0565b6040516001600160a01b039091168152f35b346101e15760003660031901126101e1576000546040516001600160a01b039091168152602090f35b346101e15760803660031901126101e15760043561127e303314611bf2565b60405163095ea7b360e01b81526001600160a01b037f0000000000000000000000000000000000000000000000000000000000000000811660048301819052602483018490529092907f00000000000000000000000000000000000000000000000000000000000000006020846044816000858a165af193841561029357600094611384575b5061131a611310611974565b91610b3e836119a5565b61132b8560443516610b3e836119b2565b83611335426118fd565b9561135f604051978896879586946338ed173960e01b865260643516916024359060048701611c2a565b03925af190811561029357610792916110c791600091610f465750610bf08151611ac6565b61139c9060203d60201161028c5761028481836108a7565b5038611304565b346101e1576020806003193601126101e1576004356001600160401b038082116101e157366023830112156101e1578160040135918183116101e15760249060248460051b820101923684116101e1576113fb611d7c565b6114048561195d565b9460409061141560405197886108a7565b86526024830192602087015b868510611431576100198861241b565b84358481116101e1578201606060231982360301126101e15783519161145683610871565b878201356114638161052b565b83526044916114738382016107f2565b8c8501526064810135908782116101e1570192366043850112156101e1576114a68c9493859436918c82013591016117ae565b86820152815201940193611421565b346101e15760203660031901126101e15763ffffffff6004356114d78161052b565b1660005260016020526020604060002054604051908152f35b346101e15760603660031901126101e15760043561150d8161052b565b6115156107e1565b604435906001600160401b0382116101e1576107929261153c610a0d9336906004016103d7565b929091611d4e565b346101e1576000602036600319011261113857600435611563816101d0565b61156b611d7c565b6001600160a01b037f0000000000000000000000000000000000000000000000000000000000000000811691839190833b156115e15760249083604051958694859363ca5eb5e160e01b85521660048401525af18015610293576115cd575080f35b6001600160401b03811161086c5760405280f35b8280fd5b346101e15760003660031901126101e1576040517f00000000000000000000000000000000000000000000000000000000000000006001600160a01b03168152602090f35b346101e15760203660031901126101e157600435611647816101d0565b61164f611d7c565b6001600160a01b03908116801561169d57600080546001600160a01b03198116831782559092167f8be0079c531659141344cd1fd0a4f28419497f9722a3daafe3b4186f6b6457e08380a380f35b604051631e4fbdf760e01b815260006004820152602490fd5b346101e15760603660031901126101e15760206116d2366103c6565b63ffffffff81356116e28161052b565b166000526001825260406000205482604051920135148152f35b908160209103126101e15751611711816105c0565b90565b6040513d6000823e3d90fd5b356117118161052b565b6040519060e082018281106001600160401b0382111761086c57604052565b604051906105ca82610851565b604051906105ca8261088c565b6040519061177082610851565b60006020838281520152565b634e487b7160e01b600052601160045260246000fd5b906103b6918281029281840414901517156117a957565b61177c565b9291926001600160401b03821161086c57604051916117d7601f8201601f1916602001846108a7565b8294818452818301116101e1578281602093846000960137010152565b60405190602082018281106001600160401b0382111761086c5760405260008252565b91908260409103126101e15760405161182f81610851565b6020808294805184520151910152565b906040828203126101e15761171191611817565b6117119163ffffffff825116815260208201516020820152604082015160408201526060820151606082015260c06118af61189d608085015160e0608086015260e085019061098e565b60a085015184820360a086015261098e565b9201519060c081840391015261098e565b919060206118d8600092604086526040860190611853565b930152565b906118f5602091949394604084526040840190611853565b931515910152565b906104b082018092116117a957565b919082018092116117a957565b1561192057565b60405162461bcd60e51b8152602060048201526015602482015274151bdad95b881d1c985b9cd9995c8819985a5b1959605a1b6044820152606490fd5b6001600160401b03811161086c5760051b60200190565b6040519061198182610871565b600282526040366020840137565b634e487b7160e01b600052603260045260246000fd5b8051156110d85760200190565b8051600110156110d85760400190565b80518210156110d85760209160051b010190565b60209081818403126101e1578051906001600160401b0382116101e157019180601f840112156101e1578251611a0b8161195d565b93611a1960405195866108a7565b818552838086019260051b8201019283116101e1578301905b828210611a40575050505090565b81518152908301908301611a32565b90815180825260208080930193019160005b828110611a6f575050505090565b83516001600160a01b031685529381019392810192600101611a61565b90608092611ab2919695949683526000602084015260a0604084015260a0830190611a4f565b6001600160a01b0390951660608201520152565b6000198101919082116117a957565b919082039182116117a957565b15611ae957565b60405162461bcd60e51b815260206004820152601960248201527f496e73756666696369656e74206665652070726f7669646564000000000000006044820152606490fd5b91906080838203126101e15760405190611b4782610871565b8193805183526020810151916001600160401b03831683036101e1576040611b76928194602087015201611817565b910152565b919060c0838203126101e157806080611b976117119386611b2e565b9401611817565b919392611bcd611bb8606093608086526080860190611853565b95602085019060208091805184520151910152565b6001600160a01b0316910152565b604090611711939281528160208201520190611a4f565b15611bf957565b60405162461bcd60e51b815260206004820152600960248201526827b7363c9039b2b63360b91b6044820152606490fd5b9192608093611ab292979695978452602084015260a0604084015260a0830190611a4f565b602090836105ca939594956040519683611c72899551809288808901910161096b565b84019185830137016000838201520380855201836108a7565b90918060409360208452816020850152848401376000828201840152601f01601f1916010190565b63ffffffff166000526002602052611cdc610a0860406000206001600052602052604060002090565b805115611d42578215611d3c576002831015611d0f57506104ed604051928392639a6d49cd60e01b845260048401611c8b565b611d22611d1d3685856117ae565b6124e1565b826002116101e15761171192600119019160020190611c4f565b91505090565b506117119136916117ae565b611cdc9163ffffffff610a089216600052600260205260406000209061ffff16600052602052604060002090565b6000546001600160a01b03163303611d9057565b60405163118cdaa760e01b8152336004820152602490fd5b63ffffffff16806000526001602052604060002054908115611dc8575090565b6024906040519063f6ff4fb760e01b82526004820152fd5b600660c06105ca93805184556020810151600185015560408101516002850155606081015160038501556004840160018060a01b036080830151166bffffffffffffffffffffffff60a01b82541617905560a081015160058501550151151591019060ff801983541691151516179055565b928260a091810103126101e1576105ca92611f2c611f3192611f068535916060608088013591611e81836101d0565b84611ecc611e8e89611720565b60405160e09190911b6001600160e01b031916602082019081526024820194909452604481019290925281606481015b03601f1981018352826108a7565b51902097611ed861172a565b9485526020818101359086015260408082013590860152013560608401526001600160a01b03166080830152565b4260a0820152600060c0820152611f27856000526003602052604060002090565b611de0565b611720565b906125a7565b63ffffffff1660005260016020526040600020548015611f545790565b60405162461bcd60e51b815260206004820152601f60248201527f4e6f20706565722073657420666f722064657374696e6174696f6e20454944006044820152606490fd5b906020909392936040835263ffffffff81511660408401528181015160608401526080611fed611fd7604084015160a08488015260e087019061098e565b6060840151868203603f190160a088015261098e565b910151151560c08401526001600160a01b03909416910152565b9161206e9192612015611763565b5061201f81611da8565b91604094859361203e8551946120348661088c565b63ffffffff168552565b602084015283830152606082015260006080820152815180938192631bb8518b60e31b8352309060048401611f99565b03817f00000000000000000000000000000000000000000000000000000000000000006001600160a01b03165afa918215610293576000926120af57505090565b6117119250803d106107da576107c381836108a7565b61211661206e9392946120d6611763565b506120e083611da8565b9360409687956120ff8751966120f58861088c565b63ffffffff168752565b602086015285850152606084015215156080830152565b815180938192631bb8518b60e31b8352309060048401611f99565b6040519061213e82610871565b8160008152600060208201526040611b76611763565b906080828203126101e15761171191611b2e565b6121d1608094926121ed969461217c612131565b50602061218986516127b5565b950191825180612256575b5061219e85611da8565b92511515926121ba6121ae611756565b63ffffffff9097168752565b602086015260408501526060840152151585830152565b6040518095819482936302637a4560e41b845260048401611f99565b03917f00000000000000000000000000000000000000000000000000000000000000006001600160a01b03165af19081156102935760009161222d575090565b611711915060803d60801161224f575b61224781836108a7565b810190612154565b503d61223d565b61225f906127d7565b38612194565b90601f811161227357505050565b6000916000526020600020906020601f850160051c830194106122b1575b601f0160051c01915b8281106122a657505050565b81815560010161229a565b9092508290612291565b91909182516001600160401b03811161086c576122e2816122dc8454610801565b84612265565b602080601f83116001146123255750819061231693949560009261231a575b50508160011b916000199060031b1c19161790565b9055565b015190503880612301565b90601f1983169561233b85600052602060002090565b926000905b8882106123785750508360019596971061235f575b505050811b019055565b015160001960f88460031b161c19169055388080612355565b80600185968294968601518155019501930190612340565b6020808201908083528351809252604092604081018260408560051b8401019601946000925b8584106123c7575050505050505090565b90919293949596858061240a600193603f198682030188528b518760609163ffffffff815116845261ffff8682015116868501520151918189820152019061098e565b9901940194019295949391906123b6565b9060009160005b81518110156124a7576001906124a160406124498161244185886119c2565b5101516124e1565b61249c8161245785886119c2565b5101519163ffffffff61246a86896119c2565b515116895261ffff602091600283528a2091612486878a6119c2565b5101511661ffff16600052602052604060002090565b6122bb565b01612422565b507fbe4864a8e820971c0247f5992e2da559595f7bf076a21cb5928d443d2a13b6749192506124dc9060405191829182612390565b0390a1565b600361ffff600283015116036124f45750565b604051639a6d49cd60e01b8152602060048201529081906104ed90602483019061098e565b1561252057565b60405162461bcd60e51b815260206004820152601560248201527414ddd85c08185b1c9958591e48195e1958dd5d1959605a1b6044820152606490fd5b1561256457565b60405162461bcd60e51b815260206004820152600c60248201526b0496e76616c696420737761760a41b6044820152606490fd5b908160209103126101e1575190565b6125bb906000526003602052604060002090565b60068101916125da6125d56125d1855460ff1690565b1590565b612519565b60038201916125eb8354151561255d565b835460ff191660011784556040516370a0823160e01b81523060048201526020947f00000000000000000000000000000000000000000000000000000000000000006001600160a01b031693918681602481885afa90811561029357600091612798575b5085541161278557508354600283015460018401805485546040516396ac363760e01b81526004810195909552602485019390935260448401526064830191909152919086816084816000305af160009181612756575b506127095750509054925460405163a9059cbb60e01b81526001600160a01b0390941660048501526024840152508290829060449082906000905af18015610293576126f0575050565b8161270692903d1061028c5761028481836108a7565b50565b925491549454604080519687526020870191909152850192909252935063ffffffff16917f355917a3a205f2ad96dd4f7ff8526081d716b8a65bac5fbbf17ce432a27e32489150606090a3565b612777919250883d8a1161277e575b61276f81836108a7565b810190612598565b90386126a6565b503d612765565b805460ff19169055506105ca9350505050565b6127af9150873d891161277e5761276f81836108a7565b3861264f565b8034036127bf5790565b6040516304fb820960e51b8152346004820152602490fd5b60405163393f876560e21b81526001600160a01b037f00000000000000000000000000000000000000000000000000000000000000008116926020929091908381600481885afa908115610293576000916128c7575b50169283156128b5576040516323b872dd60e01b8482019081523360248301526001600160a01b03909216604482015260648101929092526000916128758160848101611ebe565b519082855af115611714576000513d6128ac5750803b155b6128945750565b60249060405190635274afe760e01b82526004820152fd5b6001141561288d565b6040516329b99a9560e11b8152600490fd5b90508381813d83116128f6575b6128de81836108a7565b810103126101e157516128f0816101d0565b3861282d565b503d6128d456fea26469706673582212202f7eefabf886bd045171659a4abcf9b6b377845f04d098a37018d0f2ac8050fc64736f6c63430008160033",
  "devdoc": {
    "errors": {
      "OwnableInvalidOwner(address)": [
        {
          "details": "The owner is not a valid owner account. (eg. `address(0)`)"
        }
      ],
      "OwnableUnauthorizedAccount(address)": [
        {
          "details": "The caller account is not authorized to perform an operation."
        }
      ],
      "SafeERC20FailedOperation(address)": [
        {
          "details": "An operation with an ERC-20 token failed."
        }
      ]
    },
    "kind": "dev",
    "methods": {
      "allowInitializePath((uint32,bytes32,uint64))": {
        "details": "This indicates to the endpoint that the OApp has enabled msgs for this particular path to be received.This defaults to assuming if a peer has been set, its initialized. Can be overridden by the OApp if there is other logic to determine this.",
        "params": {
          "origin": "The origin information containing the source endpoint and sender address."
        },
        "returns": {
          "_0": "Whether the path has been initialized."
        }
      },
      "combineOptions(uint32,uint16,bytes)": {
        "details": "If there is an enforced lzReceive option: - {gasLimit: 200k, msg.value: 1 ether} AND a caller supplies a lzReceive option: {gasLimit: 100k, msg.value: 0.5 ether} - The resulting options will be {gasLimit: 300k, msg.value: 1.5 ether} when the message is executed on the remote lzReceive() function.This presence of duplicated options is handled off-chain in the verifier/executor.",
        "params": {
          "_eid": "The endpoint ID.",
          "_extraOptions": "Additional options passed by the caller.",
          "_msgType": "The OAPP message type."
        },
        "returns": {
          "_0": "options The combination of caller specified options AND enforced options."
        }
      },
      "isComposeMsgSender((uint32,bytes32,uint64),bytes,address)": {
        "details": "_origin The origin information containing the source endpoint and sender address.  - srcEid: The source chain endpoint ID.  - sender: The sender address on the src chain.  - nonce: The nonce of the message._message The lzReceive payload.Applications can optionally choose to implement separate composeMsg senders that are NOT the bridging layer.The default sender IS the OAppReceiver implementer.",
        "params": {
          "_sender": "The sender address."
        },
        "returns": {
          "_0": "isSender Is a valid sender."
        }
      },
      "lzReceive((uint32,bytes32,uint64),bytes32,bytes,address,bytes)": {
        "details": "Entry point for receiving messages or packets from the endpoint.Entry point for receiving msg/packet from the LayerZero endpoint.",
        "params": {
          "_executor": "The address of the executor for the received message.",
          "_extraData": "Additional arbitrary data provided by the corresponding executor.",
          "_guid": "The unique identifier for the received LayerZero message.",
          "_message": "The payload of the received message.",
          "_origin": "The origin information containing the source endpoint and sender address.  - srcEid: The source chain endpoint ID.  - sender: The sender address on the src chain.  - nonce: The nonce of the message."
        }
      },
      "nextNonce(uint32,bytes32)": {
        "details": "_srcEid The source endpoint ID._sender The sender address.The path nonce starts from 1. If 0 is returned it means that there is NO nonce ordered enforcement.Is required by the off-chain executor to determine the OApp expects msg execution is ordered.This is also enforced by the OApp.By default this is NOT enabled. ie. nextNonce is hardcoded to return 0.",
        "returns": {
          "nonce": "The next nonce."
        }
      },
      "oAppVersion()": {
        "returns": {
          "receiverVersion": "The version of the OAppReceiver.sol implementation.",
          "senderVersion": "The version of the OAppSender.sol implementation."
        }
      },
      "owner()": {
        "details": "Returns the address of the current owner."
      },
      "renounceOwnership()": {
        "details": "Leaves the contract without owner. It will not be possible to call `onlyOwner` functions. Can only be called by the current owner. NOTE: Renouncing ownership will leave the contract without an owner, thereby disabling any functionality that is only available to the owner."
      },
      "setDelegate(address)": {
        "details": "Only the owner/admin of the OApp can call this function.Provides the ability for a delegate to set configs, on behalf of the OApp, directly on the Endpoint contract.",
        "params": {
          "_delegate": "The address of the delegate to be set."
        }
      },
      "setEnforcedOptions((uint32,uint16,bytes)[])": {
        "details": "Sets the enforced options for specific endpoint and message type combinations.Only the owner/admin of the OApp can call this function.Provides a way for the OApp to enforce things like paying for PreCrime, AND/OR minimum dst lzReceive gas amounts etc.These enforced options can vary as the potential options/execution on the remote may differ as per the msgType. eg. Amount of lzReceive() gas necessary to deliver a lzCompose() message adds overhead you dont want to pay if you are only making a standard LayerZero message ie. lzReceive() WITHOUT sendCompose().",
        "params": {
          "_enforcedOptions": "An array of EnforcedOptionParam structures specifying enforced options."
        }
      },
      "setPeer(uint32,bytes32)": {
        "details": "Only the owner/admin of the OApp can call this function.Indicates that the peer is trusted to send LayerZero messages to this OApp.Set this to bytes32(0) to remove the peer address.Peer is a bytes32 to accommodate non-evm chains.",
        "params": {
          "_eid": "The endpoint ID.",
          "_peer": "The address of the peer to be associated with the corresponding endpoint."
        }
      },
      "transferOwnership(address)": {
        "details": "Transfers ownership of the contract to a new account (`newOwner`). Can only be called by the current owner."
      }
    },
    "title": "CrossChainRouter",
    "version": 1
  },
  "userdoc": {
    "events": {
      "CrossChainSwapInitiated(address,uint32,bytes32,address,bytes32,uint256,uint256,uint256)": {
        "notice": "Events"
      }
    },
    "kind": "user",
    "methods": {
      "SWAP()": {
        "notice": "Message type for cross-chain swaps"
      },
      "_performSwap(uint256,uint256,bytes32,bytes32)": {
        "notice": "Perform the actual DEX swap (external for try/catch)"
      },
      "allowInitializePath((uint32,bytes32,uint64))": {
        "notice": "Checks if the path initialization is allowed based on the provided origin."
      },
      "combineOptions(uint32,uint16,bytes)": {
        "notice": "Combines options for a given endpoint and message type."
      },
      "constructor": {
        "notice": "Initializes the CrossChainRouter - PROPER CONSTRUCTOR"
      },
      "crossChainSwap(uint32,bytes32,address,bytes32,uint256,uint256,bytes)": {
        "notice": "PROPER cross-chain swap using standard LayerZero patterns"
      },
      "dexRouter()": {
        "notice": "The local DEX router used for token swaps"
      },
      "endpoint()": {
        "notice": "Retrieves the LayerZero endpoint associated with the OApp."
      },
      "estimateSwapOutput(address,uint256)": {
        "notice": "Estimates the output amount for a cross-chain swap"
      },
      "isComposeMsgSender((uint32,bytes32,uint64),bytes,address)": {
        "notice": "Indicates whether an address is an approved composeMsg sender to the Endpoint."
      },
      "nextNonce(uint32,bytes32)": {
        "notice": "Retrieves the next nonce for a given source endpoint and sender address."
      },
      "oAppVersion()": {
        "notice": "Retrieves the OApp version information."
      },
      "peers(uint32)": {
        "notice": "Retrieves the peer (OApp) associated with a corresponding endpoint."
      },
      "pendingSwaps(bytes32)": {
        "notice": "Pending swaps waiting for stablecoin arrival"
      },
      "quoteSwap(uint32,bytes32,bytes32,uint256,uint256,bytes,bool)": {
        "notice": "Quotes the fee for a cross-chain swap - PROPER QUOTE FUNCTION"
      },
      "setDelegate(address)": {
        "notice": "Sets the delegate address for the OApp."
      },
      "setPeer(uint32,bytes32)": {
        "notice": "Sets the peer address (OApp instance) for a corresponding endpoint."
      },
      "stablecoin()": {
        "notice": "The stablecoin address used as an intermediary for cross-chain swaps"
      },
      "stablecoinOFT()": {
        "notice": "The stablecoin OFT contract used for bridging"
      }
    },
    "notice": "A proper LayerZero OApp for cross-chain swaps that follows standard patterns",
    "version": 1
  },
  "storageLayout": {
    "storage": [
      {
        "astId": 3861,
        "contract": "contracts/CrossChainRouter.sol:CrossChainRouter",
        "label": "_owner",
        "offset": 0,
        "slot": "0",
        "type": "t_address"
      },
      {
        "astId": 1390,
        "contract": "contracts/CrossChainRouter.sol:CrossChainRouter",
        "label": "peers",
        "offset": 0,
        "slot": "1",
        "type": "t_mapping(t_uint32,t_bytes32)"
      },
      {
        "astId": 2006,
        "contract": "contracts/CrossChainRouter.sol:CrossChainRouter",
        "label": "enforcedOptions",
        "offset": 0,
        "slot": "2",
        "type": "t_mapping(t_uint32,t_mapping(t_uint16,t_bytes_storage))"
      },
      {
        "astId": 5460,
        "contract": "contracts/CrossChainRouter.sol:CrossChainRouter",
        "label": "pendingSwaps",
        "offset": 0,
        "slot": "3",
        "type": "t_mapping(t_bytes32,t_struct(PendingSwap)5475_storage)"
      }
    ],
    "types": {
      "t_address": {
        "encoding": "inplace",
        "label": "address",
        "numberOfBytes": "20"
      },
      "t_bool": {
        "encoding": "inplace",
        "label": "bool",
        "numberOfBytes": "1"
      },
      "t_bytes32": {
        "encoding": "inplace",
        "label": "bytes32",
        "numberOfBytes": "32"
      },
      "t_bytes_storage": {
        "encoding": "bytes",
        "label": "bytes",
        "numberOfBytes": "32"
      },
      "t_mapping(t_bytes32,t_struct(PendingSwap)5475_storage)": {
        "encoding": "mapping",
        "key": "t_bytes32",
        "label": "mapping(bytes32 => struct CrossChainRouter.PendingSwap)",
        "numberOfBytes": "32",
        "value": "t_struct(PendingSwap)5475_storage"
      },
      "t_mapping(t_uint16,t_bytes_storage)": {
        "encoding": "mapping",
        "key": "t_uint16",
        "label": "mapping(uint16 => bytes)",
        "numberOfBytes": "32",
        "value": "t_bytes_storage"
      },
      "t_mapping(t_uint32,t_bytes32)": {
        "encoding": "mapping",
        "key": "t_uint32",
        "label": "mapping(uint32 => bytes32)",
        "numberOfBytes": "32",
        "value": "t_bytes32"
      },
      "t_mapping(t_uint32,t_mapping(t_uint16,t_bytes_storage))": {
        "encoding": "mapping",
        "key": "t_uint32",
        "label": "mapping(uint32 => mapping(uint16 => bytes))",
        "numberOfBytes": "32",
        "value": "t_mapping(t_uint16,t_bytes_storage)"
      },
      "t_struct(PendingSwap)5475_storage": {
        "encoding": "inplace",
        "label": "struct CrossChainRouter.PendingSwap",
        "members": [
          {
            "astId": 5462,
            "contract": "contracts/CrossChainRouter.sol:CrossChainRouter",
            "label": "recipient",
            "offset": 0,
            "slot": "0",
            "type": "t_bytes32"
          },
          {
            "astId": 5464,
            "contract": "contracts/CrossChainRouter.sol:CrossChainRouter",
            "label": "destinationToken",
            "offset": 0,
            "slot": "1",
            "type": "t_bytes32"
          },
          {
            "astId": 5466,
            "contract": "contracts/CrossChainRouter.sol:CrossChainRouter",
            "label": "amountOutMin",
            "offset": 0,
            "slot": "2",
            "type": "t_uint256"
          },
          {
            "astId": 5468,
            "contract": "contracts/CrossChainRouter.sol:CrossChainRouter",
            "label": "stableAmount",
            "offset": 0,
            "slot": "3",
            "type": "t_uint256"
          },
          {
            "astId": 5470,
            "contract": "contracts/CrossChainRouter.sol:CrossChainRouter",
            "label": "refundRecipient",
            "offset": 0,
            "slot": "4",
            "type": "t_address"
          },
          {
            "astId": 5472,
            "contract": "contracts/CrossChainRouter.sol:CrossChainRouter",
            "label": "timestamp",
            "offset": 0,
            "slot": "5",
            "type": "t_uint256"
          },
          {
            "astId": 5474,
            "contract": "contracts/CrossChainRouter.sol:CrossChainRouter",
            "label": "executed",
            "offset": 0,
            "slot": "6",
            "type": "t_bool"
          }
        ],
        "numberOfBytes": "224"
      },
      "t_uint16": {
        "encoding": "inplace",
        "label": "uint16",
        "numberOfBytes": "2"
      },
      "t_uint256": {
        "encoding": "inplace",
        "label": "uint256",
        "numberOfBytes": "32"
      },
      "t_uint32": {
        "encoding": "inplace",
        "label": "uint32",
        "numberOfBytes": "4"
      }
    }
  }
}