{
  "address": "0x69c475d50afa8EAd344E85326369277F88b74CC6",
  "abi": [
    {
      "inputs": [
        {
          "internalType": "address",
          "name": "_endpoint",
          "type": "address"
        },
        {
          "internalType": "address",
          "name": "_owner",
          "type": "address"
        },
        {
          "internalType": "address",
          "name": "_dexRouter",
          "type": "address"
        },
        {
          "internalType": "address",
          "name": "_stablecoin",
          "type": "address"
        }
      ],
      "stateMutability": "nonpayable",
      "type": "constructor"
    },
    {
      "inputs": [],
      "name": "InvalidDelegate",
      "type": "error"
    },
    {
      "inputs": [],
      "name": "InvalidEndpointCall",
      "type": "error"
    },
    {
      "inputs": [
        {
          "internalType": "bytes",
          "name": "options",
          "type": "bytes"
        }
      ],
      "name": "InvalidOptions",
      "type": "error"
    },
    {
      "inputs": [],
      "name": "LzTokenUnavailable",
      "type": "error"
    },
    {
      "inputs": [
        {
          "internalType": "uint32",
          "name": "eid",
          "type": "uint32"
        }
      ],
      "name": "NoPeer",
      "type": "error"
    },
    {
      "inputs": [
        {
          "internalType": "uint256",
          "name": "msgValue",
          "type": "uint256"
        }
      ],
      "name": "NotEnoughNative",
      "type": "error"
    },
    {
      "inputs": [
        {
          "internalType": "address",
          "name": "addr",
          "type": "address"
        }
      ],
      "name": "OnlyEndpoint",
      "type": "error"
    },
    {
      "inputs": [
        {
          "internalType": "uint32",
          "name": "eid",
          "type": "uint32"
        },
        {
          "internalType": "bytes32",
          "name": "sender",
          "type": "bytes32"
        }
      ],
      "name": "OnlyPeer",
      "type": "error"
    },
    {
      "inputs": [
        {
          "internalType": "address",
          "name": "owner",
          "type": "address"
        }
      ],
      "name": "OwnableInvalidOwner",
      "type": "error"
    },
    {
      "inputs": [
        {
          "internalType": "address",
          "name": "account",
          "type": "address"
        }
      ],
      "name": "OwnableUnauthorizedAccount",
      "type": "error"
    },
    {
      "inputs": [
        {
          "internalType": "address",
          "name": "token",
          "type": "address"
        }
      ],
      "name": "SafeERC20FailedOperation",
      "type": "error"
    },
    {
      "anonymous": false,
      "inputs": [
        {
          "indexed": true,
          "internalType": "address",
          "name": "recipient",
          "type": "address"
        },
        {
          "indexed": false,
          "internalType": "address",
          "name": "destinationToken",
          "type": "address"
        },
        {
          "indexed": false,
          "internalType": "uint256",
          "name": "stableAmount",
          "type": "uint256"
        },
        {
          "indexed": false,
          "internalType": "uint256",
          "name": "amountOut",
          "type": "uint256"
        }
      ],
      "name": "CrossChainSwapCompleted",
      "type": "event"
    },
    {
      "anonymous": false,
      "inputs": [
        {
          "indexed": true,
          "internalType": "address",
          "name": "sender",
          "type": "address"
        },
        {
          "indexed": false,
          "internalType": "uint32",
          "name": "destinationEid",
          "type": "uint32"
        },
        {
          "indexed": false,
          "internalType": "address",
          "name": "recipient",
          "type": "address"
        },
        {
          "indexed": false,
          "internalType": "address",
          "name": "sourceToken",
          "type": "address"
        },
        {
          "indexed": false,
          "internalType": "address",
          "name": "destinationToken",
          "type": "address"
        },
        {
          "indexed": false,
          "internalType": "uint256",
          "name": "amountIn",
          "type": "uint256"
        },
        {
          "indexed": false,
          "internalType": "uint256",
          "name": "stableAmount",
          "type": "uint256"
        }
      ],
      "name": "CrossChainSwapInitiated",
      "type": "event"
    },
    {
      "anonymous": false,
      "inputs": [
        {
          "components": [
            {
              "internalType": "uint32",
              "name": "eid",
              "type": "uint32"
            },
            {
              "internalType": "uint16",
              "name": "msgType",
              "type": "uint16"
            },
            {
              "internalType": "bytes",
              "name": "options",
              "type": "bytes"
            }
          ],
          "indexed": false,
          "internalType": "struct EnforcedOptionParam[]",
          "name": "_enforcedOptions",
          "type": "tuple[]"
        }
      ],
      "name": "EnforcedOptionSet",
      "type": "event"
    },
    {
      "anonymous": false,
      "inputs": [
        {
          "indexed": true,
          "internalType": "address",
          "name": "previousOwner",
          "type": "address"
        },
        {
          "indexed": true,
          "internalType": "address",
          "name": "newOwner",
          "type": "address"
        }
      ],
      "name": "OwnershipTransferred",
      "type": "event"
    },
    {
      "anonymous": false,
      "inputs": [
        {
          "indexed": false,
          "internalType": "uint32",
          "name": "eid",
          "type": "uint32"
        },
        {
          "indexed": false,
          "internalType": "bytes32",
          "name": "peer",
          "type": "bytes32"
        }
      ],
      "name": "PeerSet",
      "type": "event"
    },
    {
      "inputs": [],
      "name": "SWAP",
      "outputs": [
        {
          "internalType": "uint16",
          "name": "",
          "type": "uint16"
        }
      ],
      "stateMutability": "view",
      "type": "function"
    },
    {
      "inputs": [
        {
          "components": [
            {
              "internalType": "uint32",
              "name": "srcEid",
              "type": "uint32"
            },
            {
              "internalType": "bytes32",
              "name": "sender",
              "type": "bytes32"
            },
            {
              "internalType": "uint64",
              "name": "nonce",
              "type": "uint64"
            }
          ],
          "internalType": "struct Origin",
          "name": "origin",
          "type": "tuple"
        }
      ],
      "name": "allowInitializePath",
      "outputs": [
        {
          "internalType": "bool",
          "name": "",
          "type": "bool"
        }
      ],
      "stateMutability": "view",
      "type": "function"
    },
    {
      "inputs": [
        {
          "internalType": "uint32",
          "name": "_eid",
          "type": "uint32"
        },
        {
          "internalType": "uint16",
          "name": "_msgType",
          "type": "uint16"
        },
        {
          "internalType": "bytes",
          "name": "_extraOptions",
          "type": "bytes"
        }
      ],
      "name": "combineOptions",
      "outputs": [
        {
          "internalType": "bytes",
          "name": "",
          "type": "bytes"
        }
      ],
      "stateMutability": "view",
      "type": "function"
    },
    {
      "inputs": [
        {
          "internalType": "uint32",
          "name": "_destinationEid",
          "type": "uint32"
        },
        {
          "internalType": "address",
          "name": "_recipient",
          "type": "address"
        },
        {
          "internalType": "address",
          "name": "_sourceToken",
          "type": "address"
        },
        {
          "internalType": "address",
          "name": "_destinationToken",
          "type": "address"
        },
        {
          "internalType": "uint256",
          "name": "_amountIn",
          "type": "uint256"
        },
        {
          "internalType": "uint256",
          "name": "_amountOutMin",
          "type": "uint256"
        },
        {
          "internalType": "bytes",
          "name": "_options",
          "type": "bytes"
        }
      ],
      "name": "crossChainSwap",
      "outputs": [],
      "stateMutability": "payable",
      "type": "function"
    },
    {
      "inputs": [],
      "name": "dexRouter",
      "outputs": [
        {
          "internalType": "contract IPayfundsRouter02",
          "name": "",
          "type": "address"
        }
      ],
      "stateMutability": "view",
      "type": "function"
    },
    {
      "inputs": [],
      "name": "endpoint",
      "outputs": [
        {
          "internalType": "contract ILayerZeroEndpointV2",
          "name": "",
          "type": "address"
        }
      ],
      "stateMutability": "view",
      "type": "function"
    },
    {
      "inputs": [
        {
          "internalType": "uint32",
          "name": "eid",
          "type": "uint32"
        },
        {
          "internalType": "uint16",
          "name": "msgType",
          "type": "uint16"
        }
      ],
      "name": "enforcedOptions",
      "outputs": [
        {
          "internalType": "bytes",
          "name": "enforcedOption",
          "type": "bytes"
        }
      ],
      "stateMutability": "view",
      "type": "function"
    },
    {
      "inputs": [
        {
          "internalType": "address",
          "name": "_sourceToken",
          "type": "address"
        },
        {
          "internalType": "uint256",
          "name": "_amountIn",
          "type": "uint256"
        }
      ],
      "name": "estimateSwapOutput",
      "outputs": [
        {
          "internalType": "uint256",
          "name": "stableAmount",
          "type": "uint256"
        }
      ],
      "stateMutability": "view",
      "type": "function"
    },
    {
      "inputs": [
        {
          "components": [
            {
              "internalType": "uint32",
              "name": "srcEid",
              "type": "uint32"
            },
            {
              "internalType": "bytes32",
              "name": "sender",
              "type": "bytes32"
            },
            {
              "internalType": "uint64",
              "name": "nonce",
              "type": "uint64"
            }
          ],
          "internalType": "struct Origin",
          "name": "",
          "type": "tuple"
        },
        {
          "internalType": "bytes",
          "name": "",
          "type": "bytes"
        },
        {
          "internalType": "address",
          "name": "_sender",
          "type": "address"
        }
      ],
      "name": "isComposeMsgSender",
      "outputs": [
        {
          "internalType": "bool",
          "name": "",
          "type": "bool"
        }
      ],
      "stateMutability": "view",
      "type": "function"
    },
    {
      "inputs": [
        {
          "components": [
            {
              "internalType": "uint32",
              "name": "srcEid",
              "type": "uint32"
            },
            {
              "internalType": "bytes32",
              "name": "sender",
              "type": "bytes32"
            },
            {
              "internalType": "uint64",
              "name": "nonce",
              "type": "uint64"
            }
          ],
          "internalType": "struct Origin",
          "name": "_origin",
          "type": "tuple"
        },
        {
          "internalType": "bytes32",
          "name": "_guid",
          "type": "bytes32"
        },
        {
          "internalType": "bytes",
          "name": "_message",
          "type": "bytes"
        },
        {
          "internalType": "address",
          "name": "_executor",
          "type": "address"
        },
        {
          "internalType": "bytes",
          "name": "_extraData",
          "type": "bytes"
        }
      ],
      "name": "lzReceive",
      "outputs": [],
      "stateMutability": "payable",
      "type": "function"
    },
    {
      "inputs": [
        {
          "internalType": "uint32",
          "name": "",
          "type": "uint32"
        },
        {
          "internalType": "bytes32",
          "name": "",
          "type": "bytes32"
        }
      ],
      "name": "nextNonce",
      "outputs": [
        {
          "internalType": "uint64",
          "name": "nonce",
          "type": "uint64"
        }
      ],
      "stateMutability": "view",
      "type": "function"
    },
    {
      "inputs": [],
      "name": "oAppVersion",
      "outputs": [
        {
          "internalType": "uint64",
          "name": "senderVersion",
          "type": "uint64"
        },
        {
          "internalType": "uint64",
          "name": "receiverVersion",
          "type": "uint64"
        }
      ],
      "stateMutability": "pure",
      "type": "function"
    },
    {
      "inputs": [],
      "name": "owner",
      "outputs": [
        {
          "internalType": "address",
          "name": "",
          "type": "address"
        }
      ],
      "stateMutability": "view",
      "type": "function"
    },
    {
      "inputs": [
        {
          "internalType": "uint32",
          "name": "eid",
          "type": "uint32"
        }
      ],
      "name": "peers",
      "outputs": [
        {
          "internalType": "bytes32",
          "name": "peer",
          "type": "bytes32"
        }
      ],
      "stateMutability": "view",
      "type": "function"
    },
    {
      "inputs": [
        {
          "internalType": "uint32",
          "name": "_dstEid",
          "type": "uint32"
        },
        {
          "internalType": "address",
          "name": "_recipient",
          "type": "address"
        },
        {
          "internalType": "address",
          "name": "_destinationToken",
          "type": "address"
        },
        {
          "internalType": "uint256",
          "name": "_stableAmount",
          "type": "uint256"
        },
        {
          "internalType": "uint256",
          "name": "_amountOutMin",
          "type": "uint256"
        },
        {
          "internalType": "bytes",
          "name": "_options",
          "type": "bytes"
        },
        {
          "internalType": "bool",
          "name": "_payInLzToken",
          "type": "bool"
        }
      ],
      "name": "quoteCrossChainSwap",
      "outputs": [
        {
          "components": [
            {
              "internalType": "uint256",
              "name": "nativeFee",
              "type": "uint256"
            },
            {
              "internalType": "uint256",
              "name": "lzTokenFee",
              "type": "uint256"
            }
          ],
          "internalType": "struct MessagingFee",
          "name": "fee",
          "type": "tuple"
        }
      ],
      "stateMutability": "view",
      "type": "function"
    },
    {
      "inputs": [],
      "name": "renounceOwnership",
      "outputs": [],
      "stateMutability": "nonpayable",
      "type": "function"
    },
    {
      "inputs": [
        {
          "internalType": "address",
          "name": "_delegate",
          "type": "address"
        }
      ],
      "name": "setDelegate",
      "outputs": [],
      "stateMutability": "nonpayable",
      "type": "function"
    },
    {
      "inputs": [
        {
          "components": [
            {
              "internalType": "uint32",
              "name": "eid",
              "type": "uint32"
            },
            {
              "internalType": "uint16",
              "name": "msgType",
              "type": "uint16"
            },
            {
              "internalType": "bytes",
              "name": "options",
              "type": "bytes"
            }
          ],
          "internalType": "struct EnforcedOptionParam[]",
          "name": "_enforcedOptions",
          "type": "tuple[]"
        }
      ],
      "name": "setEnforcedOptions",
      "outputs": [],
      "stateMutability": "nonpayable",
      "type": "function"
    },
    {
      "inputs": [
        {
          "internalType": "uint32",
          "name": "_eid",
          "type": "uint32"
        },
        {
          "internalType": "bytes32",
          "name": "_peer",
          "type": "bytes32"
        }
      ],
      "name": "setPeer",
      "outputs": [],
      "stateMutability": "nonpayable",
      "type": "function"
    },
    {
      "inputs": [],
      "name": "stablecoin",
      "outputs": [
        {
          "internalType": "address",
          "name": "",
          "type": "address"
        }
      ],
      "stateMutability": "view",
      "type": "function"
    },
    {
      "inputs": [
        {
          "internalType": "address",
          "name": "newOwner",
          "type": "address"
        }
      ],
      "name": "transferOwnership",
      "outputs": [],
      "stateMutability": "nonpayable",
      "type": "function"
    },
    {
      "inputs": [
        {
          "internalType": "address payable",
          "name": "_to",
          "type": "address"
        },
        {
          "internalType": "uint256",
          "name": "_amount",
          "type": "uint256"
        }
      ],
      "name": "withdrawNative",
      "outputs": [],
      "stateMutability": "nonpayable",
      "type": "function"
    },
    {
      "inputs": [
        {
          "internalType": "contract IERC20",
          "name": "_token",
          "type": "address"
        },
        {
          "internalType": "address",
          "name": "_to",
          "type": "address"
        },
        {
          "internalType": "uint256",
          "name": "_amount",
          "type": "uint256"
        }
      ],
      "name": "withdrawToken",
      "outputs": [],
      "stateMutability": "nonpayable",
      "type": "function"
    },
    {
      "stateMutability": "payable",
      "type": "receive"
    }
  ],
  "transactionHash": "0x6e2eb7fe9af0ca9b2332c74d11dde4e914d41e9c41e71fc72de20e42cd4b083e",
  "args": [
    "0x6EDCE65403992e310A62460808c4b910D972f10f",
    "0x49f51e3C94B459677c3B1e611DB3E44d4E6b1D55",
    "0xa5812cE58B6Cb897b9B02ED1bAA1f9AC01D4F67e",
    "0x91735d81732902Cb2a80Dcffc2188592B4031226"
  ],
  "numDeployments": 1,
  "solcInputHash": "c8a2ec0c77fd63fbad7d1a98a2f8ed88",
  "bytecode": "0x60e034620001d757601f6200228538819003918201601f19168301926001600160401b0392909183851183861017620001dc578160809284926040978852833981010312620001d7576200005381620001f2565b906200006260208201620001f2565b916200007e606062000076878501620001f2565b9301620001f2565b936001600160a01b039384168015620001bf57600080546001600160a01b031981168317825590938691839083167f8be0079c531659141344cd1fd0a4f28419497f9722a3daafe3b4186f6b6457e08780a3169081608052813b15620001bb57839291602484928a51968793849263ca5eb5e160e01b845260048401525af18015620001b1576200018a575b5050501660a05260c0525161207d90816200020882396080518181816106b501528181610a4201528181610db40152818161100e0152818161172f0152611b24015260a05181818161028a015281816103b801528181610b010152611ddb015260c05181818161043d01528181610ab8015281816110940152611d710152f35b82116200019d575084523880806200010a565b634e487b7160e01b81526041600452602490fd5b87513d84823e3d90fd5b8380fd5b8651631e4fbdf760e01b815260006004820152602490fd5b600080fd5b634e487b7160e01b600052604160045260246000fd5b51906001600160a01b0382168203620001d75756fe6080604052600436101561001b575b361561001957600080fd5b005b60003560e01c806301e336671461018b57806304d84108146101865780630758d92414610181578063077d750e1461017c57806307b18bde1461017757806313137d651461017257806317442b701461016d5780633400288b146101685780635535d461146101635780635e280f111461015e57806368a88e8114610159578063715018a6146101545780637d25a05e1461014f57806382413eac1461014a5780638da5cb5b14610145578063ab4e38ce14610140578063b98bd0701461013b578063bb0b6a5314610136578063bc70b35414610131578063ca5eb5e11461012c578063e9cbd82214610127578063f2fde38b146101225763ff7bd03d0361000e5761114f565b6110c3565b61107e565b610fdd565b610f89565b610f4e565b610e3c565b610c94565b610c61565b610c03565b610bdc565b610b7e565b610a71565b610a2c565b6109ba565b61077a565b610758565b610657565b6105f3565b6102f4565b610274565b610258565b6101a6565b6001600160a01b038116036101a157565b600080fd5b346101a15760603660031901126101a157600060206102126004356101ca81610190565b6024356101d681610190565b6101de61157f565b60405163a9059cbb60e01b81526001600160a01b039091166004820152604480356024830152909485938492839190820190565b03926001600160a01b03165af180156102535761022b57005b6100199060203d60201161024c575b61024481836108ac565b810190611195565b503d61023a565b6111ad565b346101a15760003660031901126101a157602060405160018152f35b346101a15760003660031901126101a1576040517f00000000000000000000000000000000000000000000000000000000000000006001600160a01b03168152602090f35b63ffffffff8116036101a157565b9181601f840112156101a1578235916001600160401b0383116101a157602083818601950101116101a157565b60e03660031901126101a15760043561030c816102b9565b6024359061031982610190565b6044359161032683610190565b6064359261033384610190565b6084359160c4356001600160401b0381116101a1576103569036906004016102c7565b6103618515156111b9565b6040516323b872dd60e01b815233600482015230602482015260448101869052600097602096916001600160a01b038781169189816064818f875af18015610253576105d6575b5060405163095ea7b360e01b81527f0000000000000000000000000000000000000000000000000000000000000000919091166001600160a01b03811660048301526024820185905290918990839060449082908f905af19081156102535761048f928c926105b9575b5061041b611247565b906104388a61042984611278565b6001600160a01b039091169052565b6104657f000000000000000000000000000000000000000000000000000000000000000061042984611285565b61046e426112bf565b91836040518096819582946338ed173960e01b845230908c60048601611389565b03925af1948515610253577fc0648f0729faeebf3b5e66113b12dab88987cc19fde5c8d2873b719c86fd123c986105326104e46105909861054a958f8092610596575b50506104de81516113c3565b90611295565b51604080516001600160a01b03808d16868301908152908916602082015291820183905260a4356060830152919891949061052c90869060800103601f1981018752866108ac565b8d6114b6565b8c61053b611204565b9234845283015233928c6116b2565b506040519586953399879290969594919360a09463ffffffff60c0860199168552600180871b039283809216602087015216604085015216606083015260808201520152565b0390a280f35b6105b292503d8091833e6105aa81836108ac565b8101906112d3565b388f6104d2565b6105cf908b3d8d1161024c5761024481836108ac565b5038610412565b6105ec908a3d8c1161024c5761024481836108ac565b50386103a8565b346101a15760403660031901126101a157600080808060043561061581610190565b6024359061062161157f565b8290821561063c575b6001600160a01b031690f11561025357005b6108fc915061062a565b60609060031901126101a157600490565b60e03660031901126101a15761066c36610646565b6001600160401b036084358181116101a15761068c9036906004016102c7565b9161069860a435610190565b60c4359081116101a1576106b09036906004016102c7565b5050337f00000000000000000000000000000000000000000000000000000000000000006001600160a01b031603610740576106f36106ee846113d2565b6117a3565b92602081013580940361070a5761001983836117db565b61071484916113d2565b60405163309afaf360e21b815263ffffffff9190911660048201526024810191909152604490fd5b0390fd5b6040516391ac5e4f60e01b8152336004820152602490fd5b346101a15760003660031901126101a157604080516001815260026020820152f35b346101a15760403660031901126101a1577f238399d427b947898edb290f5ff0f9109849b1c3ba196a42e35f00c50a54b98b6004356107b8816102b9565b602435906107c461157f565b63ffffffff81166000526001602052816040600020556107fc604051928392836020909392919363ffffffff60408201951681520152565b0390a1005b6024359061ffff821682036101a157565b359061ffff821682036101a157565b90600182811c92168015610851575b602083101461083b57565b634e487b7160e01b600052602260045260246000fd5b91607f1691610830565b634e487b7160e01b600052604160045260246000fd5b604081019081106001600160401b0382111761088c57604052565b61085b565b606081019081106001600160401b0382111761088c57604052565b90601f801991011681019081106001600160401b0382111761088c57604052565b906040519182600082546108e081610821565b908184526020946001916001811690816000146109505750600114610911575b50505061090f925003836108ac565b565b600090815285812095935091905b81831061093857505061090f9350820101388080610900565b8554888401850152948501948794509183019161091f565b9250505061090f94925060ff191682840152151560051b820101388080610900565b60005b8381106109855750506000910152565b8181015183820152602001610975565b906020916109ae81518092818552858086019101610972565b601f01601f1916010190565b346101a15760403660031901126101a157610a28610a14610a0f6004356109e0816102b9565b63ffffffff6109ed610801565b9116600052600260205260406000209061ffff16600052602052604060002090565b6108cd565b604051918291602083526020830190610995565b0390f35b346101a15760003660031901126101a1576040517f00000000000000000000000000000000000000000000000000000000000000006001600160a01b03168152602090f35b346101a15760403660031901126101a157600435610a8e81610190565b610a96611247565b90815115610b79576001600160a01b03166020820152610afd90600090610ae07f000000000000000000000000000000000000000000000000000000000000000061042983611285565b6040518093819263d06ca61f60e01b8352602435600484016113dc565b03817f00000000000000000000000000000000000000000000000000000000000000006001600160a01b03165afa90811561025357610a2891610b4d91600091610b5e575b506104de81516113c3565b516040519081529081906020820190565b610b7391503d806000833e6105aa81836108ac565b38610b42565b611262565b346101a157600080600319360112610bd957610b9861157f565b80546001600160a01b03198116825581906001600160a01b03167f8be0079c531659141344cd1fd0a4f28419497f9722a3daafe3b4186f6b6457e08280a380f35b80fd5b346101a15760403660031901126101a157610bf86004356102b9565b602060405160008152f35b346101a15760a03660031901126101a157610c1d36610646565b506064356001600160401b0381116101a157610c3d9036906004016102c7565b50506020608435610c4d81610190565b6040516001600160a01b0390911630148152f35b346101a15760003660031901126101a1576000546040516001600160a01b039091168152602090f35b801515036101a157565b346101a15760e03660031901126101a157600435610cb1816102b9565b60243590610cbe82610190565b60443591610ccb83610190565b60a435916001600160401b0383116101a157610d95610d54610db095610cf8610d4e9636906004016102c7565b60c4359391610d0685610c8a565b610d0e6113f3565b50604080516001600160a01b03998a166020820152949098168489015260643560608501526084356080808601919091528452969788979060a0856108ac565b866114b6565b90610d5d6113f3565b50610d67856117a3565b610d7e610d72611211565b63ffffffff9097168752565b602086015285850152606084015215156080830152565b815180948192631bb8518b60e31b8352309060048401611644565b03817f00000000000000000000000000000000000000000000000000000000000000006001600160a01b03165afa90811561025357610a2892600092610e0d575b5051918291829190916020806040830194805184520151910152565b81610e2e9293503d8411610e35575b610e2681836108ac565b810190611823565b9038610df1565b503d610e1c565b346101a1576020806003193601126101a1576004356001600160401b038082116101a157366023830112156101a1578160040135918183116101a15760249060248460051b820101923684116101a157610e9461157f565b610e9d85611230565b94604090610eae60405197886108ac565b86526024830192602087015b868510610eca57610019886119ed565b84358481116101a1578201606060231982360301126101a157835191610eef83610891565b87820135610efc816102b9565b8352604491610f0c838201610812565b8c8501526064810135908782116101a1570192366043850112156101a157610f3f8c9493859436918c820135910161140c565b86820152815201940193610eba565b346101a15760203660031901126101a15763ffffffff600435610f70816102b9565b1660005260016020526020604060002054604051908152f35b346101a15760603660031901126101a157600435610fa6816102b9565b610fae610801565b604435906001600160401b0382116101a157610a2892610fd5610a149336906004016102c7565b929091611551565b346101a15760006020366003190112610bd957600435610ffc81610190565b61100461157f565b6001600160a01b037f0000000000000000000000000000000000000000000000000000000000000000811691839190833b1561107a5760249083604051958694859363ca5eb5e160e01b85521660048401525af1801561025357611066575080f35b6001600160401b03811161088c5760405280f35b8280fd5b346101a15760003660031901126101a1576040517f00000000000000000000000000000000000000000000000000000000000000006001600160a01b03168152602090f35b346101a15760203660031901126101a1576004356110e081610190565b6110e861157f565b6001600160a01b03908116801561113657600080546001600160a01b03198116831782559092167f8be0079c531659141344cd1fd0a4f28419497f9722a3daafe3b4186f6b6457e08380a380f35b604051631e4fbdf760e01b815260006004820152602490fd5b346101a15760603660031901126101a157602061116b36610646565b63ffffffff813561117b816102b9565b166000526001825260406000205482604051920135148152f35b908160209103126101a157516111aa81610c8a565b90565b6040513d6000823e3d90fd5b156111c057565b606460405162461bcd60e51b815260206004820152602060248201527f416d6f756e74206d7573742062652067726561746572207468616e207a65726f6044820152fd5b6040519061090f82610871565b6040519060a082018281106001600160401b0382111761088c57604052565b6001600160401b03811161088c5760051b60200190565b6040519061125482610891565b600282526040366020840137565b634e487b7160e01b600052603260045260246000fd5b805115610b795760200190565b805160011015610b795760400190565b8051821015610b795760209160051b010190565b634e487b7160e01b600052601160045260246000fd5b906104b082018092116112ce57565b6112a9565b60209081818403126101a1578051906001600160401b0382116101a157019180601f840112156101a157825161130881611230565b9361131660405195866108ac565b818552838086019260051b8201019283116101a1578301905b82821061133d575050505090565b8151815290830190830161132f565b90815180825260208080930193019160005b82811061136c575050505090565b83516001600160a01b03168552938101939281019260010161135e565b906080926113af919695949683526000602084015260a0604084015260a083019061134c565b6001600160a01b0390951660608201520152565b6000198101919082116112ce57565b356111aa816102b9565b6040906111aa93928152816020820152019061134c565b6040519061140082610871565b60006020838281520152565b9291926001600160401b03821161088c5760405191611435601f8201601f1916602001846108ac565b8294818452818301116101a1578281602093846000960137010152565b6020908361090f9395949560405196836114758995518092888089019101610972565b84019185830137016000838201520380855201836108ac565b90918060409360208452816020850152848401376000828201840152601f01601f1916010190565b63ffffffff1660005260026020526114df610a0f60406000206001600052602052604060002090565b80511561154557821561153f576002831015611512575061073c604051928392639a6d49cd60e01b84526004840161148e565b61152561152036858561140c565b611ab3565b826002116101a1576111aa92600119019160020190611452565b91505090565b506111aa91369161140c565b6114df9163ffffffff610a0f9216600052600260205260406000209061ffff16600052602052604060002090565b6000546001600160a01b0316330361159357565b60405163118cdaa760e01b8152336004820152602490fd5b604051906115b882610891565b81600081526000602082015260406115ce6113f3565b910152565b91908260409103126101a1576040516115eb81610871565b6020808294805184520151910152565b6080818303126101a1576040519161161283610891565b8151835260208201516001600160401b03811681036101a157602084015261163c916040016115d3565b604082015290565b906020909392936040835263ffffffff81511660408401528181015160608401526080611698611682604084015160a08488015260e0870190610995565b6060840151868203603f190160a0880152610995565b910151151560c08401526001600160a01b03909416910152565b61170f6080949261172b96946116c66115ab565b5060206116d38651611aeb565b950191825180611794575b506116e8856117a3565b92511515926116f8610d72611211565b602086015260408501526060840152151585830152565b6040518095819482936302637a4560e41b845260048401611644565b03917f00000000000000000000000000000000000000000000000000000000000000006001600160a01b03165af19081156102535760009161176b575090565b6111aa915060803d60801161178d575b61178581836108ac565b8101906115fb565b503d61177b565b61179d90611b0d565b386116de565b63ffffffff168060005260016020526040600020549081156117c3575090565b6024906040519063f6ff4fb760e01b82526004820152fd5b9081608091810103126101a1578061090f91356117f781610190565b60208201359061180682610190565b60608301359260400135916001600160a01b039081169116611d33565b906040828203126101a1576111aa916115d3565b90601f811161184557505050565b6000916000526020600020906020601f850160051c83019410611883575b601f0160051c01915b82811061187857505050565b81815560010161186c565b9092508290611863565b91909182516001600160401b03811161088c576118b4816118ae8454610821565b84611837565b602080601f83116001146118f7575081906118e89394956000926118ec575b50508160011b916000199060031b1c19161790565b9055565b0151905038806118d3565b90601f1983169561190d85600052602060002090565b926000905b88821061194a57505083600195969710611931575b505050811b019055565b015160001960f88460031b161c19169055388080611927565b80600185968294968601518155019501930190611912565b6020808201908083528351809252604092604081018260408560051b8401019601946000925b858410611999575050505050505090565b9091929394959685806119dc600193603f198682030188528b518760609163ffffffff815116845261ffff86820151168685015201519181898201520190610995565b990194019401929594939190611988565b9060009160005b8151811015611a7957600190611a736040611a1b81611a138588611295565b510151611ab3565b611a6e81611a298588611295565b5101519163ffffffff611a3c8689611295565b515116895261ffff602091600283528a2091611a58878a611295565b5101511661ffff16600052602052604060002090565b61188d565b016119f4565b507fbe4864a8e820971c0247f5992e2da559595f7bf076a21cb5928d443d2a13b674919250611aae9060405191829182611962565b0390a1565b600361ffff60028301511603611ac65750565b604051639a6d49cd60e01b81526020600482015290819061073c906024830190610995565b803403611af55790565b6040516304fb820960e51b8152346004820152602490fd5b60405163393f876560e21b81526001600160a01b037f00000000000000000000000000000000000000000000000000000000000000008116926020929091908381600481885afa90811561025357600091611c00575b5016928315611bee576040516323b872dd60e01b8482019081523360248301526001600160a01b03929092166044820152606480820193909352918252600091611bae6084826108ac565b519082855af1156111ad576000513d611be55750803b155b611bcd5750565b60249060405190635274afe760e01b82526004820152fd5b60011415611bc6565b6040516329b99a9560e11b8152600490fd5b90508381813d8311611c2f575b611c1781836108ac565b810103126101a15751611c2981610190565b38611b63565b503d611c0d565b15611c3d57565b60405162461bcd60e51b8152602060048201526011602482015270125b9d985b1a59081c9958da5c1a595b9d607a1b6044820152606490fd5b15611c7d57565b60405162461bcd60e51b815260206004820152600e60248201526d125b9d985b1a5908185b5bdd5b9d60921b6044820152606490fd5b908160209103126101a1575190565b15611cc957565b60405162461bcd60e51b815260206004820152601f60248201527f496e73756666696369656e7420737461626c65636f696e2062616c616e6365006044820152606490fd5b91926080936113af92979695978452602084015260a0604084015260a083019061134c565b6001600160a01b0380821694909392611d4d861515611c36565b611d58841515611c76565b604080516370a0823160e01b81523060048201526020967f000000000000000000000000000000000000000000000000000000000000000095929486821694929091908981602481895afa90811561025357611dc0918a9160009161201a575b501015611cc2565b88888683861614611fdf575050855163095ea7b360e01b81527f0000000000000000000000000000000000000000000000000000000000000000919091166001600160a01b0381166004830152602482018990529091898360448160008a5af1918215610253578593600093611fc2575b50611e3a611247565b91611e488a61042985611278565b611e558661042985611285565b838b611e7f611e63426112bf565b8c516338ed173960e01b81529889978896879560048701611d0e565b03925af160009181611fa5575b50611f45575050825163a9059cbb60e01b81526001600160a01b0390911660048201526024810185905291908590839081600081604481015b03925af1908115610253577f996098ece72e0665996d225402c11c420be9b26f78cf9ccf79d4be25869f5e2a95611f22938693611f27575b50505193849384604091949392606082019560018060a01b0316825260208201520152565b0390a2565b81611f3d92903d1061024c5761024481836108ac565b503880611efd565b9094507f996098ece72e0665996d225402c11c420be9b26f78cf9ccf79d4be25869f5e2a9650611f22939250611f8091506104de81516113c3565b51905193849384604091949392606082019560018060a01b0316825260208201520152565b611fbb9192503d806000833e6105aa81836108ac565b9038611e8c565b611fd8908c8d3d1061024c5761024481836108ac565b5038611e31565b875163a9059cbb60e01b81526001600160a01b0390961660048701526024860152929650929493919250849190508160008160448101611ec5565b61203a91508c8d3d10612040575b61203281836108ac565b810190611cb3565b38611db8565b503d61202856fea2646970667358221220935db68162e304b0403383f9a052e5c1eebc0bba1bf965113b9164fc80ea5a0b64736f6c63430008160033",
  "devdoc": {
    "errors": {
      "OwnableInvalidOwner(address)": [
        {
          "details": "The owner is not a valid owner account. (eg. `address(0)`)"
        }
      ],
      "OwnableUnauthorizedAccount(address)": [
        {
          "details": "The caller account is not authorized to perform an operation."
        }
      ],
      "SafeERC20FailedOperation(address)": [
        {
          "details": "An operation with an ERC-20 token failed."
        }
      ]
    },
    "kind": "dev",
    "methods": {
      "allowInitializePath((uint32,bytes32,uint64))": {
        "details": "This indicates to the endpoint that the OApp has enabled msgs for this particular path to be received.This defaults to assuming if a peer has been set, its initialized. Can be overridden by the OApp if there is other logic to determine this.",
        "params": {
          "origin": "The origin information containing the source endpoint and sender address."
        },
        "returns": {
          "_0": "Whether the path has been initialized."
        }
      },
      "combineOptions(uint32,uint16,bytes)": {
        "details": "If there is an enforced lzReceive option: - {gasLimit: 200k, msg.value: 1 ether} AND a caller supplies a lzReceive option: {gasLimit: 100k, msg.value: 0.5 ether} - The resulting options will be {gasLimit: 300k, msg.value: 1.5 ether} when the message is executed on the remote lzReceive() function.This presence of duplicated options is handled off-chain in the verifier/executor.",
        "params": {
          "_eid": "The endpoint ID.",
          "_extraOptions": "Additional options passed by the caller.",
          "_msgType": "The OAPP message type."
        },
        "returns": {
          "_0": "options The combination of caller specified options AND enforced options."
        }
      },
      "isComposeMsgSender((uint32,bytes32,uint64),bytes,address)": {
        "details": "_origin The origin information containing the source endpoint and sender address.  - srcEid: The source chain endpoint ID.  - sender: The sender address on the src chain.  - nonce: The nonce of the message._message The lzReceive payload.Applications can optionally choose to implement separate composeMsg senders that are NOT the bridging layer.The default sender IS the OAppReceiver implementer.",
        "params": {
          "_sender": "The sender address."
        },
        "returns": {
          "_0": "isSender Is a valid sender."
        }
      },
      "lzReceive((uint32,bytes32,uint64),bytes32,bytes,address,bytes)": {
        "details": "Entry point for receiving messages or packets from the endpoint.Entry point for receiving msg/packet from the LayerZero endpoint.",
        "params": {
          "_executor": "The address of the executor for the received message.",
          "_extraData": "Additional arbitrary data provided by the corresponding executor.",
          "_guid": "The unique identifier for the received LayerZero message.",
          "_message": "The payload of the received message.",
          "_origin": "The origin information containing the source endpoint and sender address.  - srcEid: The source chain endpoint ID.  - sender: The sender address on the src chain.  - nonce: The nonce of the message."
        }
      },
      "nextNonce(uint32,bytes32)": {
        "details": "_srcEid The source endpoint ID._sender The sender address.The path nonce starts from 1. If 0 is returned it means that there is NO nonce ordered enforcement.Is required by the off-chain executor to determine the OApp expects msg execution is ordered.This is also enforced by the OApp.By default this is NOT enabled. ie. nextNonce is hardcoded to return 0.",
        "returns": {
          "nonce": "The next nonce."
        }
      },
      "oAppVersion()": {
        "returns": {
          "receiverVersion": "The version of the OAppReceiver.sol implementation.",
          "senderVersion": "The version of the OAppSender.sol implementation."
        }
      },
      "owner()": {
        "details": "Returns the address of the current owner."
      },
      "renounceOwnership()": {
        "details": "Leaves the contract without owner. It will not be possible to call `onlyOwner` functions. Can only be called by the current owner. NOTE: Renouncing ownership will leave the contract without an owner, thereby disabling any functionality that is only available to the owner."
      },
      "setDelegate(address)": {
        "details": "Only the owner/admin of the OApp can call this function.Provides the ability for a delegate to set configs, on behalf of the OApp, directly on the Endpoint contract.",
        "params": {
          "_delegate": "The address of the delegate to be set."
        }
      },
      "setEnforcedOptions((uint32,uint16,bytes)[])": {
        "details": "Sets the enforced options for specific endpoint and message type combinations.Only the owner/admin of the OApp can call this function.Provides a way for the OApp to enforce things like paying for PreCrime, AND/OR minimum dst lzReceive gas amounts etc.These enforced options can vary as the potential options/execution on the remote may differ as per the msgType. eg. Amount of lzReceive() gas necessary to deliver a lzCompose() message adds overhead you dont want to pay if you are only making a standard LayerZero message ie. lzReceive() WITHOUT sendCompose().",
        "params": {
          "_enforcedOptions": "An array of EnforcedOptionParam structures specifying enforced options."
        }
      },
      "setPeer(uint32,bytes32)": {
        "details": "Only the owner/admin of the OApp can call this function.Indicates that the peer is trusted to send LayerZero messages to this OApp.Set this to bytes32(0) to remove the peer address.Peer is a bytes32 to accommodate non-evm chains.",
        "params": {
          "_eid": "The endpoint ID.",
          "_peer": "The address of the peer to be associated with the corresponding endpoint."
        }
      },
      "transferOwnership(address)": {
        "details": "Transfers ownership of the contract to a new account (`newOwner`). Can only be called by the current owner."
      }
    },
    "version": 1
  },
  "userdoc": {
    "kind": "user",
    "methods": {
      "allowInitializePath((uint32,bytes32,uint64))": {
        "notice": "Checks if the path initialization is allowed based on the provided origin."
      },
      "combineOptions(uint32,uint16,bytes)": {
        "notice": "Combines options for a given endpoint and message type."
      },
      "endpoint()": {
        "notice": "Retrieves the LayerZero endpoint associated with the OApp."
      },
      "isComposeMsgSender((uint32,bytes32,uint64),bytes,address)": {
        "notice": "Indicates whether an address is an approved composeMsg sender to the Endpoint."
      },
      "nextNonce(uint32,bytes32)": {
        "notice": "Retrieves the next nonce for a given source endpoint and sender address."
      },
      "oAppVersion()": {
        "notice": "Retrieves the OApp version information."
      },
      "peers(uint32)": {
        "notice": "Retrieves the peer (OApp) associated with a corresponding endpoint."
      },
      "setDelegate(address)": {
        "notice": "Sets the delegate address for the OApp."
      },
      "setPeer(uint32,bytes32)": {
        "notice": "Sets the peer address (OApp instance) for a corresponding endpoint."
      }
    },
    "version": 1
  },
  "storageLayout": {
    "storage": [
      {
        "astId": 1533,
        "contract": "contracts/CrossChainRouter.sol:SimpleCrossChainRouter",
        "label": "_owner",
        "offset": 0,
        "slot": "0",
        "type": "t_address"
      },
      {
        "astId": 785,
        "contract": "contracts/CrossChainRouter.sol:SimpleCrossChainRouter",
        "label": "peers",
        "offset": 0,
        "slot": "1",
        "type": "t_mapping(t_uint32,t_bytes32)"
      },
      {
        "astId": 1381,
        "contract": "contracts/CrossChainRouter.sol:SimpleCrossChainRouter",
        "label": "enforcedOptions",
        "offset": 0,
        "slot": "2",
        "type": "t_mapping(t_uint32,t_mapping(t_uint16,t_bytes_storage))"
      }
    ],
    "types": {
      "t_address": {
        "encoding": "inplace",
        "label": "address",
        "numberOfBytes": "20"
      },
      "t_bytes32": {
        "encoding": "inplace",
        "label": "bytes32",
        "numberOfBytes": "32"
      },
      "t_bytes_storage": {
        "encoding": "bytes",
        "label": "bytes",
        "numberOfBytes": "32"
      },
      "t_mapping(t_uint16,t_bytes_storage)": {
        "encoding": "mapping",
        "key": "t_uint16",
        "label": "mapping(uint16 => bytes)",
        "numberOfBytes": "32",
        "value": "t_bytes_storage"
      },
      "t_mapping(t_uint32,t_bytes32)": {
        "encoding": "mapping",
        "key": "t_uint32",
        "label": "mapping(uint32 => bytes32)",
        "numberOfBytes": "32",
        "value": "t_bytes32"
      },
      "t_mapping(t_uint32,t_mapping(t_uint16,t_bytes_storage))": {
        "encoding": "mapping",
        "key": "t_uint32",
        "label": "mapping(uint32 => mapping(uint16 => bytes))",
        "numberOfBytes": "32",
        "value": "t_mapping(t_uint16,t_bytes_storage)"
      },
      "t_uint16": {
        "encoding": "inplace",
        "label": "uint16",
        "numberOfBytes": "2"
      },
      "t_uint32": {
        "encoding": "inplace",
        "label": "uint32",
        "numberOfBytes": "4"
      }
    }
  }
}