{
  "address": "0x8a2e83697D249E5C490233E59F8831cd20A850Bc",
  "abi": [
    {
      "inputs": [
        {
          "internalType": "address",
          "name": "_lzEndpoint",
          "type": "address"
        },
        {
          "internalType": "address",
          "name": "_owner",
          "type": "address"
        },
        {
          "internalType": "address",
          "name": "_dexRouter",
          "type": "address"
        },
        {
          "internalType": "address",
          "name": "_stablecoinOFT",
          "type": "address"
        }
      ],
      "stateMutability": "nonpayable",
      "type": "constructor"
    },
    {
      "inputs": [],
      "name": "InvalidDelegate",
      "type": "error"
    },
    {
      "inputs": [],
      "name": "InvalidEndpointCall",
      "type": "error"
    },
    {
      "inputs": [
        {
          "internalType": "bytes",
          "name": "options",
          "type": "bytes"
        }
      ],
      "name": "InvalidOptions",
      "type": "error"
    },
    {
      "inputs": [],
      "name": "LzTokenUnavailable",
      "type": "error"
    },
    {
      "inputs": [
        {
          "internalType": "uint32",
          "name": "eid",
          "type": "uint32"
        }
      ],
      "name": "NoPeer",
      "type": "error"
    },
    {
      "inputs": [
        {
          "internalType": "uint256",
          "name": "msgValue",
          "type": "uint256"
        }
      ],
      "name": "NotEnoughNative",
      "type": "error"
    },
    {
      "inputs": [
        {
          "internalType": "address",
          "name": "addr",
          "type": "address"
        }
      ],
      "name": "OnlyEndpoint",
      "type": "error"
    },
    {
      "inputs": [
        {
          "internalType": "uint32",
          "name": "eid",
          "type": "uint32"
        },
        {
          "internalType": "bytes32",
          "name": "sender",
          "type": "bytes32"
        }
      ],
      "name": "OnlyPeer",
      "type": "error"
    },
    {
      "inputs": [
        {
          "internalType": "address",
          "name": "owner",
          "type": "address"
        }
      ],
      "name": "OwnableInvalidOwner",
      "type": "error"
    },
    {
      "inputs": [
        {
          "internalType": "address",
          "name": "account",
          "type": "address"
        }
      ],
      "name": "OwnableUnauthorizedAccount",
      "type": "error"
    },
    {
      "inputs": [
        {
          "internalType": "address",
          "name": "token",
          "type": "address"
        }
      ],
      "name": "SafeERC20FailedOperation",
      "type": "error"
    },
    {
      "anonymous": false,
      "inputs": [
        {
          "indexed": true,
          "internalType": "uint32",
          "name": "sourceEid",
          "type": "uint32"
        },
        {
          "indexed": true,
          "internalType": "bytes32",
          "name": "recipient",
          "type": "bytes32"
        },
        {
          "indexed": false,
          "internalType": "bytes32",
          "name": "destinationToken",
          "type": "bytes32"
        },
        {
          "indexed": false,
          "internalType": "uint256",
          "name": "stableAmount",
          "type": "uint256"
        },
        {
          "indexed": false,
          "internalType": "uint256",
          "name": "amountOut",
          "type": "uint256"
        }
      ],
      "name": "CrossChainSwapCompleted",
      "type": "event"
    },
    {
      "anonymous": false,
      "inputs": [
        {
          "indexed": true,
          "internalType": "address",
          "name": "sender",
          "type": "address"
        },
        {
          "indexed": false,
          "internalType": "uint32",
          "name": "destinationEid",
          "type": "uint32"
        },
        {
          "indexed": false,
          "internalType": "bytes32",
          "name": "recipient",
          "type": "bytes32"
        },
        {
          "indexed": false,
          "internalType": "address",
          "name": "sourceToken",
          "type": "address"
        },
        {
          "indexed": false,
          "internalType": "bytes32",
          "name": "destinationToken",
          "type": "bytes32"
        },
        {
          "indexed": false,
          "internalType": "uint256",
          "name": "amountIn",
          "type": "uint256"
        },
        {
          "indexed": false,
          "internalType": "uint256",
          "name": "stableAmount",
          "type": "uint256"
        },
        {
          "indexed": false,
          "internalType": "uint256",
          "name": "amountOutMin",
          "type": "uint256"
        }
      ],
      "name": "CrossChainSwapInitiated",
      "type": "event"
    },
    {
      "anonymous": false,
      "inputs": [
        {
          "components": [
            {
              "internalType": "uint32",
              "name": "eid",
              "type": "uint32"
            },
            {
              "internalType": "uint16",
              "name": "msgType",
              "type": "uint16"
            },
            {
              "internalType": "bytes",
              "name": "options",
              "type": "bytes"
            }
          ],
          "indexed": false,
          "internalType": "struct EnforcedOptionParam[]",
          "name": "_enforcedOptions",
          "type": "tuple[]"
        }
      ],
      "name": "EnforcedOptionSet",
      "type": "event"
    },
    {
      "anonymous": false,
      "inputs": [
        {
          "indexed": true,
          "internalType": "address",
          "name": "previousOwner",
          "type": "address"
        },
        {
          "indexed": true,
          "internalType": "address",
          "name": "newOwner",
          "type": "address"
        }
      ],
      "name": "OwnershipTransferred",
      "type": "event"
    },
    {
      "anonymous": false,
      "inputs": [
        {
          "indexed": false,
          "internalType": "uint32",
          "name": "eid",
          "type": "uint32"
        },
        {
          "indexed": false,
          "internalType": "bytes32",
          "name": "peer",
          "type": "bytes32"
        }
      ],
      "name": "PeerSet",
      "type": "event"
    },
    {
      "anonymous": false,
      "inputs": [
        {
          "indexed": true,
          "internalType": "bytes32",
          "name": "swapId",
          "type": "bytes32"
        },
        {
          "indexed": false,
          "internalType": "bytes32",
          "name": "recipient",
          "type": "bytes32"
        },
        {
          "indexed": false,
          "internalType": "uint256",
          "name": "stableAmount",
          "type": "uint256"
        },
        {
          "indexed": false,
          "internalType": "string",
          "name": "reason",
          "type": "string"
        }
      ],
      "name": "SwapFailed",
      "type": "event"
    },
    {
      "anonymous": false,
      "inputs": [
        {
          "indexed": true,
          "internalType": "bytes32",
          "name": "swapId",
          "type": "bytes32"
        },
        {
          "indexed": false,
          "internalType": "bytes32",
          "name": "recipient",
          "type": "bytes32"
        },
        {
          "indexed": false,
          "internalType": "bytes32",
          "name": "destinationToken",
          "type": "bytes32"
        },
        {
          "indexed": false,
          "internalType": "uint256",
          "name": "stableAmount",
          "type": "uint256"
        },
        {
          "indexed": false,
          "internalType": "uint256",
          "name": "amountOutMin",
          "type": "uint256"
        }
      ],
      "name": "SwapInstructionsReceived",
      "type": "event"
    },
    {
      "inputs": [],
      "name": "DESTINATION_GAS_LIMIT",
      "outputs": [
        {
          "internalType": "uint256",
          "name": "",
          "type": "uint256"
        }
      ],
      "stateMutability": "view",
      "type": "function"
    },
    {
      "inputs": [],
      "name": "SWAP",
      "outputs": [
        {
          "internalType": "uint16",
          "name": "",
          "type": "uint16"
        }
      ],
      "stateMutability": "view",
      "type": "function"
    },
    {
      "inputs": [
        {
          "internalType": "uint256",
          "name": "stableAmount",
          "type": "uint256"
        },
        {
          "internalType": "uint256",
          "name": "amountOutMin",
          "type": "uint256"
        },
        {
          "internalType": "bytes32",
          "name": "destinationToken",
          "type": "bytes32"
        },
        {
          "internalType": "bytes32",
          "name": "recipient",
          "type": "bytes32"
        }
      ],
      "name": "_performSwap",
      "outputs": [
        {
          "internalType": "uint256",
          "name": "amountOut",
          "type": "uint256"
        }
      ],
      "stateMutability": "nonpayable",
      "type": "function"
    },
    {
      "inputs": [
        {
          "internalType": "address",
          "name": "_addr",
          "type": "address"
        }
      ],
      "name": "addressToBytes32",
      "outputs": [
        {
          "internalType": "bytes32",
          "name": "",
          "type": "bytes32"
        }
      ],
      "stateMutability": "pure",
      "type": "function"
    },
    {
      "inputs": [
        {
          "components": [
            {
              "internalType": "uint32",
              "name": "srcEid",
              "type": "uint32"
            },
            {
              "internalType": "bytes32",
              "name": "sender",
              "type": "bytes32"
            },
            {
              "internalType": "uint64",
              "name": "nonce",
              "type": "uint64"
            }
          ],
          "internalType": "struct Origin",
          "name": "origin",
          "type": "tuple"
        }
      ],
      "name": "allowInitializePath",
      "outputs": [
        {
          "internalType": "bool",
          "name": "",
          "type": "bool"
        }
      ],
      "stateMutability": "view",
      "type": "function"
    },
    {
      "inputs": [
        {
          "internalType": "uint32",
          "name": "_eid",
          "type": "uint32"
        },
        {
          "internalType": "uint16",
          "name": "_msgType",
          "type": "uint16"
        },
        {
          "internalType": "bytes",
          "name": "_extraOptions",
          "type": "bytes"
        }
      ],
      "name": "combineOptions",
      "outputs": [
        {
          "internalType": "bytes",
          "name": "",
          "type": "bytes"
        }
      ],
      "stateMutability": "view",
      "type": "function"
    },
    {
      "inputs": [
        {
          "internalType": "uint32",
          "name": "_destinationEid",
          "type": "uint32"
        },
        {
          "internalType": "bytes32",
          "name": "_recipient",
          "type": "bytes32"
        },
        {
          "internalType": "address",
          "name": "_sourceToken",
          "type": "address"
        },
        {
          "internalType": "bytes32",
          "name": "_destinationToken",
          "type": "bytes32"
        },
        {
          "internalType": "uint256",
          "name": "_amountIn",
          "type": "uint256"
        },
        {
          "internalType": "uint256",
          "name": "_amountOutMin",
          "type": "uint256"
        },
        {
          "internalType": "bytes",
          "name": "_options",
          "type": "bytes"
        }
      ],
      "name": "crossChainSwap",
      "outputs": [],
      "stateMutability": "payable",
      "type": "function"
    },
    {
      "inputs": [],
      "name": "dexRouter",
      "outputs": [
        {
          "internalType": "contract IPayfundsRouter02",
          "name": "",
          "type": "address"
        }
      ],
      "stateMutability": "view",
      "type": "function"
    },
    {
      "inputs": [],
      "name": "endpoint",
      "outputs": [
        {
          "internalType": "contract ILayerZeroEndpointV2",
          "name": "",
          "type": "address"
        }
      ],
      "stateMutability": "view",
      "type": "function"
    },
    {
      "inputs": [
        {
          "internalType": "uint32",
          "name": "eid",
          "type": "uint32"
        },
        {
          "internalType": "uint16",
          "name": "msgType",
          "type": "uint16"
        }
      ],
      "name": "enforcedOptions",
      "outputs": [
        {
          "internalType": "bytes",
          "name": "enforcedOption",
          "type": "bytes"
        }
      ],
      "stateMutability": "view",
      "type": "function"
    },
    {
      "inputs": [
        {
          "internalType": "bytes32",
          "name": "_destinationToken",
          "type": "bytes32"
        },
        {
          "internalType": "uint256",
          "name": "_stableAmount",
          "type": "uint256"
        }
      ],
      "name": "estimateDestinationOutput",
      "outputs": [
        {
          "internalType": "uint256",
          "name": "destTokenAmount",
          "type": "uint256"
        }
      ],
      "stateMutability": "view",
      "type": "function"
    },
    {
      "inputs": [
        {
          "internalType": "address",
          "name": "_sourceToken",
          "type": "address"
        },
        {
          "internalType": "uint256",
          "name": "_amountIn",
          "type": "uint256"
        }
      ],
      "name": "estimateSwapOutput",
      "outputs": [
        {
          "internalType": "uint256",
          "name": "sourceStableAmount",
          "type": "uint256"
        }
      ],
      "stateMutability": "view",
      "type": "function"
    },
    {
      "inputs": [
        {
          "internalType": "bytes32",
          "name": "swapId",
          "type": "bytes32"
        }
      ],
      "name": "executeSwap",
      "outputs": [],
      "stateMutability": "nonpayable",
      "type": "function"
    },
    {
      "inputs": [
        {
          "components": [
            {
              "internalType": "uint32",
              "name": "srcEid",
              "type": "uint32"
            },
            {
              "internalType": "bytes32",
              "name": "sender",
              "type": "bytes32"
            },
            {
              "internalType": "uint64",
              "name": "nonce",
              "type": "uint64"
            }
          ],
          "internalType": "struct Origin",
          "name": "",
          "type": "tuple"
        },
        {
          "internalType": "bytes",
          "name": "",
          "type": "bytes"
        },
        {
          "internalType": "address",
          "name": "_sender",
          "type": "address"
        }
      ],
      "name": "isComposeMsgSender",
      "outputs": [
        {
          "internalType": "bool",
          "name": "",
          "type": "bool"
        }
      ],
      "stateMutability": "view",
      "type": "function"
    },
    {
      "inputs": [
        {
          "components": [
            {
              "internalType": "uint32",
              "name": "srcEid",
              "type": "uint32"
            },
            {
              "internalType": "bytes32",
              "name": "sender",
              "type": "bytes32"
            },
            {
              "internalType": "uint64",
              "name": "nonce",
              "type": "uint64"
            }
          ],
          "internalType": "struct Origin",
          "name": "_origin",
          "type": "tuple"
        },
        {
          "internalType": "bytes32",
          "name": "_guid",
          "type": "bytes32"
        },
        {
          "internalType": "bytes",
          "name": "_message",
          "type": "bytes"
        },
        {
          "internalType": "address",
          "name": "_executor",
          "type": "address"
        },
        {
          "internalType": "bytes",
          "name": "_extraData",
          "type": "bytes"
        }
      ],
      "name": "lzReceive",
      "outputs": [],
      "stateMutability": "payable",
      "type": "function"
    },
    {
      "inputs": [
        {
          "internalType": "uint32",
          "name": "",
          "type": "uint32"
        },
        {
          "internalType": "bytes32",
          "name": "",
          "type": "bytes32"
        }
      ],
      "name": "nextNonce",
      "outputs": [
        {
          "internalType": "uint64",
          "name": "nonce",
          "type": "uint64"
        }
      ],
      "stateMutability": "view",
      "type": "function"
    },
    {
      "inputs": [],
      "name": "oAppVersion",
      "outputs": [
        {
          "internalType": "uint64",
          "name": "senderVersion",
          "type": "uint64"
        },
        {
          "internalType": "uint64",
          "name": "receiverVersion",
          "type": "uint64"
        }
      ],
      "stateMutability": "pure",
      "type": "function"
    },
    {
      "inputs": [],
      "name": "owner",
      "outputs": [
        {
          "internalType": "address",
          "name": "",
          "type": "address"
        }
      ],
      "stateMutability": "view",
      "type": "function"
    },
    {
      "inputs": [
        {
          "internalType": "uint32",
          "name": "eid",
          "type": "uint32"
        }
      ],
      "name": "peers",
      "outputs": [
        {
          "internalType": "bytes32",
          "name": "peer",
          "type": "bytes32"
        }
      ],
      "stateMutability": "view",
      "type": "function"
    },
    {
      "inputs": [
        {
          "internalType": "bytes32",
          "name": "",
          "type": "bytes32"
        }
      ],
      "name": "pendingSwaps",
      "outputs": [
        {
          "internalType": "bytes32",
          "name": "recipient",
          "type": "bytes32"
        },
        {
          "internalType": "bytes32",
          "name": "destinationToken",
          "type": "bytes32"
        },
        {
          "internalType": "uint256",
          "name": "amountOutMin",
          "type": "uint256"
        },
        {
          "internalType": "uint256",
          "name": "stableAmount",
          "type": "uint256"
        },
        {
          "internalType": "address",
          "name": "refundRecipient",
          "type": "address"
        },
        {
          "internalType": "uint256",
          "name": "timestamp",
          "type": "uint256"
        },
        {
          "internalType": "bool",
          "name": "executed",
          "type": "bool"
        }
      ],
      "stateMutability": "view",
      "type": "function"
    },
    {
      "inputs": [
        {
          "internalType": "uint32",
          "name": "_dstEid",
          "type": "uint32"
        },
        {
          "internalType": "bytes",
          "name": "_message",
          "type": "bytes"
        },
        {
          "internalType": "bytes",
          "name": "_options",
          "type": "bytes"
        },
        {
          "internalType": "bool",
          "name": "_payInLzToken",
          "type": "bool"
        }
      ],
      "name": "quote",
      "outputs": [
        {
          "components": [
            {
              "internalType": "uint256",
              "name": "nativeFee",
              "type": "uint256"
            },
            {
              "internalType": "uint256",
              "name": "lzTokenFee",
              "type": "uint256"
            }
          ],
          "internalType": "struct MessagingFee",
          "name": "fee",
          "type": "tuple"
        }
      ],
      "stateMutability": "view",
      "type": "function"
    },
    {
      "inputs": [
        {
          "internalType": "uint32",
          "name": "_destinationEid",
          "type": "uint32"
        },
        {
          "internalType": "bytes32",
          "name": "_recipient",
          "type": "bytes32"
        },
        {
          "internalType": "bytes32",
          "name": "_destinationToken",
          "type": "bytes32"
        },
        {
          "internalType": "uint256",
          "name": "_amountOutMin",
          "type": "uint256"
        },
        {
          "internalType": "uint256",
          "name": "_stableAmount",
          "type": "uint256"
        },
        {
          "internalType": "bytes",
          "name": "_options",
          "type": "bytes"
        }
      ],
      "name": "quoteSwapFee",
      "outputs": [
        {
          "components": [
            {
              "internalType": "uint256",
              "name": "nativeFee",
              "type": "uint256"
            },
            {
              "internalType": "uint256",
              "name": "lzTokenFee",
              "type": "uint256"
            }
          ],
          "internalType": "struct MessagingFee",
          "name": "totalFee",
          "type": "tuple"
        }
      ],
      "stateMutability": "view",
      "type": "function"
    },
    {
      "inputs": [],
      "name": "renounceOwnership",
      "outputs": [],
      "stateMutability": "nonpayable",
      "type": "function"
    },
    {
      "inputs": [
        {
          "internalType": "address",
          "name": "_delegate",
          "type": "address"
        }
      ],
      "name": "setDelegate",
      "outputs": [],
      "stateMutability": "nonpayable",
      "type": "function"
    },
    {
      "inputs": [
        {
          "components": [
            {
              "internalType": "uint32",
              "name": "eid",
              "type": "uint32"
            },
            {
              "internalType": "uint16",
              "name": "msgType",
              "type": "uint16"
            },
            {
              "internalType": "bytes",
              "name": "options",
              "type": "bytes"
            }
          ],
          "internalType": "struct EnforcedOptionParam[]",
          "name": "_enforcedOptions",
          "type": "tuple[]"
        }
      ],
      "name": "setEnforcedOptions",
      "outputs": [],
      "stateMutability": "nonpayable",
      "type": "function"
    },
    {
      "inputs": [
        {
          "internalType": "uint32",
          "name": "_eid",
          "type": "uint32"
        },
        {
          "internalType": "bytes32",
          "name": "_peer",
          "type": "bytes32"
        }
      ],
      "name": "setPeer",
      "outputs": [],
      "stateMutability": "nonpayable",
      "type": "function"
    },
    {
      "inputs": [],
      "name": "stablecoin",
      "outputs": [
        {
          "internalType": "address",
          "name": "",
          "type": "address"
        }
      ],
      "stateMutability": "view",
      "type": "function"
    },
    {
      "inputs": [],
      "name": "stablecoinOFT",
      "outputs": [
        {
          "internalType": "contract IOFT",
          "name": "",
          "type": "address"
        }
      ],
      "stateMutability": "view",
      "type": "function"
    },
    {
      "inputs": [
        {
          "internalType": "address",
          "name": "newOwner",
          "type": "address"
        }
      ],
      "name": "transferOwnership",
      "outputs": [],
      "stateMutability": "nonpayable",
      "type": "function"
    },
    {
      "inputs": [
        {
          "internalType": "address payable",
          "name": "_to",
          "type": "address"
        },
        {
          "internalType": "uint256",
          "name": "_amount",
          "type": "uint256"
        }
      ],
      "name": "withdrawNative",
      "outputs": [],
      "stateMutability": "nonpayable",
      "type": "function"
    },
    {
      "inputs": [
        {
          "internalType": "contract IERC20",
          "name": "_token",
          "type": "address"
        },
        {
          "internalType": "address",
          "name": "_to",
          "type": "address"
        },
        {
          "internalType": "uint256",
          "name": "_amount",
          "type": "uint256"
        }
      ],
      "name": "withdrawToken",
      "outputs": [],
      "stateMutability": "nonpayable",
      "type": "function"
    },
    {
      "stateMutability": "payable",
      "type": "receive"
    }
  ],
  "transactionHash": "0x7c2ce89bed25b076b2f6de1d67821bb8e915f712c2fec3d582c79477189cb485",
  "args": [
    "0x6EDCE65403992e310A62460808c4b910D972f10f",
    "0x49f51e3C94B459677c3B1e611DB3E44d4E6b1D55",
    "0x011b561002A1D2522210BA3d687131AB1F6AcF79",
    "0xD7F519EAA9529e4380974D6AF18309Dc892A7c48"
  ],
  "numDeployments": 1,
  "solcInputHash": "fbcf375e4c7718162abf3d9959eb80b1",
  "bytecode": "0x6101003462000240576001600160401b0390601f6200384e38819003918201601f191683019291908484118385101762000245578160809284926040968752833981010312620002405762000054816200025b565b9062000063602082016200025b565b906200007f6060620000778684016200025b565b92016200025b565b926001600160a01b0392831680156200022857600080546001600160a01b031981168317825590928591839083167f8be0079c531659141344cd1fd0a4f28419497f9722a3daafe3b4186f6b6457e08680a3169081608052813b1562000224578291602483928951958693849263ca5eb5e160e01b845260048401525af1968715620002185784959697620001ea575b5050501660a052811660c05260e052516135dd90816200027182396080518181816105c401528181610fd60152818161199801528181611bf5015281816127d401528181612a090152613478015260a0518181816102ab0152818161042c01528181610a1b01528181610aee0152818161109501526116ca015260c051818181610bc601528181610d5901528181610dff0152818161117b0152611317015260e05181818161023501528181610a9701528181610d9c0152818161104c015281816116fe01528181611a3c01528181612ccc01526130240152f35b90918093945011620002045750845281903880806200010f565b634e487b7160e01b81526041600452602490fd5b508551903d90823e3d90fd5b8280fd5b8551631e4fbdf760e01b815260006004820152602490fd5b600080fd5b634e487b7160e01b600052604160045260246000fd5b51906001600160a01b0382168203620002405756fe6080604052600436101561001b575b361561001957600080fd5b005b60003560e01c80630176fac61461020b57806301e336671461020657806304d84108146102015780630758d924146101fc57806307b18bde146101f75780630f57864e146101f257806313137d65146101ed57806317442b70146101e85780633400288b146101e35780635535d461146101de5780635a5ef655146101d95780635e280f11146101d457806368a88e81146101cf578063715018a6146101ca5780637d25a05e146101c55780637d61cf0d146101c057806382413eac146101bb57806382c947b7146101b6578063891e2776146101b15780638da5cb5b146101ac57806392654efa146101a757806396ac3637146101a2578063b98bd0701461019d578063bb0b6a5314610198578063bc70b35414610193578063ca5eb5e11461018e578063e7f882ed14610189578063e9cbd82214610184578063eba007071461017f578063f2fde38b1461017a5763ff7bd03d0361000e57611cfa565b611c6e565b611b1b565b611a26565b611a08565b611967565b611913565b6118d8565b6117d8565b611694565b611678565b61164f565b611239565b611208565b6111aa565b611165565b61113e565b6110e0565b611005565b610fc0565b610978565b61090a565b61069b565b61066b565b610566565b6104ae565b61045b565b610416565b6103fa565b61034d565b3461033757604036600319011261033757610224611d57565b805115610332576001600160a01b037f00000000000000000000000000000000000000000000000000000000000000001660208201526102a7906000906001600160a01b03610289600435821661027a84611d88565b6001600160a01b039091169052565b604051808095819463d06ca61f60e01b835260243560048401611e6f565b03917f0000000000000000000000000000000000000000000000000000000000000000165afa90811561032d57610306916102f59160009161030a575b506102ef8151611ea8565b90611da5565b516040519081529081906020820190565b0390f35b61032791503d806000833e61031f81836107e8565b810190611db9565b386102e4565b611e86565b611d72565b600080fd5b6001600160a01b0381160361033757565b3461033757606036600319011261033757600060206103b96004356103718161033c565b60243561037d8161033c565b61038561248e565b60405163a9059cbb60e01b81526001600160a01b039091166004820152604480356024830152909485938492839190820190565b03926001600160a01b03165af1801561032d576103d257005b6100199060203d6020116103f3575b6103eb81836107e8565b810190611ec9565b503d6103e1565b3461033757600036600319011261033757602060405160018152f35b34610337576000366003190112610337576040517f00000000000000000000000000000000000000000000000000000000000000006001600160a01b03168152602090f35b3461033757604036600319011261033757600080808060043561047d8161033c565b6024359061048961248e565b829082156104a4575b6001600160a01b031690f11561032d57005b6108fc9150610492565b3461033757602036600319011261033757600435600052600360205260e060406000208054906001810154906002810154600382015460018060a01b036004840154169160ff600660058601549501541694604051968752602087015260408601526060850152608084015260a0830152151560c0820152f35b606090600319011261033757600490565b9181601f84011215610337578235916001600160401b038311610337576020838186019501011161033757565b60e03660031901126103375761057b36610528565b6001600160401b036084358181116103375761059b903690600401610539565b916105a760a43561033c565b60c435908111610337576105bf903690600401610539565b5050337f00000000000000000000000000000000000000000000000000000000000000006001600160a01b031603610653576106026105fd84611ede565b6124ba565b92602081013580940361061d57610019935060643590612564565b6106278491611ede565b60405163309afaf360e21b815263ffffffff9190911660048201526024810191909152604490fd5b0390fd5b6040516391ac5e4f60e01b8152336004820152602490fd5b3461033757600036600319011261033757604080516001815260026020820152f35b63ffffffff81160361033757565b34610337576040366003190112610337577f238399d427b947898edb290f5ff0f9109849b1c3ba196a42e35f00c50a54b98b6004356106d98161068d565b602435906106e561248e565b63ffffffff811660005260016020528160406000205561071d604051928392836020909392919363ffffffff60408201951681520152565b0390a1005b6024359061ffff8216820361033757565b359061ffff8216820361033757565b90600182811c92168015610772575b602083101461075c57565b634e487b7160e01b600052602260045260246000fd5b91607f1691610751565b634e487b7160e01b600052604160045260246000fd5b604081019081106001600160401b038211176107ad57604052565b61077c565b606081019081106001600160401b038211176107ad57604052565b60a081019081106001600160401b038211176107ad57604052565b90601f801991011681019081106001600160401b038211176107ad57604052565b9060405191826000825461081c81610742565b9081845260209460019160018116908160001461088c575060011461084d575b50505061084b925003836107e8565b565b600090815285812095935091905b81831061087457505061084b935082010138808061083c565b8554888401850152948501948794509183019161085b565b9250505061084b94925060ff191682840152151560051b82010138808061083c565b60005b8381106108c15750506000910152565b81810151838201526020016108b1565b906020916108ea815180928185528580860191016108ae565b601f01601f1916010190565b9060206109079281815201906108d1565b90565b346103375760403660031901126103375761030661096461095f6004356109308161068d565b63ffffffff61093d610722565b9116600052600260205260406000209061ffff16600052602052604060002090565b610809565b6040519182916020835260208301906108d1565b60e03660031901126103375761098f60043561068d565b61099a60443561033c565b60c4356001600160401b038111610337576109b9903690600401610539565b6040516323b872dd60e01b815233600482015230602482015260843560448201526020818060648101038160006044356001600160a01b03165af1801561032d57610a0c91600091610fa1575b50611ee8565b60405163095ea7b360e01b81527f00000000000000000000000000000000000000000000000000000000000000006001600160a01b0316600482015260843560248201526020818060448101038160006044356001600160a01b03165af1801561032d57610f82575b50610ae96000610a83611d57565b610a9260443561027a83611d98565b610abf7f000000000000000000000000000000000000000000000000000000000000000061027a83611d88565b610ac842611f2c565b6040516338ed173960e01b8152938492839290309060843560048601611f72565b0381837f00000000000000000000000000000000000000000000000000000000000000006001600160a01b03165af1801561032d57610b349160009161030a57506102ef8151611ea8565b51610b40600435612699565b92610b55610b4d83611fac565b6103e8900490565b610b5d611a6b565b63ffffffff6004351681529460208601528260408601526060850152610b84368483611abf565b6080850152610b91611fef565b60a0850152610b9e611fef565b60c085015260408051633b6f743b60e01b815293908480610bc288600483016120bb565b03817f00000000000000000000000000000000000000000000000000000000000000006001600160a01b03165afa93841561032d57600094610f4d575b506040805160243560208201526064359181019190915260a4356060820152608081018490523360a082015291610c509190610c488460c081015b03601f1981018652856107e8565b6004356123c5565b90610c5e8282600435612769565b91610c6c8551845190611f65565b94610d4a610ced610d41610c7f896128a3565b610d33610c8b346128a3565b610ce7610d1d8b610ce7610d03610cac610ca58d516128a3565b93516128a3565b95610ce76040519b8c9a610ce760208d01601a907f4e6f74456e6f7567684e61746976653a2052657175697265642000000000000081520190565b906120d8565b690103bb2b4961033b7ba160b51b8152600a0190565b6d0103bb2b49710213934b233b29d160951b8152600e0190565b6901026b2b9b9b0b3b29d160b51b8152600a0190565b03601f1981018352826107e8565b873410156120ef565b60405163095ea7b360e01b81527f00000000000000000000000000000000000000000000000000000000000000006001600160a01b0316600482015260248101869052966020888060448101038160007f00000000000000000000000000000000000000000000000000000000000000006001600160a01b03165af191821561032d57610dfb9860c093610f2e575b50805190604051809a8194829363c7c7f5b360e01b845230916004850161218b565b03917f00000000000000000000000000000000000000000000000000000000000000006001600160a01b03165af192831561032d57610ed596610e5c94610f00575b505190610e48611a8a565b918252600060208301523392600435612980565b506040805160043563ffffffff16815260243560208201526044356001600160a01b0316918101919091526064356060820152608435608082015260a081019190915260a43560c082015233907fabc44f0535f939ebb721351addb80fec24670284d6ab1957041eb8aac7514b099060e090a234611ebc565b80158015610edf57005b600080809381938290610ef7575b3390f11561032d57005b506108fc610eed565b610f219060c03d60c011610f27575b610f1981836107e8565b810190612168565b50610e3d565b503d610f0f565b610f469060203d6020116103f3576103eb81836107e8565b5038610dd9565b610c50919450610f749060403d604011610f7b575b610f6c81836107e8565b81019061203a565b9390610bff565b503d610f62565b610f9a9060203d6020116103f3576103eb81836107e8565b5038610a75565b610fba915060203d6020116103f3576103eb81836107e8565b38610a06565b34610337576000366003190112610337576040517f00000000000000000000000000000000000000000000000000000000000000006001600160a01b03168152602090f35b34610337576040366003190112610337576004356110228161033c565b61102a611d57565b90815115610332576001600160a01b03166020820152611091906000906110747f000000000000000000000000000000000000000000000000000000000000000061027a83611d88565b6040518093819263d06ca61f60e01b835260243560048401611e6f565b03817f00000000000000000000000000000000000000000000000000000000000000006001600160a01b03165afa90811561032d57610306916102f59160009161030a57506102ef8151611ea8565b346103375760008060031936011261113b576110fa61248e565b80546001600160a01b03198116825581906001600160a01b03167f8be0079c531659141344cd1fd0a4f28419497f9722a3daafe3b4186f6b6457e08280a380f35b80fd5b346103375760403660031901126103375761115a60043561068d565b602060405160008152f35b34610337576000366003190112610337576040517f00000000000000000000000000000000000000000000000000000000000000006001600160a01b03168152602090f35b346103375760a0366003190112610337576111c436610528565b506064356001600160401b038111610337576111e4903690600401610539565b505060206084356111f48161033c565b6040516001600160a01b0390911630148152f35b346103375760203660031901126103375760206004356112278161033c565b6040516001600160a01b039091168152f35b346103375760c03660031901126103375760048035906112588261068d565b60843560a4356001600160401b038111610337576112799036908401610539565b9390916112846121c8565b9061128e83612699565b9261129b610b4d83611fac565b6112a3611a6b565b63ffffffff8316815297602095868a015261131360408a819b9487838097015260608201526112d336858c611abf565b60808201526112e0611fef565b60a08201526112ed611fef565b60c08201526112fa6121c8565b50815180938192633b6f743b60e01b83528d83016120bb565b03817f00000000000000000000000000000000000000000000000000000000000000006001600160a01b03165afa60009181611630575b506114795782898861135a6121e1565b6308c379a014611431575b61136d61226d565b82815110156113cd57835162461bcd60e51b815260208185018181526023918101919091527f4f46542071756f7465206661696c6564207769746820756e6b6e6f776e2065726040820152623937b960e91b606082015281906080010390fd5b9261141d61064f92610c3a6113ec6113e7610ce79861229d565b612a7d565b845197889384016020907f4f46542071756f7465206661696c656420776974682073656c6563746f723a2081520190565b5162461bcd60e51b815292839283016108f6565b6114396121ff565b806114445750611365565b9261141d61064f92610c3a610ce7968451978893840160129071027a32a1038bab7ba32903330b4b632b21d160751b81520190565b825160243588820190815260443560208201526064356040820152606081019690965260006080870152909490916114ca91839060a00103986114c4601f199a8b81018652856107e8565b856123c5565b926114d36121c8565b506114f08351948593849363eba0070760e01b85528c85016122ce565b0381305afa60009181611611575b506115b45750505061150e6121e1565b6308c379a01461155b575b835162461bcd60e51b815260208185018181526014918101919091527313595cdcd859d9481c5d5bdd194819985a5b195960621b604082015281906060010390fd5b6115636121ff565b8061156e5750611519565b61064f9285926115a861141d93610ce79851988993840160169075026b2b9b9b0b3b29038bab7ba32903330b4b632b21d160551b81520190565b039081018652856107e8565b926115db8792828061030697926115ce8151855190611f65565b8852015191015190611f65565b908301526115f36115ec8351611fc3565b6064900490565b82525191829182815181526020918201519181019190915260400190565b611629919250883d8a11610f7b57610f6c81836107e8565b90386114fe565b611648919250843d8611610f7b57610f6c81836107e8565b903861134a565b34610337576000366003190112610337576000546040516001600160a01b039091168152602090f35b3461033757602036600319011261033757610019600435612c59565b34610337576080366003190112610337576004356116b3303314612304565b60405163095ea7b360e01b81526001600160a01b037f0000000000000000000000000000000000000000000000000000000000000000811660048301819052602483018490529092907f00000000000000000000000000000000000000000000000000000000000000006020846044816000858a165af193841561032d576000946117b9575b5061174f611745611d57565b9161027a83611d98565b611760856044351661027a83611d88565b8361176a42611f2c565b95611794604051978896879586946338ed173960e01b86526064351691602435906004870161233c565b03925af190811561032d57610306916102f59160009161030a57506102ef8151611ea8565b6117d19060203d6020116103f3576103eb81836107e8565b5038611739565b3461033757602080600319360112610337576004356001600160401b038082116103375736602383011215610337578160040135918183116103375760249060248460051b820101923684116103375761183061248e565b61183985611d40565b9460409061184a60405197886107e8565b86526024830192602087015b8685106118665761001988613341565b8435848111610337578201606060231982360301126103375783519161188b836107b2565b878201356118988161068d565b83526118a660448301610733565b8b840152606482013592868411610337576118c98c94938a869536920101611af6565b86820152815201940193611856565b346103375760203660031901126103375763ffffffff6004356118fa8161068d565b1660005260016020526020604060002054604051908152f35b34610337576060366003190112610337576004356119308161068d565b611938610722565b604435906001600160401b038211610337576103069261195f610964933690600401610539565b929091612460565b34610337576000602036600319011261113b576004356119868161033c565b61198e61248e565b6001600160a01b037f0000000000000000000000000000000000000000000000000000000000000000811691839190833b15611a045760249083604051958694859363ca5eb5e160e01b85521660048401525af1801561032d576119f0575080f35b6001600160401b0381116107ad5760405280f35b8280fd5b346103375760003660031901126103375760206040516207a1208152f35b34610337576000366003190112610337576040517f00000000000000000000000000000000000000000000000000000000000000006001600160a01b03168152602090f35b6040519060e082018281106001600160401b038211176107ad57604052565b6040519061084b82610792565b6040519061084b826107cd565b6001600160401b0381116107ad57601f01601f191660200190565b929192611acb82611aa4565b91611ad960405193846107e8565b829481845281830111610337578281602093846000960137010152565b9080601f830112156103375781602061090793359101611abf565b8015150361033757565b3461033757608036600319011261033757600435611b388161068d565b6001600160401b039060243582811161033757611b59903690600401611af6565b9060443592831161033757611b75611bf1933690600401611af6565b90611bd6606435611b8581611b11565b611b8d6121c8565b50611b966121c8565b50611ba0836124ba565b936040958695611bbf875196611bb5886107cd565b63ffffffff168752565b602086015285850152606084015215156080830152565b815180948192631bb8518b60e31b83523090600484016126fb565b03817f00000000000000000000000000000000000000000000000000000000000000006001600160a01b03165afa90811561032d5761030692600092611c4f575b505191829182815181526020918201519181019190915260400190565b81611c679293503d8411610f7b57610f6c81836107e8565b9038611c32565b3461033757602036600319011261033757600435611c8b8161033c565b611c9361248e565b6001600160a01b039081168015611ce157600080546001600160a01b03198116831782559092167f8be0079c531659141344cd1fd0a4f28419497f9722a3daafe3b4186f6b6457e08380a380f35b604051631e4fbdf760e01b815260006004820152602490fd5b34610337576060366003190112610337576020611d1636610528565b63ffffffff8135611d268161068d565b166000526001825260406000205482604051920135148152f35b6001600160401b0381116107ad5760051b60200190565b60405190611d64826107b2565b600282526040366020840137565b634e487b7160e01b600052603260045260246000fd5b8051600110156103325760400190565b8051156103325760200190565b80518210156103325760209160051b010190565b6020908181840312610337578051906001600160401b03821161033757019180601f84011215610337578251611dee81611d40565b93611dfc60405195866107e8565b818552838086019260051b820101928311610337578301905b828210611e23575050505090565b81518152908301908301611e15565b90815180825260208080930193019160005b828110611e52575050505090565b83516001600160a01b031685529381019392810192600101611e44565b604090610907939281528160208201520190611e32565b6040513d6000823e3d90fd5b634e487b7160e01b600052601160045260246000fd5b600019810191908211611eb757565b611e92565b91908203918211611eb757565b90816020910312610337575161090781611b11565b356109078161068d565b15611eef57565b60405162461bcd60e51b8152602060048201526015602482015274151bdad95b881d1c985b9cd9995c8819985a5b1959605a1b6044820152606490fd5b906104b08201809211611eb757565b6030019081603011611eb757565b6002019081600211611eb757565b6003019081600311611eb757565b91908201809211611eb757565b90608092611f98919695949683526000602084015260a0604084015260a0830190611e32565b6001600160a01b0390951660608201520152565b906103b691828102928184041490151715611eb757565b90606982029180830460691490151715611eb757565b908160011b9180830460021490151715611eb757565b60405190602082018281106001600160401b038211176107ad5760405260008252565b91908260409103126103375760405161202a81610792565b6020808294805184520151910152565b906040828203126103375761090791612012565b6109079163ffffffff825116815260208201516020820152604082015160408201526060820151606082015260c06120aa612098608085015160e0608086015260e08501906108d1565b60a085015184820360a08601526108d1565b9201519060c08184039101526108d1565b919060206120d360009260408652604086019061204e565b930152565b906120eb602092828151948592016108ae565b0190565b156120f75750565b60405162461bcd60e51b81526020600482015290819061064f9060248301906108d1565b91906080838203126103375760405190612134826107b2565b8193805183526020810151916001600160401b0383168303610337576040612163928194602087015201612012565b910152565b919060c08382031261033757806080612184610907938661211b565b9401612012565b9193926121ba6121a560609360808652608086019061204e565b95602085019060208091805184520151910152565b6001600160a01b0316910152565b604051906121d582610792565b60006020838281520152565b60009060033d116121ee57565b905060046000803e60005160e01c90565b600060443d1061090757604051600319913d83016004833e81516001600160401b03918282113d60248401111761225c57818401948551938411612264573d8501016020848701011161225c5750610907929101602001906107e8565b949350505050565b50949350505050565b3d15612298573d9061227e82611aa4565b9161228c60405193846107e8565b82523d6000602084013e565b606090565b906020825192015163ffffffff60e01b9081811693600481106122bf57505050565b60040360031b82901b16169150565b93926120d3906122f660009463ffffffff6060951688526080602089015260808801906108d1565b9086820360408801526108d1565b1561230b57565b60405162461bcd60e51b815260206004820152600960248201526827b7363c9039b2b63360b91b6044820152606490fd5b9192608093611f9892979695978452602084015260a0604084015260a0830190611e32565b6020908361084b93959495604051968361238489955180928880890191016108ae565b84019185830137016000838201520380855201836107e8565b90918060409360208452816020850152848401376000828201840152601f01601f1916010190565b63ffffffff1660005260026020526123ee61095f60406000206001600052602052604060002090565b80511561245457821561244e576002831015612421575061064f604051928392639a6d49cd60e01b84526004840161239d565b61243461242f368585611abf565b613407565b826002116103375761090792600119019160020190612361565b91505090565b50610907913691611abf565b6123ee9163ffffffff61095f9216600052600260205260406000209061ffff16600052602052604060002090565b6000546001600160a01b031633036124a257565b60405163118cdaa760e01b8152336004820152602490fd5b63ffffffff168060005260016020526040600020549081156124da575090565b6024906040519063f6ff4fb760e01b82526004820152fd5b600660c061084b93805184556020810151600185015560408101516002850155606081015160038501556004840160018060a01b036080830151166bffffffffffffffffffffffff60a01b82541617905560a081015160058501550151151591019060ff801983541691151516179055565b928260a091939293810103126103375761084b92612668927f7eab43c7aeb9b7724637b21b3b01973418e99cb2325556e236b9c61ce4c936a983612693943561268b60208301359260408101359060806060820135910135966125c68861033c565b846126076125d38b611ede565b60405160e09190911b6001600160e01b03191660208201908152602482019490945260448101929092528160648101610d33565b519020998a97612642612618611a6b565b8781526020810189905260408101869052606081018590526001600160a01b039092166080830152565b4260a0820152600060c0820152612663896000526003602052604060002090565b6124f2565b604051948594859094939260609260808301968352602083015260408201520152565b0390a2611ede565b90612fb9565b63ffffffff16600052600160205260406000205480156126b65790565b60405162461bcd60e51b815260206004820152601f60248201527f4e6f20706565722073657420666f722064657374696e6174696f6e20454944006044820152606490fd5b906020909392936040835263ffffffff8151166040840152818101516060840152608061274f612739604084015160a08488015260e08701906108d1565b6060840151868203603f190160a08801526108d1565b910151151560c08401526001600160a01b03909416910152565b916127d091926127776121c8565b50612781816124ba565b9160409485936127a0855194612796866107cd565b63ffffffff168552565b602084015283830152606082015260006080820152815180938192631bb8518b60e31b83523090600484016126fb565b03817f00000000000000000000000000000000000000000000000000000000000000006001600160a01b03165afa91821561032d5760009261281157505090565b6109079250803d10610f7b57610f6c81836107e8565b6000198114611eb75760010190565b6040519061284382610792565b600a825260203681840137565b9061285a82611aa4565b61286760405191826107e8565b8281528092612878601f1991611aa4565b0190602036910137565b8051600110156103325760210190565b908151811015610332570160200190565b801561292b576000818181805b61291357506128be81612850565b935b6128ca5750505090565b6128d390611ea8565b90600a906128fe6128ee6128e8848406611f3b565b60ff1690565b60f81b6001600160f81b03191690565b841a61290a8487612892565b530490816128c0565b9150612920600a91612827565b9104808492916128b0565b5060405161293881610792565b60018152600360fc1b602082015290565b60405190612956826107b2565b81600081526000602082015260406121636121c8565b90608082820312610337576109079161211b565b6129e960809492612a059694612994612949565b5060206129a1865161343f565b950191825180612a6e575b506129b6856124ba565b92511515926129d26129c6611a97565b63ffffffff9097168752565b602086015260408501526060840152151585830152565b6040518095819482936302637a4560e41b8452600484016126fb565b03917f00000000000000000000000000000000000000000000000000000000000000006001600160a01b03165af190811561032d57600091612a45575090565b610907915060803d608011612a67575b612a5f81836107e8565b81019061296c565b503d612a55565b612a7790613461565b386129ac565b604051612a8981610792565b601081526f181899199a1a9b1b9c1cb0b131b232b360811b6020820152612aae612836565b906030612aba83611d98565b536078612ac683612882565b5360009360005b600480821015612b535790612b2e612afa612afa600194612b088a861a928392600f9485911c168a612892565b516001600160f81b03191690565b612b26612b1c612b1788611fd9565b611f49565b918d1a918b612892565b531686612892565b612b4c612b42612b3d84611fd9565b611f57565b91891a9187612892565b5301612acd565b5050935050905090565b15612b6457565b60405162461bcd60e51b815260206004820152601560248201527414ddd85c08185b1c9958591e48195e1958dd5d1959605a1b6044820152606490fd5b15612ba857565b60405162461bcd60e51b815260206004820152600c60248201526b0496e76616c696420737761760a41b6044820152606490fd5b90816020910312610337575190565b909160c0928252602082015260606040820152602560608201527f496e73756666696369656e7420737461626c65636f696e73202d2077696c6c20608082015264726574727960d81b60a08201520190565b61090793926060928252602082015281604082015201906108d1565b612c6d816000526003602052604060002090565b906006820191612c8d612c88612c84855460ff1690565b1590565b612b5d565b6003810191612c9e83541515612ba1565b835460ff19166001178455604080516370a0823160e01b815230600482015260209591936001600160a01b037f000000000000000000000000000000000000000000000000000000000000000081169390928881602481885afa90811561032d57600091612f9c575b508754809110612f6357505085546002820154600183018054845489516396ac363760e01b815260048101959095526024850193909352604484015260648301919091529088816084816000305af160009181612f34575b50612ee55750506001612d706121e1565b6308c379a014612e4d575b612d89575b50505050505050565b612e1695879560009254915495600080516020613588833981519152825180612de28a8783909160a0928252602082015260606040820152600d60608201526c2ab735b737bbb71032b93937b960991b60808201520190565b0390a25163a9059cbb60e01b815292166001600160a01b031660048301526024820193909352938492839182906044820190565b03925af1801561032d57612e2f575b8080808080612d80565b81612e4592903d106103f3576103eb81836107e8565b503880612e25565b612e556121ff565b80612e61575b50612d7b565b90506000908884845488600080516020613588833981519152612e8d8d54968d51918291898784612c3d565b0390a2895163a9059cbb60e01b815291166001600160a01b031660048201526024810192909252816044816000895af1801561032d5715612e5b57612ede90893d8b116103f3576103eb81836107e8565b5038612e5b565b915490549654955196875260208701959095526040860152509193506000927f355917a3a205f2ad96dd4f7ff8526081d716b8a65bac5fbbf17ce432a27e32489250905080606081015b0390a3565b612f559192508a3d8c11612f5c575b612f4d81836107e8565b810190612bdc565b9038612d5f565b503d612f43565b9350955061084b965060008051602061358883398151915293949150612f8f9054915192839283612beb565b0390a2805460ff19169055565b612fb39150893d8b11612f5c57612f4d81836107e8565b38612d07565b90612fce826000526003602052604060002090565b906006820192612fe5612c88612c84865460ff1690565b6003830192612ff684541515612ba1565b845460ff19166001178555604080516370a0823160e01b815230600482015260209691946001600160a01b037f0000000000000000000000000000000000000000000000000000000000000000811694909390928981602481895afa90811561032d5760009161316e575b5088548091106131415750508654600283015460018401805485548a516396ac363760e01b81526004810195909552602485019390935260448401526064830191909152919089816084816000305af160009181613122575b506130cc575050506001612d706121e1565b92549154975496519788526020880196909652604087019190915295505063ffffffff909216927f355917a3a205f2ad96dd4f7ff8526081d716b8a65bac5fbbf17ce432a27e3248925090508060608101612f2f565b61313a9192508b3d8d11612f5c57612f4d81836107e8565b90386130ba565b945096505061084b965060008051602061358883398151915293949150612f8f9054915192839283612beb565b61318591508a3d8c11612f5c57612f4d81836107e8565b38613061565b90601f811161319957505050565b6000916000526020600020906020601f850160051c830194106131d7575b601f0160051c01915b8281106131cc57505050565b8181556001016131c0565b90925082906131b7565b91909182516001600160401b0381116107ad57613208816132028454610742565b8461318b565b602080601f831160011461324b5750819061323c939495600092613240575b50508160011b916000199060031b1c19161790565b9055565b015190503880613227565b90601f1983169561326185600052602060002090565b926000905b88821061329e57505083600195969710613285575b505050811b019055565b015160001960f88460031b161c1916905538808061327b565b80600185968294968601518155019501930190613266565b6020808201908083528351809252604092604081018260408560051b8401019601946000925b8584106132ed575050505050505090565b909192939495968580613330600193603f198682030188528b518760609163ffffffff815116845261ffff868201511686850152015191818982015201906108d1565b9901940194019295949391906132dc565b9060009160005b81518110156133cd576001906133c7604061336f816133678588611da5565b510151613407565b6133c28161337d8588611da5565b5101519163ffffffff6133908689611da5565b515116895261ffff602091600283528a20916133ac878a611da5565b5101511661ffff16600052602052604060002090565b6131e1565b01613348565b507fbe4864a8e820971c0247f5992e2da559595f7bf076a21cb5928d443d2a13b67491925061340290604051918291826132b6565b0390a1565b600361ffff6002830151160361341a5750565b604051639a6d49cd60e01b81526020600482015290819061064f9060248301906108d1565b8034036134495790565b6040516304fb820960e51b8152346004820152602490fd5b60405163393f876560e21b81526001600160a01b037f00000000000000000000000000000000000000000000000000000000000000008116926020929091908381600481885afa90811561032d57600091613551575b501692831561353f576040516323b872dd60e01b8482019081523360248301526001600160a01b03909216604482015260648101929092526000916134ff8160848101610d33565b519082855af115611e86576000513d6135365750803b155b61351e5750565b60249060405190635274afe760e01b82526004820152fd5b60011415613517565b6040516329b99a9560e11b8152600490fd5b90508381813d8311613580575b61356881836107e8565b81010312610337575161357a8161033c565b386134b7565b503d61355e56fe2ad87898e88d8c7dd85c5e4d423c60a47daae36492e01ae38da92251915e7885a264697066735822122012b7e967686f85742acf29f22cb5360cd780eee31ba7144b4c647a114429e56f64736f6c63430008160033",
  "devdoc": {
    "details": "This contract handles destination gas properly by sending gas along with LayerZero messages",
    "errors": {
      "OwnableInvalidOwner(address)": [
        {
          "details": "The owner is not a valid owner account. (eg. `address(0)`)"
        }
      ],
      "OwnableUnauthorizedAccount(address)": [
        {
          "details": "The caller account is not authorized to perform an operation."
        }
      ],
      "SafeERC20FailedOperation(address)": [
        {
          "details": "An operation with an ERC-20 token failed."
        }
      ]
    },
    "kind": "dev",
    "methods": {
      "allowInitializePath((uint32,bytes32,uint64))": {
        "details": "This indicates to the endpoint that the OApp has enabled msgs for this particular path to be received.This defaults to assuming if a peer has been set, its initialized. Can be overridden by the OApp if there is other logic to determine this.",
        "params": {
          "origin": "The origin information containing the source endpoint and sender address."
        },
        "returns": {
          "_0": "Whether the path has been initialized."
        }
      },
      "combineOptions(uint32,uint16,bytes)": {
        "details": "If there is an enforced lzReceive option: - {gasLimit: 200k, msg.value: 1 ether} AND a caller supplies a lzReceive option: {gasLimit: 100k, msg.value: 0.5 ether} - The resulting options will be {gasLimit: 300k, msg.value: 1.5 ether} when the message is executed on the remote lzReceive() function.This presence of duplicated options is handled off-chain in the verifier/executor.",
        "params": {
          "_eid": "The endpoint ID.",
          "_extraOptions": "Additional options passed by the caller.",
          "_msgType": "The OAPP message type."
        },
        "returns": {
          "_0": "options The combination of caller specified options AND enforced options."
        }
      },
      "constructor": {
        "params": {
          "_dexRouter": "The address of the PayfundsRouter02",
          "_lzEndpoint": "The LayerZero endpoint address",
          "_owner": "The owner of the contract",
          "_stablecoinOFT": "The OFT contract for the stablecoin"
        }
      },
      "crossChainSwap(uint32,bytes32,address,bytes32,uint256,uint256,bytes)": {
        "params": {
          "_amountIn": "The amount of source tokens to swap",
          "_amountOutMin": "The minimum amount of destination tokens to receive",
          "_destinationEid": "The LayerZero endpoint ID for the destination chain",
          "_destinationToken": "The token to receive on the destination chain (as bytes32)",
          "_options": "Additional options for the LayerZero message",
          "_recipient": "The recipient address on the destination chain (as bytes32)",
          "_sourceToken": "The token to swap on the source chain"
        }
      },
      "executeSwap(bytes32)": {
        "params": {
          "swapId": "The unique swap identifier"
        }
      },
      "isComposeMsgSender((uint32,bytes32,uint64),bytes,address)": {
        "details": "_origin The origin information containing the source endpoint and sender address.  - srcEid: The source chain endpoint ID.  - sender: The sender address on the src chain.  - nonce: The nonce of the message._message The lzReceive payload.Applications can optionally choose to implement separate composeMsg senders that are NOT the bridging layer.The default sender IS the OAppReceiver implementer.",
        "params": {
          "_sender": "The sender address."
        },
        "returns": {
          "_0": "isSender Is a valid sender."
        }
      },
      "lzReceive((uint32,bytes32,uint64),bytes32,bytes,address,bytes)": {
        "details": "Entry point for receiving messages or packets from the endpoint.Entry point for receiving msg/packet from the LayerZero endpoint.",
        "params": {
          "_executor": "The address of the executor for the received message.",
          "_extraData": "Additional arbitrary data provided by the corresponding executor.",
          "_guid": "The unique identifier for the received LayerZero message.",
          "_message": "The payload of the received message.",
          "_origin": "The origin information containing the source endpoint and sender address.  - srcEid: The source chain endpoint ID.  - sender: The sender address on the src chain.  - nonce: The nonce of the message."
        }
      },
      "nextNonce(uint32,bytes32)": {
        "details": "_srcEid The source endpoint ID._sender The sender address.The path nonce starts from 1. If 0 is returned it means that there is NO nonce ordered enforcement.Is required by the off-chain executor to determine the OApp expects msg execution is ordered.This is also enforced by the OApp.By default this is NOT enabled. ie. nextNonce is hardcoded to return 0.",
        "returns": {
          "nonce": "The next nonce."
        }
      },
      "oAppVersion()": {
        "returns": {
          "receiverVersion": "The version of the OAppReceiver.sol implementation.",
          "senderVersion": "The version of the OAppSender.sol implementation."
        }
      },
      "owner()": {
        "details": "Returns the address of the current owner."
      },
      "quote(uint32,bytes,bytes,bool)": {
        "params": {
          "_dstEid": "Destination endpoint ID",
          "_message": "Message payload",
          "_options": "LayerZero options",
          "_payInLzToken": "Whether to pay in LZ token"
        },
        "returns": {
          "fee": "The messaging fee"
        }
      },
      "quoteSwapFee(uint32,bytes32,bytes32,uint256,uint256,bytes)": {
        "params": {
          "_amountOutMin": "Minimum output amount",
          "_destinationEid": "The destination endpoint ID",
          "_destinationToken": "The destination token",
          "_options": "LayerZero options",
          "_recipient": "The recipient address",
          "_stableAmount": "Amount of stablecoins to bridge"
        },
        "returns": {
          "totalFee": "The total fee required for BOTH operations"
        }
      },
      "renounceOwnership()": {
        "details": "Leaves the contract without owner. It will not be possible to call `onlyOwner` functions. Can only be called by the current owner. NOTE: Renouncing ownership will leave the contract without an owner, thereby disabling any functionality that is only available to the owner."
      },
      "setDelegate(address)": {
        "details": "Only the owner/admin of the OApp can call this function.Provides the ability for a delegate to set configs, on behalf of the OApp, directly on the Endpoint contract.",
        "params": {
          "_delegate": "The address of the delegate to be set."
        }
      },
      "setEnforcedOptions((uint32,uint16,bytes)[])": {
        "details": "Sets the enforced options for specific endpoint and message type combinations.Only the owner/admin of the OApp can call this function.Provides a way for the OApp to enforce things like paying for PreCrime, AND/OR minimum dst lzReceive gas amounts etc.These enforced options can vary as the potential options/execution on the remote may differ as per the msgType. eg. Amount of lzReceive() gas necessary to deliver a lzCompose() message adds overhead you dont want to pay if you are only making a standard LayerZero message ie. lzReceive() WITHOUT sendCompose().",
        "params": {
          "_enforcedOptions": "An array of EnforcedOptionParam structures specifying enforced options."
        }
      },
      "setPeer(uint32,bytes32)": {
        "details": "Only the owner/admin of the OApp can call this function.Indicates that the peer is trusted to send LayerZero messages to this OApp.Set this to bytes32(0) to remove the peer address.Peer is a bytes32 to accommodate non-evm chains.",
        "params": {
          "_eid": "The endpoint ID.",
          "_peer": "The address of the peer to be associated with the corresponding endpoint."
        }
      },
      "transferOwnership(address)": {
        "details": "Transfers ownership of the contract to a new account (`newOwner`). Can only be called by the current owner."
      }
    },
    "title": "CrossChainRouter",
    "version": 1
  },
  "userdoc": {
    "events": {
      "CrossChainSwapInitiated(address,uint32,bytes32,address,bytes32,uint256,uint256,uint256)": {
        "notice": "Events"
      }
    },
    "kind": "user",
    "methods": {
      "DESTINATION_GAS_LIMIT()": {
        "notice": "Gas amount required for destination swap execution"
      },
      "SWAP()": {
        "notice": "Message type for cross-chain swaps"
      },
      "_performSwap(uint256,uint256,bytes32,bytes32)": {
        "notice": "Perform the actual DEX swap (external for try/catch)"
      },
      "allowInitializePath((uint32,bytes32,uint64))": {
        "notice": "Checks if the path initialization is allowed based on the provided origin."
      },
      "combineOptions(uint32,uint16,bytes)": {
        "notice": "Combines options for a given endpoint and message type."
      },
      "constructor": {
        "notice": "Initializes the CrossChainRouter"
      },
      "crossChainSwap(uint32,bytes32,address,bytes32,uint256,uint256,bytes)": {
        "notice": "Initiates a complete cross-chain swap - CORRECTED VERSION"
      },
      "dexRouter()": {
        "notice": "The local DEX router used for token swaps"
      },
      "endpoint()": {
        "notice": "Retrieves the LayerZero endpoint associated with the OApp."
      },
      "estimateDestinationOutput(bytes32,uint256)": {
        "notice": "Estimates the destination token output for a given stablecoin amount"
      },
      "estimateSwapOutput(address,uint256)": {
        "notice": "Estimates the output amount for a cross-chain swap"
      },
      "executeSwap(bytes32)": {
        "notice": "Manually execute a pending swap (in case automatic execution failed)"
      },
      "isComposeMsgSender((uint32,bytes32,uint64),bytes,address)": {
        "notice": "Indicates whether an address is an approved composeMsg sender to the Endpoint."
      },
      "nextNonce(uint32,bytes32)": {
        "notice": "Retrieves the next nonce for a given source endpoint and sender address."
      },
      "oAppVersion()": {
        "notice": "Retrieves the OApp version information."
      },
      "peers(uint32)": {
        "notice": "Retrieves the peer (OApp) associated with a corresponding endpoint."
      },
      "pendingSwaps(bytes32)": {
        "notice": "Pending swaps waiting for stablecoin arrival"
      },
      "quote(uint32,bytes,bytes,bool)": {
        "notice": "Public wrapper for the internal _quote function for external access"
      },
      "quoteSwapFee(uint32,bytes32,bytes32,uint256,uint256,bytes)": {
        "notice": "Quote total fees for cross-chain swap (OFT bridge + messaging with gas)"
      },
      "setDelegate(address)": {
        "notice": "Sets the delegate address for the OApp."
      },
      "setPeer(uint32,bytes32)": {
        "notice": "Sets the peer address (OApp instance) for a corresponding endpoint."
      },
      "stablecoin()": {
        "notice": "The stablecoin address used as an intermediary for cross-chain swaps"
      },
      "stablecoinOFT()": {
        "notice": "The stablecoin OFT contract used for bridging"
      }
    },
    "notice": "A router that enables complete cross-chain token swaps using LayerZero and PayfundsRouter",
    "version": 1
  },
  "storageLayout": {
    "storage": [
      {
        "astId": 3861,
        "contract": "contracts/CrossChainRouter.sol:CrossChainRouter",
        "label": "_owner",
        "offset": 0,
        "slot": "0",
        "type": "t_address"
      },
      {
        "astId": 1390,
        "contract": "contracts/CrossChainRouter.sol:CrossChainRouter",
        "label": "peers",
        "offset": 0,
        "slot": "1",
        "type": "t_mapping(t_uint32,t_bytes32)"
      },
      {
        "astId": 2006,
        "contract": "contracts/CrossChainRouter.sol:CrossChainRouter",
        "label": "enforcedOptions",
        "offset": 0,
        "slot": "2",
        "type": "t_mapping(t_uint32,t_mapping(t_uint16,t_bytes_storage))"
      },
      {
        "astId": 5504,
        "contract": "contracts/CrossChainRouter.sol:CrossChainRouter",
        "label": "pendingSwaps",
        "offset": 0,
        "slot": "3",
        "type": "t_mapping(t_bytes32,t_struct(PendingSwap)5519_storage)"
      }
    ],
    "types": {
      "t_address": {
        "encoding": "inplace",
        "label": "address",
        "numberOfBytes": "20"
      },
      "t_bool": {
        "encoding": "inplace",
        "label": "bool",
        "numberOfBytes": "1"
      },
      "t_bytes32": {
        "encoding": "inplace",
        "label": "bytes32",
        "numberOfBytes": "32"
      },
      "t_bytes_storage": {
        "encoding": "bytes",
        "label": "bytes",
        "numberOfBytes": "32"
      },
      "t_mapping(t_bytes32,t_struct(PendingSwap)5519_storage)": {
        "encoding": "mapping",
        "key": "t_bytes32",
        "label": "mapping(bytes32 => struct CrossChainRouter.PendingSwap)",
        "numberOfBytes": "32",
        "value": "t_struct(PendingSwap)5519_storage"
      },
      "t_mapping(t_uint16,t_bytes_storage)": {
        "encoding": "mapping",
        "key": "t_uint16",
        "label": "mapping(uint16 => bytes)",
        "numberOfBytes": "32",
        "value": "t_bytes_storage"
      },
      "t_mapping(t_uint32,t_bytes32)": {
        "encoding": "mapping",
        "key": "t_uint32",
        "label": "mapping(uint32 => bytes32)",
        "numberOfBytes": "32",
        "value": "t_bytes32"
      },
      "t_mapping(t_uint32,t_mapping(t_uint16,t_bytes_storage))": {
        "encoding": "mapping",
        "key": "t_uint32",
        "label": "mapping(uint32 => mapping(uint16 => bytes))",
        "numberOfBytes": "32",
        "value": "t_mapping(t_uint16,t_bytes_storage)"
      },
      "t_struct(PendingSwap)5519_storage": {
        "encoding": "inplace",
        "label": "struct CrossChainRouter.PendingSwap",
        "members": [
          {
            "astId": 5506,
            "contract": "contracts/CrossChainRouter.sol:CrossChainRouter",
            "label": "recipient",
            "offset": 0,
            "slot": "0",
            "type": "t_bytes32"
          },
          {
            "astId": 5508,
            "contract": "contracts/CrossChainRouter.sol:CrossChainRouter",
            "label": "destinationToken",
            "offset": 0,
            "slot": "1",
            "type": "t_bytes32"
          },
          {
            "astId": 5510,
            "contract": "contracts/CrossChainRouter.sol:CrossChainRouter",
            "label": "amountOutMin",
            "offset": 0,
            "slot": "2",
            "type": "t_uint256"
          },
          {
            "astId": 5512,
            "contract": "contracts/CrossChainRouter.sol:CrossChainRouter",
            "label": "stableAmount",
            "offset": 0,
            "slot": "3",
            "type": "t_uint256"
          },
          {
            "astId": 5514,
            "contract": "contracts/CrossChainRouter.sol:CrossChainRouter",
            "label": "refundRecipient",
            "offset": 0,
            "slot": "4",
            "type": "t_address"
          },
          {
            "astId": 5516,
            "contract": "contracts/CrossChainRouter.sol:CrossChainRouter",
            "label": "timestamp",
            "offset": 0,
            "slot": "5",
            "type": "t_uint256"
          },
          {
            "astId": 5518,
            "contract": "contracts/CrossChainRouter.sol:CrossChainRouter",
            "label": "executed",
            "offset": 0,
            "slot": "6",
            "type": "t_bool"
          }
        ],
        "numberOfBytes": "224"
      },
      "t_uint16": {
        "encoding": "inplace",
        "label": "uint16",
        "numberOfBytes": "2"
      },
      "t_uint256": {
        "encoding": "inplace",
        "label": "uint256",
        "numberOfBytes": "32"
      },
      "t_uint32": {
        "encoding": "inplace",
        "label": "uint32",
        "numberOfBytes": "4"
      }
    }
  }
}