{
  "address": "0xbA4f94927E467cE3Feca8eDc6A5196B4C93cf825",
  "abi": [
    {
      "inputs": [
        {
          "internalType": "address",
          "name": "_lzEndpoint",
          "type": "address"
        },
        {
          "internalType": "address",
          "name": "_owner",
          "type": "address"
        },
        {
          "internalType": "address",
          "name": "_dexRouter",
          "type": "address"
        },
        {
          "internalType": "address",
          "name": "_stablecoinOFT",
          "type": "address"
        }
      ],
      "stateMutability": "nonpayable",
      "type": "constructor"
    },
    {
      "inputs": [],
      "name": "InvalidDelegate",
      "type": "error"
    },
    {
      "inputs": [],
      "name": "InvalidEndpointCall",
      "type": "error"
    },
    {
      "inputs": [
        {
          "internalType": "bytes",
          "name": "options",
          "type": "bytes"
        }
      ],
      "name": "InvalidOptions",
      "type": "error"
    },
    {
      "inputs": [],
      "name": "LzTokenUnavailable",
      "type": "error"
    },
    {
      "inputs": [
        {
          "internalType": "uint32",
          "name": "eid",
          "type": "uint32"
        }
      ],
      "name": "NoPeer",
      "type": "error"
    },
    {
      "inputs": [
        {
          "internalType": "uint256",
          "name": "msgValue",
          "type": "uint256"
        }
      ],
      "name": "NotEnoughNative",
      "type": "error"
    },
    {
      "inputs": [
        {
          "internalType": "address",
          "name": "addr",
          "type": "address"
        }
      ],
      "name": "OnlyEndpoint",
      "type": "error"
    },
    {
      "inputs": [
        {
          "internalType": "uint32",
          "name": "eid",
          "type": "uint32"
        },
        {
          "internalType": "bytes32",
          "name": "sender",
          "type": "bytes32"
        }
      ],
      "name": "OnlyPeer",
      "type": "error"
    },
    {
      "inputs": [
        {
          "internalType": "address",
          "name": "owner",
          "type": "address"
        }
      ],
      "name": "OwnableInvalidOwner",
      "type": "error"
    },
    {
      "inputs": [
        {
          "internalType": "address",
          "name": "account",
          "type": "address"
        }
      ],
      "name": "OwnableUnauthorizedAccount",
      "type": "error"
    },
    {
      "inputs": [
        {
          "internalType": "address",
          "name": "token",
          "type": "address"
        }
      ],
      "name": "SafeERC20FailedOperation",
      "type": "error"
    },
    {
      "anonymous": false,
      "inputs": [
        {
          "indexed": true,
          "internalType": "uint32",
          "name": "sourceEid",
          "type": "uint32"
        },
        {
          "indexed": true,
          "internalType": "bytes32",
          "name": "recipient",
          "type": "bytes32"
        },
        {
          "indexed": false,
          "internalType": "bytes32",
          "name": "destinationToken",
          "type": "bytes32"
        },
        {
          "indexed": false,
          "internalType": "uint256",
          "name": "stableAmount",
          "type": "uint256"
        },
        {
          "indexed": false,
          "internalType": "uint256",
          "name": "amountOut",
          "type": "uint256"
        }
      ],
      "name": "CrossChainSwapCompleted",
      "type": "event"
    },
    {
      "anonymous": false,
      "inputs": [
        {
          "indexed": true,
          "internalType": "address",
          "name": "sender",
          "type": "address"
        },
        {
          "indexed": false,
          "internalType": "uint32",
          "name": "destinationEid",
          "type": "uint32"
        },
        {
          "indexed": false,
          "internalType": "bytes32",
          "name": "recipient",
          "type": "bytes32"
        },
        {
          "indexed": false,
          "internalType": "address",
          "name": "sourceToken",
          "type": "address"
        },
        {
          "indexed": false,
          "internalType": "bytes32",
          "name": "destinationToken",
          "type": "bytes32"
        },
        {
          "indexed": false,
          "internalType": "uint256",
          "name": "amountIn",
          "type": "uint256"
        },
        {
          "indexed": false,
          "internalType": "uint256",
          "name": "stableAmount",
          "type": "uint256"
        },
        {
          "indexed": false,
          "internalType": "uint256",
          "name": "amountOutMin",
          "type": "uint256"
        }
      ],
      "name": "CrossChainSwapInitiated",
      "type": "event"
    },
    {
      "anonymous": false,
      "inputs": [
        {
          "components": [
            {
              "internalType": "uint32",
              "name": "eid",
              "type": "uint32"
            },
            {
              "internalType": "uint16",
              "name": "msgType",
              "type": "uint16"
            },
            {
              "internalType": "bytes",
              "name": "options",
              "type": "bytes"
            }
          ],
          "indexed": false,
          "internalType": "struct EnforcedOptionParam[]",
          "name": "_enforcedOptions",
          "type": "tuple[]"
        }
      ],
      "name": "EnforcedOptionSet",
      "type": "event"
    },
    {
      "anonymous": false,
      "inputs": [
        {
          "indexed": true,
          "internalType": "address",
          "name": "previousOwner",
          "type": "address"
        },
        {
          "indexed": true,
          "internalType": "address",
          "name": "newOwner",
          "type": "address"
        }
      ],
      "name": "OwnershipTransferred",
      "type": "event"
    },
    {
      "anonymous": false,
      "inputs": [
        {
          "indexed": false,
          "internalType": "uint32",
          "name": "eid",
          "type": "uint32"
        },
        {
          "indexed": false,
          "internalType": "bytes32",
          "name": "peer",
          "type": "bytes32"
        }
      ],
      "name": "PeerSet",
      "type": "event"
    },
    {
      "anonymous": false,
      "inputs": [
        {
          "indexed": true,
          "internalType": "bytes32",
          "name": "swapId",
          "type": "bytes32"
        },
        {
          "indexed": false,
          "internalType": "bytes32",
          "name": "recipient",
          "type": "bytes32"
        },
        {
          "indexed": false,
          "internalType": "uint256",
          "name": "stableAmount",
          "type": "uint256"
        },
        {
          "indexed": false,
          "internalType": "string",
          "name": "reason",
          "type": "string"
        }
      ],
      "name": "SwapFailed",
      "type": "event"
    },
    {
      "anonymous": false,
      "inputs": [
        {
          "indexed": true,
          "internalType": "bytes32",
          "name": "swapId",
          "type": "bytes32"
        },
        {
          "indexed": false,
          "internalType": "bytes32",
          "name": "recipient",
          "type": "bytes32"
        },
        {
          "indexed": false,
          "internalType": "bytes32",
          "name": "destinationToken",
          "type": "bytes32"
        },
        {
          "indexed": false,
          "internalType": "uint256",
          "name": "stableAmount",
          "type": "uint256"
        },
        {
          "indexed": false,
          "internalType": "uint256",
          "name": "amountOutMin",
          "type": "uint256"
        }
      ],
      "name": "SwapInstructionsReceived",
      "type": "event"
    },
    {
      "inputs": [],
      "name": "DESTINATION_GAS_LIMIT",
      "outputs": [
        {
          "internalType": "uint256",
          "name": "",
          "type": "uint256"
        }
      ],
      "stateMutability": "view",
      "type": "function"
    },
    {
      "inputs": [],
      "name": "SWAP",
      "outputs": [
        {
          "internalType": "uint16",
          "name": "",
          "type": "uint16"
        }
      ],
      "stateMutability": "view",
      "type": "function"
    },
    {
      "inputs": [
        {
          "internalType": "uint256",
          "name": "stableAmount",
          "type": "uint256"
        },
        {
          "internalType": "uint256",
          "name": "amountOutMin",
          "type": "uint256"
        },
        {
          "internalType": "bytes32",
          "name": "destinationToken",
          "type": "bytes32"
        },
        {
          "internalType": "bytes32",
          "name": "recipient",
          "type": "bytes32"
        }
      ],
      "name": "_performSwap",
      "outputs": [
        {
          "internalType": "uint256",
          "name": "amountOut",
          "type": "uint256"
        }
      ],
      "stateMutability": "nonpayable",
      "type": "function"
    },
    {
      "inputs": [
        {
          "internalType": "address",
          "name": "_addr",
          "type": "address"
        }
      ],
      "name": "addressToBytes32",
      "outputs": [
        {
          "internalType": "bytes32",
          "name": "",
          "type": "bytes32"
        }
      ],
      "stateMutability": "pure",
      "type": "function"
    },
    {
      "inputs": [
        {
          "components": [
            {
              "internalType": "uint32",
              "name": "srcEid",
              "type": "uint32"
            },
            {
              "internalType": "bytes32",
              "name": "sender",
              "type": "bytes32"
            },
            {
              "internalType": "uint64",
              "name": "nonce",
              "type": "uint64"
            }
          ],
          "internalType": "struct Origin",
          "name": "origin",
          "type": "tuple"
        }
      ],
      "name": "allowInitializePath",
      "outputs": [
        {
          "internalType": "bool",
          "name": "",
          "type": "bool"
        }
      ],
      "stateMutability": "view",
      "type": "function"
    },
    {
      "inputs": [
        {
          "internalType": "uint32",
          "name": "_eid",
          "type": "uint32"
        },
        {
          "internalType": "uint16",
          "name": "_msgType",
          "type": "uint16"
        },
        {
          "internalType": "bytes",
          "name": "_extraOptions",
          "type": "bytes"
        }
      ],
      "name": "combineOptions",
      "outputs": [
        {
          "internalType": "bytes",
          "name": "",
          "type": "bytes"
        }
      ],
      "stateMutability": "view",
      "type": "function"
    },
    {
      "inputs": [
        {
          "internalType": "uint32",
          "name": "_destinationEid",
          "type": "uint32"
        },
        {
          "internalType": "bytes32",
          "name": "_recipient",
          "type": "bytes32"
        },
        {
          "internalType": "address",
          "name": "_sourceToken",
          "type": "address"
        },
        {
          "internalType": "bytes32",
          "name": "_destinationToken",
          "type": "bytes32"
        },
        {
          "internalType": "uint256",
          "name": "_amountIn",
          "type": "uint256"
        },
        {
          "internalType": "uint256",
          "name": "_amountOutMin",
          "type": "uint256"
        },
        {
          "internalType": "bytes",
          "name": "_options",
          "type": "bytes"
        }
      ],
      "name": "crossChainSwap",
      "outputs": [],
      "stateMutability": "payable",
      "type": "function"
    },
    {
      "inputs": [],
      "name": "dexRouter",
      "outputs": [
        {
          "internalType": "contract IPayfundsRouter02",
          "name": "",
          "type": "address"
        }
      ],
      "stateMutability": "view",
      "type": "function"
    },
    {
      "inputs": [],
      "name": "endpoint",
      "outputs": [
        {
          "internalType": "contract ILayerZeroEndpointV2",
          "name": "",
          "type": "address"
        }
      ],
      "stateMutability": "view",
      "type": "function"
    },
    {
      "inputs": [
        {
          "internalType": "uint32",
          "name": "eid",
          "type": "uint32"
        },
        {
          "internalType": "uint16",
          "name": "msgType",
          "type": "uint16"
        }
      ],
      "name": "enforcedOptions",
      "outputs": [
        {
          "internalType": "bytes",
          "name": "enforcedOption",
          "type": "bytes"
        }
      ],
      "stateMutability": "view",
      "type": "function"
    },
    {
      "inputs": [
        {
          "internalType": "bytes32",
          "name": "_destinationToken",
          "type": "bytes32"
        },
        {
          "internalType": "uint256",
          "name": "_stableAmount",
          "type": "uint256"
        }
      ],
      "name": "estimateDestinationOutput",
      "outputs": [
        {
          "internalType": "uint256",
          "name": "destTokenAmount",
          "type": "uint256"
        }
      ],
      "stateMutability": "view",
      "type": "function"
    },
    {
      "inputs": [
        {
          "internalType": "address",
          "name": "_sourceToken",
          "type": "address"
        },
        {
          "internalType": "uint256",
          "name": "_amountIn",
          "type": "uint256"
        }
      ],
      "name": "estimateSwapOutput",
      "outputs": [
        {
          "internalType": "uint256",
          "name": "sourceStableAmount",
          "type": "uint256"
        }
      ],
      "stateMutability": "view",
      "type": "function"
    },
    {
      "inputs": [
        {
          "internalType": "bytes32",
          "name": "swapId",
          "type": "bytes32"
        }
      ],
      "name": "executeSwap",
      "outputs": [],
      "stateMutability": "nonpayable",
      "type": "function"
    },
    {
      "inputs": [
        {
          "components": [
            {
              "internalType": "uint32",
              "name": "srcEid",
              "type": "uint32"
            },
            {
              "internalType": "bytes32",
              "name": "sender",
              "type": "bytes32"
            },
            {
              "internalType": "uint64",
              "name": "nonce",
              "type": "uint64"
            }
          ],
          "internalType": "struct Origin",
          "name": "",
          "type": "tuple"
        },
        {
          "internalType": "bytes",
          "name": "",
          "type": "bytes"
        },
        {
          "internalType": "address",
          "name": "_sender",
          "type": "address"
        }
      ],
      "name": "isComposeMsgSender",
      "outputs": [
        {
          "internalType": "bool",
          "name": "",
          "type": "bool"
        }
      ],
      "stateMutability": "view",
      "type": "function"
    },
    {
      "inputs": [
        {
          "components": [
            {
              "internalType": "uint32",
              "name": "srcEid",
              "type": "uint32"
            },
            {
              "internalType": "bytes32",
              "name": "sender",
              "type": "bytes32"
            },
            {
              "internalType": "uint64",
              "name": "nonce",
              "type": "uint64"
            }
          ],
          "internalType": "struct Origin",
          "name": "_origin",
          "type": "tuple"
        },
        {
          "internalType": "bytes32",
          "name": "_guid",
          "type": "bytes32"
        },
        {
          "internalType": "bytes",
          "name": "_message",
          "type": "bytes"
        },
        {
          "internalType": "address",
          "name": "_executor",
          "type": "address"
        },
        {
          "internalType": "bytes",
          "name": "_extraData",
          "type": "bytes"
        }
      ],
      "name": "lzReceive",
      "outputs": [],
      "stateMutability": "payable",
      "type": "function"
    },
    {
      "inputs": [
        {
          "internalType": "uint32",
          "name": "",
          "type": "uint32"
        },
        {
          "internalType": "bytes32",
          "name": "",
          "type": "bytes32"
        }
      ],
      "name": "nextNonce",
      "outputs": [
        {
          "internalType": "uint64",
          "name": "nonce",
          "type": "uint64"
        }
      ],
      "stateMutability": "view",
      "type": "function"
    },
    {
      "inputs": [],
      "name": "oAppVersion",
      "outputs": [
        {
          "internalType": "uint64",
          "name": "senderVersion",
          "type": "uint64"
        },
        {
          "internalType": "uint64",
          "name": "receiverVersion",
          "type": "uint64"
        }
      ],
      "stateMutability": "pure",
      "type": "function"
    },
    {
      "inputs": [],
      "name": "owner",
      "outputs": [
        {
          "internalType": "address",
          "name": "",
          "type": "address"
        }
      ],
      "stateMutability": "view",
      "type": "function"
    },
    {
      "inputs": [
        {
          "internalType": "uint32",
          "name": "eid",
          "type": "uint32"
        }
      ],
      "name": "peers",
      "outputs": [
        {
          "internalType": "bytes32",
          "name": "peer",
          "type": "bytes32"
        }
      ],
      "stateMutability": "view",
      "type": "function"
    },
    {
      "inputs": [
        {
          "internalType": "bytes32",
          "name": "",
          "type": "bytes32"
        }
      ],
      "name": "pendingSwaps",
      "outputs": [
        {
          "internalType": "bytes32",
          "name": "recipient",
          "type": "bytes32"
        },
        {
          "internalType": "bytes32",
          "name": "destinationToken",
          "type": "bytes32"
        },
        {
          "internalType": "uint256",
          "name": "amountOutMin",
          "type": "uint256"
        },
        {
          "internalType": "uint256",
          "name": "stableAmount",
          "type": "uint256"
        },
        {
          "internalType": "address",
          "name": "refundRecipient",
          "type": "address"
        },
        {
          "internalType": "uint256",
          "name": "timestamp",
          "type": "uint256"
        },
        {
          "internalType": "bool",
          "name": "executed",
          "type": "bool"
        }
      ],
      "stateMutability": "view",
      "type": "function"
    },
    {
      "inputs": [
        {
          "internalType": "uint32",
          "name": "_dstEid",
          "type": "uint32"
        },
        {
          "internalType": "bytes",
          "name": "_message",
          "type": "bytes"
        },
        {
          "internalType": "bytes",
          "name": "_options",
          "type": "bytes"
        },
        {
          "internalType": "bool",
          "name": "_payInLzToken",
          "type": "bool"
        }
      ],
      "name": "quote",
      "outputs": [
        {
          "components": [
            {
              "internalType": "uint256",
              "name": "nativeFee",
              "type": "uint256"
            },
            {
              "internalType": "uint256",
              "name": "lzTokenFee",
              "type": "uint256"
            }
          ],
          "internalType": "struct MessagingFee",
          "name": "fee",
          "type": "tuple"
        }
      ],
      "stateMutability": "view",
      "type": "function"
    },
    {
      "inputs": [
        {
          "internalType": "uint32",
          "name": "_destinationEid",
          "type": "uint32"
        },
        {
          "internalType": "bytes32",
          "name": "_recipient",
          "type": "bytes32"
        },
        {
          "internalType": "bytes32",
          "name": "_destinationToken",
          "type": "bytes32"
        },
        {
          "internalType": "uint256",
          "name": "_amountOutMin",
          "type": "uint256"
        },
        {
          "internalType": "uint256",
          "name": "_stableAmount",
          "type": "uint256"
        },
        {
          "internalType": "bytes",
          "name": "_options",
          "type": "bytes"
        }
      ],
      "name": "quoteSwapFee",
      "outputs": [
        {
          "components": [
            {
              "internalType": "uint256",
              "name": "nativeFee",
              "type": "uint256"
            },
            {
              "internalType": "uint256",
              "name": "lzTokenFee",
              "type": "uint256"
            }
          ],
          "internalType": "struct MessagingFee",
          "name": "totalFee",
          "type": "tuple"
        }
      ],
      "stateMutability": "view",
      "type": "function"
    },
    {
      "inputs": [],
      "name": "renounceOwnership",
      "outputs": [],
      "stateMutability": "nonpayable",
      "type": "function"
    },
    {
      "inputs": [
        {
          "internalType": "address",
          "name": "_delegate",
          "type": "address"
        }
      ],
      "name": "setDelegate",
      "outputs": [],
      "stateMutability": "nonpayable",
      "type": "function"
    },
    {
      "inputs": [
        {
          "components": [
            {
              "internalType": "uint32",
              "name": "eid",
              "type": "uint32"
            },
            {
              "internalType": "uint16",
              "name": "msgType",
              "type": "uint16"
            },
            {
              "internalType": "bytes",
              "name": "options",
              "type": "bytes"
            }
          ],
          "internalType": "struct EnforcedOptionParam[]",
          "name": "_enforcedOptions",
          "type": "tuple[]"
        }
      ],
      "name": "setEnforcedOptions",
      "outputs": [],
      "stateMutability": "nonpayable",
      "type": "function"
    },
    {
      "inputs": [
        {
          "internalType": "uint32",
          "name": "_eid",
          "type": "uint32"
        },
        {
          "internalType": "bytes32",
          "name": "_peer",
          "type": "bytes32"
        }
      ],
      "name": "setPeer",
      "outputs": [],
      "stateMutability": "nonpayable",
      "type": "function"
    },
    {
      "inputs": [],
      "name": "stablecoin",
      "outputs": [
        {
          "internalType": "address",
          "name": "",
          "type": "address"
        }
      ],
      "stateMutability": "view",
      "type": "function"
    },
    {
      "inputs": [],
      "name": "stablecoinOFT",
      "outputs": [
        {
          "internalType": "contract IOFT",
          "name": "",
          "type": "address"
        }
      ],
      "stateMutability": "view",
      "type": "function"
    },
    {
      "inputs": [
        {
          "internalType": "address",
          "name": "newOwner",
          "type": "address"
        }
      ],
      "name": "transferOwnership",
      "outputs": [],
      "stateMutability": "nonpayable",
      "type": "function"
    },
    {
      "inputs": [
        {
          "internalType": "address payable",
          "name": "_to",
          "type": "address"
        },
        {
          "internalType": "uint256",
          "name": "_amount",
          "type": "uint256"
        }
      ],
      "name": "withdrawNative",
      "outputs": [],
      "stateMutability": "nonpayable",
      "type": "function"
    },
    {
      "inputs": [
        {
          "internalType": "contract IERC20",
          "name": "_token",
          "type": "address"
        },
        {
          "internalType": "address",
          "name": "_to",
          "type": "address"
        },
        {
          "internalType": "uint256",
          "name": "_amount",
          "type": "uint256"
        }
      ],
      "name": "withdrawToken",
      "outputs": [],
      "stateMutability": "nonpayable",
      "type": "function"
    },
    {
      "stateMutability": "payable",
      "type": "receive"
    }
  ],
  "transactionHash": "0x5fc410f747c13c7674243800dfa445f3b1ec5330b6cc0fc3bc471ce8b38ef095",
  "args": [
    "0x6EDCE65403992e310A62460808c4b910D972f10f",
    "0x49f51e3C94B459677c3B1e611DB3E44d4E6b1D55",
    "0xA9a558fB3269F307eE57270b41fcBaFFC56d5290",
    "0xBE4fFD224eB2Cc79F99476b964EA5495144A9E44"
  ],
  "numDeployments": 1,
  "solcInputHash": "c2cbdf4e3a4aa66037f86ac55f271cb9",
  "bytecode": "0x610100346200022b576001600160401b0390601f620031b038819003918201601f1916830192919084841183851017620002305781608092849260409687528339810103126200022b57620000548162000246565b90620000636020820162000246565b906200007f60606200007786840162000246565b920162000246565b926001600160a01b0392831680156200021357600080546001600160a01b031981168317825590928591839083167f8be0079c531659141344cd1fd0a4f28419497f9722a3daafe3b4186f6b6457e08680a3169081608052813b156200020f578291602483928951958693849263ca5eb5e160e01b845260048401525af1968715620002035784959697620001d5575b5050501660a052811660c05260e05251612f5490816200025c82396080518181816105c401528181610c560152818161147a015281816116ce015281816122cd015281816123d40152612def015260a0518181816102ab0152818161042c01528181610a1001528181610d1501526111ac015260c051818181610dfb01528181610fa0015261204d015260e05181818161023501528181610a9201528181610ccc015281816111e00152818161151e0152818161209601528181612643015261299b0152f35b90918093945011620001ef5750845281903880806200010f565b634e487b7160e01b81526041600452602490fd5b508551903d90823e3d90fd5b8280fd5b8551631e4fbdf760e01b815260006004820152602490fd5b600080fd5b634e487b7160e01b600052604160045260246000fd5b51906001600160a01b03821682036200022b5756fe6080604052600436101561001b575b361561001957600080fd5b005b60003560e01c80630176fac61461020b57806301e336671461020657806304d84108146102015780630758d924146101fc57806307b18bde146101f75780630f57864e146101f257806313137d65146101ed57806317442b70146101e85780633400288b146101e35780635535d461146101de5780635a5ef655146101d95780635e280f11146101d457806368a88e81146101cf578063715018a6146101ca5780637d25a05e146101c55780637d61cf0d146101c057806382413eac146101bb57806382c947b7146101b6578063891e2776146101b15780638da5cb5b146101ac57806392654efa146101a757806396ac3637146101a2578063b98bd0701461019d578063bb0b6a5314610198578063bc70b35414610193578063ca5eb5e11461018e578063e7f882ed14610189578063e9cbd82214610184578063eba007071461017f578063f2fde38b1461017a5763ff7bd03d0361000e576117d3565b611747565b6115f4565b611508565b6114ea565b611449565b6113f5565b6113ba565b6112ba565b611176565b61115a565b611131565b610eb9565b610e88565b610e2a565b610de5565b610dbe565b610d60565b610c85565b610c40565b610964565b6108f6565b61069b565b61066b565b610566565b6104ae565b61045b565b610416565b6103fa565b61034d565b3461033757604036600319011261033757610224611830565b805115610332576001600160a01b037f00000000000000000000000000000000000000000000000000000000000000001660208201526102a7906000906001600160a01b03610289600435821661027a84611861565b6001600160a01b039091169052565b604051808095819463d06ca61f60e01b835260243560048401611948565b03917f0000000000000000000000000000000000000000000000000000000000000000165afa90811561032d57610306916102f59160009161030a575b506102ef8151611981565b9061187e565b516040519081529081906020820190565b0390f35b61032791503d806000833e61031f81836107e8565b810190611892565b386102e4565b61195f565b61184b565b600080fd5b6001600160a01b0381160361033757565b3461033757606036600319011261033757600060206103b96004356103718161033c565b60243561037d8161033c565b610385611d73565b60405163a9059cbb60e01b81526001600160a01b039091166004820152604480356024830152909485938492839190820190565b03926001600160a01b03165af1801561032d576103d257005b6100199060203d6020116103f3575b6103eb81836107e8565b810190611995565b503d6103e1565b3461033757600036600319011261033757602060405160018152f35b34610337576000366003190112610337576040517f00000000000000000000000000000000000000000000000000000000000000006001600160a01b03168152602090f35b3461033757604036600319011261033757600080808060043561047d8161033c565b60243590610489611d73565b829082156104a4575b6001600160a01b031690f11561032d57005b6108fc9150610492565b3461033757602036600319011261033757600435600052600360205260e060406000208054906001810154906002810154600382015460018060a01b036004840154169160ff600660058601549501541694604051968752602087015260408601526060850152608084015260a0830152151560c0820152f35b606090600319011261033757600490565b9181601f84011215610337578235916001600160401b038311610337576020838186019501011161033757565b60e03660031901126103375761057b36610528565b6001600160401b036084358181116103375761059b903690600401610539565b916105a760a43561033c565b60c435908111610337576105bf903690600401610539565b5050337f00000000000000000000000000000000000000000000000000000000000000006001600160a01b031603610653576106026105fd846119aa565b611d9f565b92602081013580940361061d57610019935060643590611e49565b61062784916119aa565b60405163309afaf360e21b815263ffffffff9190911660048201526024810191909152604490fd5b0390fd5b6040516391ac5e4f60e01b8152336004820152602490fd5b3461033757600036600319011261033757604080516001815260026020820152f35b63ffffffff81160361033757565b34610337576040366003190112610337577f238399d427b947898edb290f5ff0f9109849b1c3ba196a42e35f00c50a54b98b6004356106d98161068d565b602435906106e5611d73565b63ffffffff811660005260016020528160406000205561071d604051928392836020909392919363ffffffff60408201951681520152565b0390a1005b6024359061ffff8216820361033757565b359061ffff8216820361033757565b90600182811c92168015610772575b602083101461075c57565b634e487b7160e01b600052602260045260246000fd5b91607f1691610751565b634e487b7160e01b600052604160045260246000fd5b604081019081106001600160401b038211176107ad57604052565b61077c565b606081019081106001600160401b038211176107ad57604052565b60a081019081106001600160401b038211176107ad57604052565b90601f801991011681019081106001600160401b038211176107ad57604052565b9060405191826000825461081c81610742565b9081845260209460019160018116908160001461088c575060011461084d575b50505061084b925003836107e8565b565b600090815285812095935091905b81831061087457505061084b935082010138808061083c565b8554888401850152948501948794509183019161085b565b9250505061084b94925060ff191682840152151560051b82010138808061083c565b60005b8381106108c15750506000910152565b81810151838201526020016108b1565b906020916108ea815180928185528580860191016108ae565b601f01601f1916010190565b346103375760403660031901126103375761030661095061094b60043561091c8161068d565b63ffffffff610929610722565b9116600052600260205260406000209061ffff16600052602052604060002090565b610809565b6040519182916020835260208301906108d1565b60e03660031901126103375761097b60043561068d565b61098660443561033c565b60643560a43560c4356001600160401b038111610337576109ab903690600401610539565b6040516323b872dd60e01b815233600482015230602482015260843560448201529192916020818060648101038160006044356001600160a01b03165af1801561032d57610a0191600091610c21575b506119b4565b60405163095ea7b360e01b81527f00000000000000000000000000000000000000000000000000000000000000006001600160a01b03166004820181905260843560248301526020828060448101038160006044356001600160a01b03165af190811561032d57610ae692600092610c02575b50610a7d611830565b90610a8d60443561027a84611871565b610aba7f000000000000000000000000000000000000000000000000000000000000000061027a84611861565b610ac3426119f8565b91836040518096819582946338ed173960e01b8452309060843560048601611a14565b03925af193841561032d57610b7f610b2f7fabc44f0535f939ebb721351addb80fec24670284d6ab1957041eb8aac7514b0996610bb59460009161030a57506102ef8151611981565b5193610b3f818487600435612035565b60408051602435602082015290810189905260608101879052608081018690523360a080830191909152815292610b7760c0856107e8565b600435611caa565b610b98610b8f8284600435612262565b51341015611a4e565b610ba061154d565b90348252600060208301523392600435612357565b506040805160043563ffffffff16815260243560208201526044356001600160a01b0316918101919091526060810194909452608435608085015260a084015260c0830152339160e090a2005b610c1a9060203d6020116103f3576103eb81836107e8565b5038610a74565b610c3a915060203d6020116103f3576103eb81836107e8565b386109fb565b34610337576000366003190112610337576040517f00000000000000000000000000000000000000000000000000000000000000006001600160a01b03168152602090f35b3461033757604036600319011261033757600435610ca28161033c565b610caa611830565b90815115610332576001600160a01b03166020820152610d1190600090610cf47f000000000000000000000000000000000000000000000000000000000000000061027a83611861565b6040518093819263d06ca61f60e01b835260243560048401611948565b03817f00000000000000000000000000000000000000000000000000000000000000006001600160a01b03165afa90811561032d57610306916102f59160009161030a57506102ef8151611981565b3461033757600080600319360112610dbb57610d7a611d73565b80546001600160a01b03198116825581906001600160a01b03167f8be0079c531659141344cd1fd0a4f28419497f9722a3daafe3b4186f6b6457e08280a380f35b80fd5b3461033757604036600319011261033757610dda60043561068d565b602060405160008152f35b34610337576000366003190112610337576040517f00000000000000000000000000000000000000000000000000000000000000006001600160a01b03168152602090f35b346103375760a036600319011261033757610e4436610528565b506064356001600160401b03811161033757610e64903690600401610539565b50506020608435610e748161033c565b6040516001600160a01b0390911630148152f35b34610337576020366003190112610337576020600435610ea78161033c565b6040516001600160a01b039091168152f35b346103375760c036600319011261033757600435610ed68161068d565b6084359060a435906001600160401b0382116103375761030692610f016110a6933690600401610539565b939092610f0c611a9a565b94610f21610f1985611ab3565b6103e8900490565b93610f2a61155a565b63ffffffff8416815260209586933085840152604098899285848601526060850152610f57368383611586565b6080850152610f64611aca565b60a0850152610f71611aca565b60c0850152610f9c83610f82611a9a565b95815180938192633b6f743b60e01b835260048301611b96565b03817f00000000000000000000000000000000000000000000000000000000000000006001600160a01b03165afa60009181611112575b506110fe57509061103e91611038859666470de4df82000061102a97526000898901525b85516024358a82019081526044356020820152606435604082015260608101929092526000608083015296879160a00190565b03601f1981018752866107e8565b87611caa565b91611047611a9a565b956110658351948593849363eba0070760e01b855260048501611bb3565b0381305afa600091816110cf575b506110c657508190666a94d74f43000084526000828501525b6110998151855190611a07565b8852015191015190611a07565b908301525191829182815181526020918201519181019190915260400190565b9250819061108c565b6110f0919250883d8a116110f7575b6110e881836107e8565b810190611b15565b9038611073565b503d6110de565b61102a94509061103861103e939296610ff7565b61112a919250853d87116110f7576110e881836107e8565b9038610fd3565b34610337576000366003190112610337576000546040516001600160a01b039091168152602090f35b34610337576020366003190112610337576100196004356125d0565b3461033757608036600319011261033757600435611195303314611be9565b60405163095ea7b360e01b81526001600160a01b037f0000000000000000000000000000000000000000000000000000000000000000811660048301819052602483018490529092907f00000000000000000000000000000000000000000000000000000000000000006020846044816000858a165af193841561032d5760009461129b575b50611231611227611830565b9161027a83611871565b611242856044351661027a83611861565b8361124c426119f8565b95611276604051978896879586946338ed173960e01b865260643516916024359060048701611c21565b03925af190811561032d57610306916102f59160009161030a57506102ef8151611981565b6112b39060203d6020116103f3576103eb81836107e8565b503861121b565b3461033757602080600319360112610337576004356001600160401b038082116103375736602383011215610337578160040135918183116103375760249060248460051b8201019236841161033757611312611d73565b61131b85611819565b9460409061132c60405197886107e8565b86526024830192602087015b8685106113485761001988612cb8565b8435848111610337578201606060231982360301126103375783519161136d836107b2565b8782013561137a8161068d565b835261138860448301610733565b8b840152606482013592868411610337576113ab8c94938a8695369201016115cc565b86820152815201940193611338565b346103375760203660031901126103375763ffffffff6004356113dc8161068d565b1660005260016020526020604060002054604051908152f35b34610337576060366003190112610337576004356114128161068d565b61141a610722565b604435906001600160401b0382116103375761030692611441610950933690600401610539565b929091611d45565b346103375760006020366003190112610dbb576004356114688161033c565b611470611d73565b6001600160a01b037f0000000000000000000000000000000000000000000000000000000000000000811691839190833b156114e65760249083604051958694859363ca5eb5e160e01b85521660048401525af1801561032d576114d2575080f35b6001600160401b0381116107ad5760405280f35b8280fd5b346103375760003660031901126103375760206040516207a1208152f35b34610337576000366003190112610337576040517f00000000000000000000000000000000000000000000000000000000000000006001600160a01b03168152602090f35b6040519061084b82610792565b6040519060e082018281106001600160401b038211176107ad57604052565b6040519061084b826107cd565b9291926001600160401b0382116107ad57604051916115af601f8201601f1916602001846107e8565b829481845281830111610337578281602093846000960137010152565b9080601f83011215610337578160206115e793359101611586565b90565b8015150361033757565b34610337576080366003190112610337576004356116118161068d565b6001600160401b0390602435828111610337576116329036906004016115cc565b906044359283116103375761164e6116ca9336906004016115cc565b906116af60643561165e816115ea565b611666611a9a565b5061166f611a9a565b5061167983611d9f565b93604095869561169887519661168e886107cd565b63ffffffff168752565b602086015285850152606084015215156080830152565b815180948192631bb8518b60e31b83523090600484016121f4565b03817f00000000000000000000000000000000000000000000000000000000000000006001600160a01b03165afa90811561032d5761030692600092611728575b505191829182815181526020918201519181019190915260400190565b816117409293503d84116110f7576110e881836107e8565b903861170b565b34610337576020366003190112610337576004356117648161033c565b61176c611d73565b6001600160a01b0390811680156117ba57600080546001600160a01b03198116831782559092167f8be0079c531659141344cd1fd0a4f28419497f9722a3daafe3b4186f6b6457e08380a380f35b604051631e4fbdf760e01b815260006004820152602490fd5b346103375760603660031901126103375760206117ef36610528565b63ffffffff81356117ff8161068d565b166000526001825260406000205482604051920135148152f35b6001600160401b0381116107ad5760051b60200190565b6040519061183d826107b2565b600282526040366020840137565b634e487b7160e01b600052603260045260246000fd5b8051600110156103325760400190565b8051156103325760200190565b80518210156103325760209160051b010190565b6020908181840312610337578051906001600160401b03821161033757019180601f840112156103375782516118c781611819565b936118d560405195866107e8565b818552838086019260051b820101928311610337578301905b8282106118fc575050505090565b815181529083019083016118ee565b90815180825260208080930193019160005b82811061192b575050505090565b83516001600160a01b03168552938101939281019260010161191d565b6040906115e793928152816020820152019061190b565b6040513d6000823e3d90fd5b634e487b7160e01b600052601160045260246000fd5b60001981019190821161199057565b61196b565b9081602091031261033757516115e7816115ea565b356115e78161068d565b156119bb57565b60405162461bcd60e51b8152602060048201526015602482015274151bdad95b881d1c985b9cd9995c8819985a5b1959605a1b6044820152606490fd5b906104b0820180921161199057565b9190820180921161199057565b90608092611a3a919695949683526000602084015260a0604084015260a083019061190b565b6001600160a01b0390951660608201520152565b15611a5557565b60405162461bcd60e51b815260206004820152601960248201527f496e73756666696369656e74206665652070726f7669646564000000000000006044820152606490fd5b60405190611aa782610792565b60006020838281520152565b906103b69182810292818404149015171561199057565b60405190602082018281106001600160401b038211176107ad5760405260008252565b919082604091031261033757604051611b0581610792565b6020808294805184520151910152565b90604082820312610337576115e791611aed565b6115e79163ffffffff825116815260208201516020820152604082015160408201526060820151606082015260c0611b85611b73608085015160e0608086015260e08501906108d1565b60a085015184820360a08601526108d1565b9201519060c08184039101526108d1565b91906020611bae600092604086526040860190611b29565b930152565b9392611bae90611bdb60009463ffffffff6060951688526080602089015260808801906108d1565b9086820360408801526108d1565b15611bf057565b60405162461bcd60e51b815260206004820152600960248201526827b7363c9039b2b63360b91b6044820152606490fd5b9192608093611a3a92979695978452602084015260a0604084015260a083019061190b565b6020908361084b939594956040519683611c6989955180928880890191016108ae565b84019185830137016000838201520380855201836107e8565b90918060409360208452816020850152848401376000828201840152601f01601f1916010190565b63ffffffff166000526002602052611cd361094b60406000206001600052602052604060002090565b805115611d39578215611d33576002831015611d06575061064f604051928392639a6d49cd60e01b845260048401611c82565b611d19611d14368585611586565b612d7e565b82600211610337576115e792600119019160020190611c46565b91505090565b506115e7913691611586565b611cd39163ffffffff61094b9216600052600260205260406000209061ffff16600052602052604060002090565b6000546001600160a01b03163303611d8757565b60405163118cdaa760e01b8152336004820152602490fd5b63ffffffff16806000526001602052604060002054908115611dbf575090565b6024906040519063f6ff4fb760e01b82526004820152fd5b600660c061084b93805184556020810151600185015560408101516002850155606081015160038501556004840160018060a01b036080830151166bffffffffffffffffffffffff60a01b82541617905560a081015160058501550151151591019060ff801983541691151516179055565b928260a091939293810103126103375761084b92611f57927f7eab43c7aeb9b7724637b21b3b01973418e99cb2325556e236b9c61ce4c936a983611f829435611f7a6020830135926040810135906080606082013591013596611eab8861033c565b84611ef6611eb88b6119aa565b60405160e09190911b6001600160e01b031916602082019081526024820194909452604481019290925281606481015b03601f1981018352826107e8565b519020998a97611f31611f0761155a565b8781526020810189905260408101869052606081018590526001600160a01b039092166080830152565b4260a0820152600060c0820152611f52896000526003602052604060002090565b611dd7565b604051948594859094939260609260808301968352602083015260408201520152565b0390a26119aa565b90612930565b91906080838203126103375760405190611fa1826107b2565b8193805183526020810151916001600160401b0383168303610337576040611fd0928194602087015201611aed565b910152565b919060c08382031261033757806080611ff16115e79386611f88565b9401611aed565b919392612027612012606093608086526080860190611b29565b95602085019060208091805184520151910152565b6001600160a01b0316910152565b6040805163095ea7b360e01b81526001600160a01b037f0000000000000000000000000000000000000000000000000000000000000000811660048301819052602483018690529296929593949193929190602090859060449082906000907f0000000000000000000000000000000000000000000000000000000000000000165af193841561032d57612103946121d5575b506120d5610f1982611ab3565b906120ed6120e161155a565b63ffffffff9097168752565b3060208701528786015260608501523691611586565b6080820152612110611aca565b60a082015261211d611aca565b60c08201528251633b6f743b60e01b81529183838061213f8560048301611b96565b0381845afa801561032d576121799460c0946000926121b6575b508151905180968195829463c7c7f5b360e01b8452309160048501611ff8565b03925af1801561032d5761218a5750565b6121ab9060c03d60c0116121af575b6121a381836107e8565b810190611fd5565b5050565b503d612199565b816121ce9293503d84116110f7576110e881836107e8565b9038612159565b6121ed9060203d6020116103f3576103eb81836107e8565b50386120c8565b906020909392936040835263ffffffff81511660408401528181015160608401526080612248612232604084015160a08488015260e08701906108d1565b6060840151868203603f190160a08801526108d1565b910151151560c08401526001600160a01b03909416910152565b916122c99192612270611a9a565b5061227a81611d9f565b91604094859361229985519461228f866107cd565b63ffffffff168552565b602084015283830152606082015260006080820152815180938192631bb8518b60e31b83523090600484016121f4565b03817f00000000000000000000000000000000000000000000000000000000000000006001600160a01b03165afa91821561032d5760009261230a57505090565b6115e79250803d106110f7576110e881836107e8565b6040519061232d826107b2565b8160008152600060208201526040611fd0611a9a565b90608082820312610337576115e791611f88565b6123b4608094926123d0969461236b612320565b5060206123788651612db6565b950191825180612439575b5061238d85611d9f565b925115159261239d6120e1611579565b602086015260408501526060840152151585830152565b6040518095819482936302637a4560e41b8452600484016121f4565b03917f00000000000000000000000000000000000000000000000000000000000000006001600160a01b03165af190811561032d57600091612410575090565b6115e7915060803d608011612432575b61242a81836107e8565b810190612343565b503d612420565b61244290612dd8565b38612383565b1561244f57565b60405162461bcd60e51b815260206004820152601560248201527414ddd85c08185b1c9958591e48195e1958dd5d1959605a1b6044820152606490fd5b1561249357565b60405162461bcd60e51b815260206004820152600c60248201526b0496e76616c696420737761760a41b6044820152606490fd5b90816020910312610337575190565b909160c0928252602082015260606040820152602560608201527f496e73756666696369656e7420737461626c65636f696e73202d2077696c6c20608082015264726574727960d81b60a08201520190565b60009060033d1161253557565b905060046000803e60005160e01c90565b600060443d106115e757604051600319913d83016004833e81516001600160401b03918282113d6024840111176125a3578184019485519384116125ab573d850101602084870101116125a357506115e7929101602001906107e8565b949350505050565b50949350505050565b6115e793926060928252602082015281604082015201906108d1565b6125e4816000526003602052604060002090565b9060068201916126046125ff6125fb855460ff1690565b1590565b612448565b60038101916126158354151561248c565b835460ff19166001178455604080516370a0823160e01b815230600482015260209591936001600160a01b037f000000000000000000000000000000000000000000000000000000000000000081169390928881602481885afa90811561032d57600091612913575b5087548091106128da57505085546002820154600183018054845489516396ac363760e01b815260048101959095526024850193909352604484015260648301919091529088816084816000305af1600091816128ab575b5061285c57505060016126e7612528565b6308c379a0146127c4575b612700575b50505050505050565b61278d95879560009254915495600080516020612eff8339815191528251806127598a8783909160a0928252602082015260606040820152600d60608201526c2ab735b737bbb71032b93937b960991b60808201520190565b0390a25163a9059cbb60e01b815292166001600160a01b031660048301526024820193909352938492839182906044820190565b03925af1801561032d576127a6575b80808080806126f7565b816127bc92903d106103f3576103eb81836107e8565b50388061279c565b6127cc612546565b806127d8575b506126f2565b90506000908884845488600080516020612eff8339815191526128048d54968d519182918987846125b4565b0390a2895163a9059cbb60e01b815291166001600160a01b031660048201526024810192909252816044816000895af1801561032d57156127d25761285590893d8b116103f3576103eb81836107e8565b50386127d2565b915490549654955196875260208701959095526040860152509193506000927f355917a3a205f2ad96dd4f7ff8526081d716b8a65bac5fbbf17ce432a27e32489250905080606081015b0390a3565b6128cc9192508a3d8c116128d3575b6128c481836107e8565b8101906124c7565b90386126d6565b503d6128ba565b9350955061084b9650600080516020612eff8339815191529394915061290690549151928392836124d6565b0390a2805460ff19169055565b61292a9150893d8b116128d3576128c481836107e8565b3861267e565b90612945826000526003602052604060002090565b90600682019261295c6125ff6125fb865460ff1690565b600383019261296d8454151561248c565b845460ff19166001178555604080516370a0823160e01b815230600482015260209691946001600160a01b037f0000000000000000000000000000000000000000000000000000000000000000811694909390928981602481895afa90811561032d57600091612ae5575b508854809110612ab85750508654600283015460018401805485548a516396ac363760e01b81526004810195909552602485019390935260448401526064830191909152919089816084816000305af160009181612a99575b50612a435750505060016126e7612528565b92549154975496519788526020880196909652604087019190915295505063ffffffff909216927f355917a3a205f2ad96dd4f7ff8526081d716b8a65bac5fbbf17ce432a27e32489250905080606081016128a6565b612ab19192508b3d8d116128d3576128c481836107e8565b9038612a31565b945096505061084b9650600080516020612eff8339815191529394915061290690549151928392836124d6565b612afc91508a3d8c116128d3576128c481836107e8565b386129d8565b90601f8111612b1057505050565b6000916000526020600020906020601f850160051c83019410612b4e575b601f0160051c01915b828110612b4357505050565b818155600101612b37565b9092508290612b2e565b91909182516001600160401b0381116107ad57612b7f81612b798454610742565b84612b02565b602080601f8311600114612bc257508190612bb3939495600092612bb7575b50508160011b916000199060031b1c19161790565b9055565b015190503880612b9e565b90601f19831695612bd885600052602060002090565b926000905b888210612c1557505083600195969710612bfc575b505050811b019055565b015160001960f88460031b161c19169055388080612bf2565b80600185968294968601518155019501930190612bdd565b6020808201908083528351809252604092604081018260408560051b8401019601946000925b858410612c64575050505050505090565b909192939495968580612ca7600193603f198682030188528b518760609163ffffffff815116845261ffff868201511686850152015191818982015201906108d1565b990194019401929594939190612c53565b9060009160005b8151811015612d4457600190612d3e6040612ce681612cde858861187e565b510151612d7e565b612d3981612cf4858861187e565b5101519163ffffffff612d07868961187e565b515116895261ffff602091600283528a2091612d23878a61187e565b5101511661ffff16600052602052604060002090565b612b58565b01612cbf565b507fbe4864a8e820971c0247f5992e2da559595f7bf076a21cb5928d443d2a13b674919250612d799060405191829182612c2d565b0390a1565b600361ffff60028301511603612d915750565b604051639a6d49cd60e01b81526020600482015290819061064f9060248301906108d1565b803403612dc05790565b6040516304fb820960e51b8152346004820152602490fd5b60405163393f876560e21b81526001600160a01b037f00000000000000000000000000000000000000000000000000000000000000008116926020929091908381600481885afa90811561032d57600091612ec8575b5016928315612eb6576040516323b872dd60e01b8482019081523360248301526001600160a01b0390921660448201526064810192909252600091612e768160848101611ee8565b519082855af11561195f576000513d612ead5750803b155b612e955750565b60249060405190635274afe760e01b82526004820152fd5b60011415612e8e565b6040516329b99a9560e11b8152600490fd5b90508381813d8311612ef7575b612edf81836107e8565b810103126103375751612ef18161033c565b38612e2e565b503d612ed556fe2ad87898e88d8c7dd85c5e4d423c60a47daae36492e01ae38da92251915e7885a264697066735822122013ca29affb104de5454b5d47d675f1e083bcf38f864e967d7cc557d9d442411764736f6c63430008160033",
  "devdoc": {
    "details": "This contract handles destination gas properly by sending gas along with LayerZero messages",
    "errors": {
      "OwnableInvalidOwner(address)": [
        {
          "details": "The owner is not a valid owner account. (eg. `address(0)`)"
        }
      ],
      "OwnableUnauthorizedAccount(address)": [
        {
          "details": "The caller account is not authorized to perform an operation."
        }
      ],
      "SafeERC20FailedOperation(address)": [
        {
          "details": "An operation with an ERC-20 token failed."
        }
      ]
    },
    "kind": "dev",
    "methods": {
      "allowInitializePath((uint32,bytes32,uint64))": {
        "details": "This indicates to the endpoint that the OApp has enabled msgs for this particular path to be received.This defaults to assuming if a peer has been set, its initialized. Can be overridden by the OApp if there is other logic to determine this.",
        "params": {
          "origin": "The origin information containing the source endpoint and sender address."
        },
        "returns": {
          "_0": "Whether the path has been initialized."
        }
      },
      "combineOptions(uint32,uint16,bytes)": {
        "details": "If there is an enforced lzReceive option: - {gasLimit: 200k, msg.value: 1 ether} AND a caller supplies a lzReceive option: {gasLimit: 100k, msg.value: 0.5 ether} - The resulting options will be {gasLimit: 300k, msg.value: 1.5 ether} when the message is executed on the remote lzReceive() function.This presence of duplicated options is handled off-chain in the verifier/executor.",
        "params": {
          "_eid": "The endpoint ID.",
          "_extraOptions": "Additional options passed by the caller.",
          "_msgType": "The OAPP message type."
        },
        "returns": {
          "_0": "options The combination of caller specified options AND enforced options."
        }
      },
      "constructor": {
        "params": {
          "_dexRouter": "The address of the PayfundsRouter02",
          "_lzEndpoint": "The LayerZero endpoint address",
          "_owner": "The owner of the contract",
          "_stablecoinOFT": "The OFT contract for the stablecoin"
        }
      },
      "crossChainSwap(uint32,bytes32,address,bytes32,uint256,uint256,bytes)": {
        "params": {
          "_amountIn": "The amount of source tokens to swap",
          "_amountOutMin": "The minimum amount of destination tokens to receive",
          "_destinationEid": "The LayerZero endpoint ID for the destination chain",
          "_destinationToken": "The token to receive on the destination chain (as bytes32)",
          "_options": "Additional options for the LayerZero message",
          "_recipient": "The recipient address on the destination chain (as bytes32)",
          "_sourceToken": "The token to swap on the source chain"
        }
      },
      "executeSwap(bytes32)": {
        "params": {
          "swapId": "The unique swap identifier"
        }
      },
      "isComposeMsgSender((uint32,bytes32,uint64),bytes,address)": {
        "details": "_origin The origin information containing the source endpoint and sender address.  - srcEid: The source chain endpoint ID.  - sender: The sender address on the src chain.  - nonce: The nonce of the message._message The lzReceive payload.Applications can optionally choose to implement separate composeMsg senders that are NOT the bridging layer.The default sender IS the OAppReceiver implementer.",
        "params": {
          "_sender": "The sender address."
        },
        "returns": {
          "_0": "isSender Is a valid sender."
        }
      },
      "lzReceive((uint32,bytes32,uint64),bytes32,bytes,address,bytes)": {
        "details": "Entry point for receiving messages or packets from the endpoint.Entry point for receiving msg/packet from the LayerZero endpoint.",
        "params": {
          "_executor": "The address of the executor for the received message.",
          "_extraData": "Additional arbitrary data provided by the corresponding executor.",
          "_guid": "The unique identifier for the received LayerZero message.",
          "_message": "The payload of the received message.",
          "_origin": "The origin information containing the source endpoint and sender address.  - srcEid: The source chain endpoint ID.  - sender: The sender address on the src chain.  - nonce: The nonce of the message."
        }
      },
      "nextNonce(uint32,bytes32)": {
        "details": "_srcEid The source endpoint ID._sender The sender address.The path nonce starts from 1. If 0 is returned it means that there is NO nonce ordered enforcement.Is required by the off-chain executor to determine the OApp expects msg execution is ordered.This is also enforced by the OApp.By default this is NOT enabled. ie. nextNonce is hardcoded to return 0.",
        "returns": {
          "nonce": "The next nonce."
        }
      },
      "oAppVersion()": {
        "returns": {
          "receiverVersion": "The version of the OAppReceiver.sol implementation.",
          "senderVersion": "The version of the OAppSender.sol implementation."
        }
      },
      "owner()": {
        "details": "Returns the address of the current owner."
      },
      "quote(uint32,bytes,bytes,bool)": {
        "params": {
          "_dstEid": "Destination endpoint ID",
          "_message": "Message payload",
          "_options": "LayerZero options",
          "_payInLzToken": "Whether to pay in LZ token"
        },
        "returns": {
          "fee": "The messaging fee"
        }
      },
      "quoteSwapFee(uint32,bytes32,bytes32,uint256,uint256,bytes)": {
        "params": {
          "_amountOutMin": "Minimum output amount",
          "_destinationEid": "The destination endpoint ID",
          "_destinationToken": "The destination token",
          "_options": "LayerZero options",
          "_recipient": "The recipient address",
          "_stableAmount": "Amount of stablecoins to bridge"
        },
        "returns": {
          "totalFee": "The total fee required"
        }
      },
      "renounceOwnership()": {
        "details": "Leaves the contract without owner. It will not be possible to call `onlyOwner` functions. Can only be called by the current owner. NOTE: Renouncing ownership will leave the contract without an owner, thereby disabling any functionality that is only available to the owner."
      },
      "setDelegate(address)": {
        "details": "Only the owner/admin of the OApp can call this function.Provides the ability for a delegate to set configs, on behalf of the OApp, directly on the Endpoint contract.",
        "params": {
          "_delegate": "The address of the delegate to be set."
        }
      },
      "setEnforcedOptions((uint32,uint16,bytes)[])": {
        "details": "Sets the enforced options for specific endpoint and message type combinations.Only the owner/admin of the OApp can call this function.Provides a way for the OApp to enforce things like paying for PreCrime, AND/OR minimum dst lzReceive gas amounts etc.These enforced options can vary as the potential options/execution on the remote may differ as per the msgType. eg. Amount of lzReceive() gas necessary to deliver a lzCompose() message adds overhead you dont want to pay if you are only making a standard LayerZero message ie. lzReceive() WITHOUT sendCompose().",
        "params": {
          "_enforcedOptions": "An array of EnforcedOptionParam structures specifying enforced options."
        }
      },
      "setPeer(uint32,bytes32)": {
        "details": "Only the owner/admin of the OApp can call this function.Indicates that the peer is trusted to send LayerZero messages to this OApp.Set this to bytes32(0) to remove the peer address.Peer is a bytes32 to accommodate non-evm chains.",
        "params": {
          "_eid": "The endpoint ID.",
          "_peer": "The address of the peer to be associated with the corresponding endpoint."
        }
      },
      "transferOwnership(address)": {
        "details": "Transfers ownership of the contract to a new account (`newOwner`). Can only be called by the current owner."
      }
    },
    "title": "CrossChainRouter",
    "version": 1
  },
  "userdoc": {
    "events": {
      "CrossChainSwapInitiated(address,uint32,bytes32,address,bytes32,uint256,uint256,uint256)": {
        "notice": "Events"
      }
    },
    "kind": "user",
    "methods": {
      "DESTINATION_GAS_LIMIT()": {
        "notice": "Gas amount required for destination swap execution"
      },
      "SWAP()": {
        "notice": "Message type for cross-chain swaps"
      },
      "_performSwap(uint256,uint256,bytes32,bytes32)": {
        "notice": "Perform the actual DEX swap (external for try/catch)"
      },
      "allowInitializePath((uint32,bytes32,uint64))": {
        "notice": "Checks if the path initialization is allowed based on the provided origin."
      },
      "combineOptions(uint32,uint16,bytes)": {
        "notice": "Combines options for a given endpoint and message type."
      },
      "constructor": {
        "notice": "Initializes the CrossChainRouter"
      },
      "crossChainSwap(uint32,bytes32,address,bytes32,uint256,uint256,bytes)": {
        "notice": "Initiates a complete cross-chain swap"
      },
      "dexRouter()": {
        "notice": "The local DEX router used for token swaps"
      },
      "endpoint()": {
        "notice": "Retrieves the LayerZero endpoint associated with the OApp."
      },
      "estimateDestinationOutput(bytes32,uint256)": {
        "notice": "Estimates the destination token output for a given stablecoin amount"
      },
      "estimateSwapOutput(address,uint256)": {
        "notice": "Estimates the output amount for a cross-chain swap"
      },
      "executeSwap(bytes32)": {
        "notice": "Manually execute a pending swap (in case automatic execution failed)"
      },
      "isComposeMsgSender((uint32,bytes32,uint64),bytes,address)": {
        "notice": "Indicates whether an address is an approved composeMsg sender to the Endpoint."
      },
      "nextNonce(uint32,bytes32)": {
        "notice": "Retrieves the next nonce for a given source endpoint and sender address."
      },
      "oAppVersion()": {
        "notice": "Retrieves the OApp version information."
      },
      "peers(uint32)": {
        "notice": "Retrieves the peer (OApp) associated with a corresponding endpoint."
      },
      "pendingSwaps(bytes32)": {
        "notice": "Pending swaps waiting for stablecoin arrival"
      },
      "quote(uint32,bytes,bytes,bool)": {
        "notice": "Public wrapper for the internal _quote function for external access"
      },
      "quoteSwapFee(uint32,bytes32,bytes32,uint256,uint256,bytes)": {
        "notice": "Quote total fees for cross-chain swap (OFT bridge + messaging with gas)"
      },
      "setDelegate(address)": {
        "notice": "Sets the delegate address for the OApp."
      },
      "setPeer(uint32,bytes32)": {
        "notice": "Sets the peer address (OApp instance) for a corresponding endpoint."
      },
      "stablecoin()": {
        "notice": "The stablecoin address used as an intermediary for cross-chain swaps"
      },
      "stablecoinOFT()": {
        "notice": "The stablecoin OFT contract used for bridging"
      }
    },
    "notice": "A router that enables complete cross-chain token swaps using LayerZero and PayfundsRouter",
    "version": 1
  },
  "storageLayout": {
    "storage": [
      {
        "astId": 3861,
        "contract": "contracts/CrossChainRouter.sol:CrossChainRouter",
        "label": "_owner",
        "offset": 0,
        "slot": "0",
        "type": "t_address"
      },
      {
        "astId": 1390,
        "contract": "contracts/CrossChainRouter.sol:CrossChainRouter",
        "label": "peers",
        "offset": 0,
        "slot": "1",
        "type": "t_mapping(t_uint32,t_bytes32)"
      },
      {
        "astId": 2006,
        "contract": "contracts/CrossChainRouter.sol:CrossChainRouter",
        "label": "enforcedOptions",
        "offset": 0,
        "slot": "2",
        "type": "t_mapping(t_uint32,t_mapping(t_uint16,t_bytes_storage))"
      },
      {
        "astId": 5479,
        "contract": "contracts/CrossChainRouter.sol:CrossChainRouter",
        "label": "pendingSwaps",
        "offset": 0,
        "slot": "3",
        "type": "t_mapping(t_bytes32,t_struct(PendingSwap)5494_storage)"
      }
    ],
    "types": {
      "t_address": {
        "encoding": "inplace",
        "label": "address",
        "numberOfBytes": "20"
      },
      "t_bool": {
        "encoding": "inplace",
        "label": "bool",
        "numberOfBytes": "1"
      },
      "t_bytes32": {
        "encoding": "inplace",
        "label": "bytes32",
        "numberOfBytes": "32"
      },
      "t_bytes_storage": {
        "encoding": "bytes",
        "label": "bytes",
        "numberOfBytes": "32"
      },
      "t_mapping(t_bytes32,t_struct(PendingSwap)5494_storage)": {
        "encoding": "mapping",
        "key": "t_bytes32",
        "label": "mapping(bytes32 => struct CrossChainRouter.PendingSwap)",
        "numberOfBytes": "32",
        "value": "t_struct(PendingSwap)5494_storage"
      },
      "t_mapping(t_uint16,t_bytes_storage)": {
        "encoding": "mapping",
        "key": "t_uint16",
        "label": "mapping(uint16 => bytes)",
        "numberOfBytes": "32",
        "value": "t_bytes_storage"
      },
      "t_mapping(t_uint32,t_bytes32)": {
        "encoding": "mapping",
        "key": "t_uint32",
        "label": "mapping(uint32 => bytes32)",
        "numberOfBytes": "32",
        "value": "t_bytes32"
      },
      "t_mapping(t_uint32,t_mapping(t_uint16,t_bytes_storage))": {
        "encoding": "mapping",
        "key": "t_uint32",
        "label": "mapping(uint32 => mapping(uint16 => bytes))",
        "numberOfBytes": "32",
        "value": "t_mapping(t_uint16,t_bytes_storage)"
      },
      "t_struct(PendingSwap)5494_storage": {
        "encoding": "inplace",
        "label": "struct CrossChainRouter.PendingSwap",
        "members": [
          {
            "astId": 5481,
            "contract": "contracts/CrossChainRouter.sol:CrossChainRouter",
            "label": "recipient",
            "offset": 0,
            "slot": "0",
            "type": "t_bytes32"
          },
          {
            "astId": 5483,
            "contract": "contracts/CrossChainRouter.sol:CrossChainRouter",
            "label": "destinationToken",
            "offset": 0,
            "slot": "1",
            "type": "t_bytes32"
          },
          {
            "astId": 5485,
            "contract": "contracts/CrossChainRouter.sol:CrossChainRouter",
            "label": "amountOutMin",
            "offset": 0,
            "slot": "2",
            "type": "t_uint256"
          },
          {
            "astId": 5487,
            "contract": "contracts/CrossChainRouter.sol:CrossChainRouter",
            "label": "stableAmount",
            "offset": 0,
            "slot": "3",
            "type": "t_uint256"
          },
          {
            "astId": 5489,
            "contract": "contracts/CrossChainRouter.sol:CrossChainRouter",
            "label": "refundRecipient",
            "offset": 0,
            "slot": "4",
            "type": "t_address"
          },
          {
            "astId": 5491,
            "contract": "contracts/CrossChainRouter.sol:CrossChainRouter",
            "label": "timestamp",
            "offset": 0,
            "slot": "5",
            "type": "t_uint256"
          },
          {
            "astId": 5493,
            "contract": "contracts/CrossChainRouter.sol:CrossChainRouter",
            "label": "executed",
            "offset": 0,
            "slot": "6",
            "type": "t_bool"
          }
        ],
        "numberOfBytes": "224"
      },
      "t_uint16": {
        "encoding": "inplace",
        "label": "uint16",
        "numberOfBytes": "2"
      },
      "t_uint256": {
        "encoding": "inplace",
        "label": "uint256",
        "numberOfBytes": "32"
      },
      "t_uint32": {
        "encoding": "inplace",
        "label": "uint32",
        "numberOfBytes": "4"
      }
    }
  }
}