{
  "address": "0x6DcC3258fB9F9355d7E4CDE912478369c55b8B6b",
  "abi": [
    {
      "inputs": [
        {
          "internalType": "address",
          "name": "_lzEndpoint",
          "type": "address"
        },
        {
          "internalType": "address",
          "name": "_owner",
          "type": "address"
        },
        {
          "internalType": "address",
          "name": "_dexRouter",
          "type": "address"
        },
        {
          "internalType": "address",
          "name": "_stablecoinOFT",
          "type": "address"
        }
      ],
      "stateMutability": "nonpayable",
      "type": "constructor"
    },
    {
      "inputs": [],
      "name": "InvalidComposeMsg",
      "type": "error"
    },
    {
      "inputs": [],
      "name": "InvalidDelegate",
      "type": "error"
    },
    {
      "inputs": [],
      "name": "InvalidEndpointCall",
      "type": "error"
    },
    {
      "inputs": [
        {
          "internalType": "bytes",
          "name": "options",
          "type": "bytes"
        }
      ],
      "name": "InvalidOptions",
      "type": "error"
    },
    {
      "inputs": [],
      "name": "LzTokenUnavailable",
      "type": "error"
    },
    {
      "inputs": [
        {
          "internalType": "uint32",
          "name": "eid",
          "type": "uint32"
        }
      ],
      "name": "NoPeer",
      "type": "error"
    },
    {
      "inputs": [
        {
          "internalType": "uint256",
          "name": "msgValue",
          "type": "uint256"
        }
      ],
      "name": "NotEnoughNative",
      "type": "error"
    },
    {
      "inputs": [
        {
          "internalType": "address",
          "name": "addr",
          "type": "address"
        }
      ],
      "name": "OnlyEndpoint",
      "type": "error"
    },
    {
      "inputs": [
        {
          "internalType": "uint32",
          "name": "eid",
          "type": "uint32"
        },
        {
          "internalType": "bytes32",
          "name": "sender",
          "type": "bytes32"
        }
      ],
      "name": "OnlyPeer",
      "type": "error"
    },
    {
      "inputs": [
        {
          "internalType": "address",
          "name": "owner",
          "type": "address"
        }
      ],
      "name": "OwnableInvalidOwner",
      "type": "error"
    },
    {
      "inputs": [
        {
          "internalType": "address",
          "name": "account",
          "type": "address"
        }
      ],
      "name": "OwnableUnauthorizedAccount",
      "type": "error"
    },
    {
      "anonymous": false,
      "inputs": [
        {
          "indexed": true,
          "internalType": "bytes32",
          "name": "recipient",
          "type": "bytes32"
        },
        {
          "indexed": false,
          "internalType": "bytes32",
          "name": "destinationToken",
          "type": "bytes32"
        },
        {
          "indexed": false,
          "internalType": "uint256",
          "name": "stableAmount",
          "type": "uint256"
        },
        {
          "indexed": false,
          "internalType": "uint256",
          "name": "amountOut",
          "type": "uint256"
        }
      ],
      "name": "CrossChainSwapCompleted",
      "type": "event"
    },
    {
      "anonymous": false,
      "inputs": [
        {
          "indexed": true,
          "internalType": "address",
          "name": "sender",
          "type": "address"
        },
        {
          "indexed": false,
          "internalType": "uint32",
          "name": "destinationEid",
          "type": "uint32"
        },
        {
          "indexed": false,
          "internalType": "bytes32",
          "name": "recipient",
          "type": "bytes32"
        },
        {
          "indexed": false,
          "internalType": "address",
          "name": "sourceToken",
          "type": "address"
        },
        {
          "indexed": false,
          "internalType": "bytes32",
          "name": "destinationToken",
          "type": "bytes32"
        },
        {
          "indexed": false,
          "internalType": "uint256",
          "name": "amountIn",
          "type": "uint256"
        },
        {
          "indexed": false,
          "internalType": "uint256",
          "name": "stableAmount",
          "type": "uint256"
        },
        {
          "indexed": false,
          "internalType": "uint256",
          "name": "amountOutMin",
          "type": "uint256"
        }
      ],
      "name": "CrossChainSwapInitiated",
      "type": "event"
    },
    {
      "anonymous": false,
      "inputs": [
        {
          "components": [
            {
              "internalType": "uint32",
              "name": "eid",
              "type": "uint32"
            },
            {
              "internalType": "uint16",
              "name": "msgType",
              "type": "uint16"
            },
            {
              "internalType": "bytes",
              "name": "options",
              "type": "bytes"
            }
          ],
          "indexed": false,
          "internalType": "struct EnforcedOptionParam[]",
          "name": "_enforcedOptions",
          "type": "tuple[]"
        }
      ],
      "name": "EnforcedOptionSet",
      "type": "event"
    },
    {
      "anonymous": false,
      "inputs": [
        {
          "indexed": true,
          "internalType": "address",
          "name": "previousOwner",
          "type": "address"
        },
        {
          "indexed": true,
          "internalType": "address",
          "name": "newOwner",
          "type": "address"
        }
      ],
      "name": "OwnershipTransferred",
      "type": "event"
    },
    {
      "anonymous": false,
      "inputs": [
        {
          "indexed": false,
          "internalType": "uint32",
          "name": "eid",
          "type": "uint32"
        },
        {
          "indexed": false,
          "internalType": "bytes32",
          "name": "peer",
          "type": "bytes32"
        }
      ],
      "name": "PeerSet",
      "type": "event"
    },
    {
      "inputs": [
        {
          "internalType": "address",
          "name": "_addr",
          "type": "address"
        }
      ],
      "name": "addressToBytes32",
      "outputs": [
        {
          "internalType": "bytes32",
          "name": "",
          "type": "bytes32"
        }
      ],
      "stateMutability": "pure",
      "type": "function"
    },
    {
      "inputs": [
        {
          "components": [
            {
              "internalType": "uint32",
              "name": "srcEid",
              "type": "uint32"
            },
            {
              "internalType": "bytes32",
              "name": "sender",
              "type": "bytes32"
            },
            {
              "internalType": "uint64",
              "name": "nonce",
              "type": "uint64"
            }
          ],
          "internalType": "struct Origin",
          "name": "origin",
          "type": "tuple"
        }
      ],
      "name": "allowInitializePath",
      "outputs": [
        {
          "internalType": "bool",
          "name": "",
          "type": "bool"
        }
      ],
      "stateMutability": "view",
      "type": "function"
    },
    {
      "inputs": [
        {
          "internalType": "uint32",
          "name": "_eid",
          "type": "uint32"
        },
        {
          "internalType": "uint16",
          "name": "_msgType",
          "type": "uint16"
        },
        {
          "internalType": "bytes",
          "name": "_extraOptions",
          "type": "bytes"
        }
      ],
      "name": "combineOptions",
      "outputs": [
        {
          "internalType": "bytes",
          "name": "",
          "type": "bytes"
        }
      ],
      "stateMutability": "view",
      "type": "function"
    },
    {
      "inputs": [
        {
          "internalType": "uint32",
          "name": "_destinationEid",
          "type": "uint32"
        },
        {
          "internalType": "bytes32",
          "name": "_recipient",
          "type": "bytes32"
        },
        {
          "internalType": "address",
          "name": "_sourceToken",
          "type": "address"
        },
        {
          "internalType": "bytes32",
          "name": "_destinationToken",
          "type": "bytes32"
        },
        {
          "internalType": "uint256",
          "name": "_amountIn",
          "type": "uint256"
        },
        {
          "internalType": "uint256",
          "name": "_amountOutMin",
          "type": "uint256"
        },
        {
          "internalType": "bytes",
          "name": "_options",
          "type": "bytes"
        }
      ],
      "name": "crossChainSwap",
      "outputs": [],
      "stateMutability": "payable",
      "type": "function"
    },
    {
      "inputs": [],
      "name": "dexRouter",
      "outputs": [
        {
          "internalType": "contract IPayfundsRouter02",
          "name": "",
          "type": "address"
        }
      ],
      "stateMutability": "view",
      "type": "function"
    },
    {
      "inputs": [],
      "name": "endpoint",
      "outputs": [
        {
          "internalType": "contract ILayerZeroEndpointV2",
          "name": "",
          "type": "address"
        }
      ],
      "stateMutability": "view",
      "type": "function"
    },
    {
      "inputs": [
        {
          "internalType": "uint32",
          "name": "eid",
          "type": "uint32"
        },
        {
          "internalType": "uint16",
          "name": "msgType",
          "type": "uint16"
        }
      ],
      "name": "enforcedOptions",
      "outputs": [
        {
          "internalType": "bytes",
          "name": "enforcedOption",
          "type": "bytes"
        }
      ],
      "stateMutability": "view",
      "type": "function"
    },
    {
      "inputs": [
        {
          "internalType": "address",
          "name": "_sourceToken",
          "type": "address"
        },
        {
          "internalType": "uint256",
          "name": "_amountIn",
          "type": "uint256"
        }
      ],
      "name": "estimateSwapOutput",
      "outputs": [
        {
          "internalType": "uint256",
          "name": "sourceStableAmount",
          "type": "uint256"
        }
      ],
      "stateMutability": "view",
      "type": "function"
    },
    {
      "inputs": [
        {
          "components": [
            {
              "internalType": "uint32",
              "name": "srcEid",
              "type": "uint32"
            },
            {
              "internalType": "bytes32",
              "name": "sender",
              "type": "bytes32"
            },
            {
              "internalType": "uint64",
              "name": "nonce",
              "type": "uint64"
            }
          ],
          "internalType": "struct Origin",
          "name": "",
          "type": "tuple"
        },
        {
          "internalType": "bytes",
          "name": "",
          "type": "bytes"
        },
        {
          "internalType": "address",
          "name": "_sender",
          "type": "address"
        }
      ],
      "name": "isComposeMsgSender",
      "outputs": [
        {
          "internalType": "bool",
          "name": "",
          "type": "bool"
        }
      ],
      "stateMutability": "view",
      "type": "function"
    },
    {
      "inputs": [
        {
          "internalType": "address",
          "name": "_from",
          "type": "address"
        },
        {
          "internalType": "bytes32",
          "name": "_guid",
          "type": "bytes32"
        },
        {
          "internalType": "bytes",
          "name": "_message",
          "type": "bytes"
        },
        {
          "internalType": "address",
          "name": "_executor",
          "type": "address"
        },
        {
          "internalType": "bytes",
          "name": "_extraData",
          "type": "bytes"
        }
      ],
      "name": "lzCompose",
      "outputs": [],
      "stateMutability": "payable",
      "type": "function"
    },
    {
      "inputs": [
        {
          "components": [
            {
              "internalType": "uint32",
              "name": "srcEid",
              "type": "uint32"
            },
            {
              "internalType": "bytes32",
              "name": "sender",
              "type": "bytes32"
            },
            {
              "internalType": "uint64",
              "name": "nonce",
              "type": "uint64"
            }
          ],
          "internalType": "struct Origin",
          "name": "_origin",
          "type": "tuple"
        },
        {
          "internalType": "bytes32",
          "name": "_guid",
          "type": "bytes32"
        },
        {
          "internalType": "bytes",
          "name": "_message",
          "type": "bytes"
        },
        {
          "internalType": "address",
          "name": "_executor",
          "type": "address"
        },
        {
          "internalType": "bytes",
          "name": "_extraData",
          "type": "bytes"
        }
      ],
      "name": "lzReceive",
      "outputs": [],
      "stateMutability": "payable",
      "type": "function"
    },
    {
      "inputs": [
        {
          "internalType": "uint32",
          "name": "",
          "type": "uint32"
        },
        {
          "internalType": "bytes32",
          "name": "",
          "type": "bytes32"
        }
      ],
      "name": "nextNonce",
      "outputs": [
        {
          "internalType": "uint64",
          "name": "nonce",
          "type": "uint64"
        }
      ],
      "stateMutability": "view",
      "type": "function"
    },
    {
      "inputs": [],
      "name": "oAppVersion",
      "outputs": [
        {
          "internalType": "uint64",
          "name": "senderVersion",
          "type": "uint64"
        },
        {
          "internalType": "uint64",
          "name": "receiverVersion",
          "type": "uint64"
        }
      ],
      "stateMutability": "pure",
      "type": "function"
    },
    {
      "inputs": [],
      "name": "owner",
      "outputs": [
        {
          "internalType": "address",
          "name": "",
          "type": "address"
        }
      ],
      "stateMutability": "view",
      "type": "function"
    },
    {
      "inputs": [
        {
          "internalType": "uint32",
          "name": "eid",
          "type": "uint32"
        }
      ],
      "name": "peers",
      "outputs": [
        {
          "internalType": "bytes32",
          "name": "peer",
          "type": "bytes32"
        }
      ],
      "stateMutability": "view",
      "type": "function"
    },
    {
      "inputs": [
        {
          "internalType": "uint32",
          "name": "_destinationEid",
          "type": "uint32"
        },
        {
          "internalType": "bytes32",
          "name": "_recipient",
          "type": "bytes32"
        },
        {
          "internalType": "bytes32",
          "name": "_destinationToken",
          "type": "bytes32"
        },
        {
          "internalType": "uint256",
          "name": "_amountOutMin",
          "type": "uint256"
        },
        {
          "internalType": "uint256",
          "name": "_stableAmount",
          "type": "uint256"
        },
        {
          "internalType": "bytes",
          "name": "_options",
          "type": "bytes"
        }
      ],
      "name": "quoteSwapFee",
      "outputs": [
        {
          "components": [
            {
              "internalType": "uint256",
              "name": "nativeFee",
              "type": "uint256"
            },
            {
              "internalType": "uint256",
              "name": "lzTokenFee",
              "type": "uint256"
            }
          ],
          "internalType": "struct MessagingFee",
          "name": "fee",
          "type": "tuple"
        }
      ],
      "stateMutability": "view",
      "type": "function"
    },
    {
      "inputs": [],
      "name": "renounceOwnership",
      "outputs": [],
      "stateMutability": "nonpayable",
      "type": "function"
    },
    {
      "inputs": [
        {
          "internalType": "address",
          "name": "_delegate",
          "type": "address"
        }
      ],
      "name": "setDelegate",
      "outputs": [],
      "stateMutability": "nonpayable",
      "type": "function"
    },
    {
      "inputs": [
        {
          "components": [
            {
              "internalType": "uint32",
              "name": "eid",
              "type": "uint32"
            },
            {
              "internalType": "uint16",
              "name": "msgType",
              "type": "uint16"
            },
            {
              "internalType": "bytes",
              "name": "options",
              "type": "bytes"
            }
          ],
          "internalType": "struct EnforcedOptionParam[]",
          "name": "_enforcedOptions",
          "type": "tuple[]"
        }
      ],
      "name": "setEnforcedOptions",
      "outputs": [],
      "stateMutability": "nonpayable",
      "type": "function"
    },
    {
      "inputs": [
        {
          "internalType": "uint32",
          "name": "_eid",
          "type": "uint32"
        },
        {
          "internalType": "bytes32",
          "name": "_peer",
          "type": "bytes32"
        }
      ],
      "name": "setPeer",
      "outputs": [],
      "stateMutability": "nonpayable",
      "type": "function"
    },
    {
      "inputs": [],
      "name": "stablecoin",
      "outputs": [
        {
          "internalType": "address",
          "name": "",
          "type": "address"
        }
      ],
      "stateMutability": "view",
      "type": "function"
    },
    {
      "inputs": [],
      "name": "stablecoinOFT",
      "outputs": [
        {
          "internalType": "contract IOFT",
          "name": "",
          "type": "address"
        }
      ],
      "stateMutability": "view",
      "type": "function"
    },
    {
      "inputs": [
        {
          "internalType": "address",
          "name": "newOwner",
          "type": "address"
        }
      ],
      "name": "transferOwnership",
      "outputs": [],
      "stateMutability": "nonpayable",
      "type": "function"
    },
    {
      "inputs": [
        {
          "internalType": "address payable",
          "name": "_to",
          "type": "address"
        },
        {
          "internalType": "uint256",
          "name": "_amount",
          "type": "uint256"
        }
      ],
      "name": "withdrawNative",
      "outputs": [],
      "stateMutability": "nonpayable",
      "type": "function"
    },
    {
      "inputs": [
        {
          "internalType": "contract IERC20",
          "name": "_token",
          "type": "address"
        },
        {
          "internalType": "address",
          "name": "_to",
          "type": "address"
        },
        {
          "internalType": "uint256",
          "name": "_amount",
          "type": "uint256"
        }
      ],
      "name": "withdrawToken",
      "outputs": [],
      "stateMutability": "nonpayable",
      "type": "function"
    },
    {
      "stateMutability": "payable",
      "type": "receive"
    }
  ],
  "transactionHash": "0x40e1dad88b0fac06b46d80ecb77be92d857000954059a4d61a9bb9fba4c06fe0",
  "args": [
    "0x6EDCE65403992e310A62460808c4b910D972f10f",
    "0x49f51e3C94B459677c3B1e611DB3E44d4E6b1D55",
    "0xA9a558fB3269F307eE57270b41fcBaFFC56d5290",
    "0xE449A2518cE31eE0ea5b42dC7E15D7FF39FFe282"
  ],
  "numDeployments": 1,
  "solcInputHash": "acb257ef4a6980d89fab61ddb5466c69",
  "bytecode": "0x6101006040523480156200001257600080fd5b5060405162002b6438038062002b64833981016040819052620000359162000198565b8284818181806001600160a01b0381166200006a57604051631e4fbdf760e01b81526000600482015260240160405180910390fd5b62000075816200012b565b506001600160a01b038083166080528116620000a457604051632d618d8160e21b815260040160405180910390fd5b60805160405163ca5eb5e160e01b81526001600160a01b0383811660048301529091169063ca5eb5e190602401600060405180830381600087803b158015620000ec57600080fd5b505af115801562000101573d6000803e3d6000fd5b505050506001600160a01b0396871660a05250505050911660c081905260e05250620001f5915050565b600080546001600160a01b038381166001600160a01b0319831681178455604051919092169283917f8be0079c531659141344cd1fd0a4f28419497f9722a3daafe3b4186f6b6457e09190a35050565b80516001600160a01b03811681146200019357600080fd5b919050565b60008060008060808587031215620001af57600080fd5b620001ba856200017b565b9350620001ca602086016200017b565b9250620001da604086016200017b565b9150620001ea606086016200017b565b905092959194509250565b60805160a05160c05160e0516128b7620002ad600039600081816104d5015281816109d201528181610c04015281816111bc015281816112c90152818161135a01526116cf01526000818161035f01528181610e12015281816110e0015281816116a0015281816117e101526118c50152600081816101aa015281816108fe01528181610a1f01528181610c5e0152818161129a01526113d30152600081816102b0015281816106b8015261107f01526128b76000f3fe60806040526004361061016a5760003560e01c80637d61cf0d116100d1578063bb0b6a531161008a578063d0a1026011610064578063d0a10260146104b0578063e9cbd822146104c3578063f2fde38b146104f7578063ff7bd03d1461051757600080fd5b8063bb0b6a5314610443578063bc70b35414610470578063ca5eb5e11461049057600080fd5b80637d61cf0d1461034d57806382413eac1461038157806382c947b7146103b1578063891e2776146103d85780638da5cb5b14610405578063b98bd0701461042357600080fd5b80635535d461116101235780635535d4611461025e5780635a5ef6551461028b5780635e280f111461029e57806368a88e81146102d2578063715018a6146103005780637d25a05e1461031557600080fd5b806301e33667146101765780630758d9241461019857806307b18bde146101e957806313137d651461020957806317442b701461021c5780633400288b1461023e57600080fd5b3661017157005b600080fd5b34801561018257600080fd5b50610196610191366004611b5a565b610537565b005b3480156101a457600080fd5b506101cc7f000000000000000000000000000000000000000000000000000000000000000081565b6040516001600160a01b0390911681526020015b60405180910390f35b3480156101f557600080fd5b50610196610204366004611b9b565b610639565b610196610217366004611c27565b6106b6565b34801561022857600080fd5b50604080516001815260026020820152016101e0565b34801561024a57600080fd5b50610196610259366004611cdf565b610771565b34801561026a57600080fd5b5061027e610279366004611d0d565b610787565b6040516101e09190611d90565b610196610299366004611da3565b61082c565b3480156102aa57600080fd5b506101cc7f000000000000000000000000000000000000000000000000000000000000000081565b3480156102de57600080fd5b506102f26102ed366004611b9b565b610ba9565b6040519081526020016101e0565b34801561030c57600080fd5b50610196610d0d565b34801561032157600080fd5b50610335610330366004611cdf565b610d21565b6040516001600160401b0390911681526020016101e0565b34801561035957600080fd5b506101cc7f000000000000000000000000000000000000000000000000000000000000000081565b34801561038d57600080fd5b506103a161039c366004611e2f565b610d2a565b60405190151581526020016101e0565b3480156103bd57600080fd5b506102f26103cc366004611e95565b6001600160a01b031690565b3480156103e457600080fd5b506103f86103f3366004611eb2565b610d3f565b6040516101e09190611f19565b34801561041157600080fd5b506000546001600160a01b03166101cc565b34801561042f57600080fd5b5061019661043e366004611f30565b610e96565b34801561044f57600080fd5b506102f261045e366004611fa4565b60016020526000908152604090205481565b34801561047c57600080fd5b5061027e61048b366004611fbf565b610eb0565b34801561049c57600080fd5b506101966104ab366004611e95565b611058565b6101966104be36600461201f565b6110de565b3480156104cf57600080fd5b506101cc7f000000000000000000000000000000000000000000000000000000000000000081565b34801561050357600080fd5b50610196610512366004611e95565b6114f5565b34801561052357600080fd5b506103a161053236600461209f565b611533565b6000546001600160a01b031633146105835760405162461bcd60e51b815260206004820152600a60248201526927b7363c9037bbb732b960b11b60448201526064015b60405180910390fd5b60405163a9059cbb60e01b81526001600160a01b0383811660048301526024820183905284169063a9059cbb906044016020604051808303816000875af11580156105d2573d6000803e3d6000fd5b505050506040513d601f19601f820116820180604052508101906105f691906120bb565b6106345760405162461bcd60e51b815260206004820152600f60248201526e151c985b9cd9995c8819985a5b1959608a1b604482015260640161057a565b505050565b6000546001600160a01b031633146106805760405162461bcd60e51b815260206004820152600a60248201526927b7363c9037bbb732b960b11b604482015260640161057a565b6040516001600160a01b0383169082156108fc029083906000818181858888f19350505050158015610634573d6000803e3d6000fd5b7f00000000000000000000000000000000000000000000000000000000000000006001600160a01b03163314610701576040516391ac5e4f60e01b815233600482015260240161057a565b6020870180359061071b90610716908a611fa4565b611569565b146107595761072d6020880188611fa4565b60405163309afaf360e21b815263ffffffff90911660048201526020880135602482015260440161057a565b610768878787878787876115a5565b50505050505050565b610779611607565b6107838282611634565b5050565b6002602090815260009283526040808420909152908252902080546107ab906120dd565b80601f01602080910402602001604051908101604052809291908181526020018280546107d7906120dd565b80156108245780601f106107f957610100808354040283529160200191610824565b820191906000526020600020905b81548152906001019060200180831161080757829003601f168201915b505050505081565b6040516323b872dd60e01b8152336004820152306024820152604481018590526001600160a01b038716906323b872dd906064016020604051808303816000875af115801561087f573d6000803e3d6000fd5b505050506040513d601f19601f820116820180604052508101906108a391906120bb565b6108e75760405162461bcd60e51b8152602060048201526015602482015274151bdad95b881d1c985b9cd9995c8819985a5b1959605a1b604482015260640161057a565b60405163095ea7b360e01b81526001600160a01b037f0000000000000000000000000000000000000000000000000000000000000000811660048301526024820186905287169063095ea7b3906044016020604051808303816000875af1158015610956573d6000803e3d6000fd5b505050506040513d601f19601f8201168201806040525081019061097a91906120bb565b5060408051600280825260608201835260009260208301908036833701905050905086816000815181106109b0576109b0612127565b60200260200101906001600160a01b031690816001600160a01b0316815250507f000000000000000000000000000000000000000000000000000000000000000081600181518110610a0457610a04612127565b6001600160a01b0392831660209182029290920101526000907f0000000000000000000000000000000000000000000000000000000000000000166338ed173987838530610a54426104b0612153565b6040518663ffffffff1660e01b8152600401610a749594939291906121ab565b6000604051808303816000875af1158015610a93573d6000803e3d6000fd5b505050506040513d6000823e601f3d908101601f19168201604052610abb9190810190612262565b905060008160018351610ace91906122f7565b81518110610ade57610ade612127565b6020026020010151905060008a8988604051602001610b10939291909283526020830191909152604082015260600190565b6040516020818303038152906040529050610b2e8c83838989611689565b6040805163ffffffff8e168152602081018d90526001600160a01b038c1681830152606081018b9052608081018a905260a0810184905260c08101899052905133917fabc44f0535f939ebb721351addb80fec24670284d6ab1957041eb8aac7514b09919081900360e00190a2505050505050505050505050565b604080516002808252606082018352600092839291906020830190803683370190505090508381600081518110610be257610be2612127565b60200260200101906001600160a01b031690816001600160a01b0316815250507f000000000000000000000000000000000000000000000000000000000000000081600181518110610c3657610c36612127565b6001600160a01b03928316602091820292909201015260405163d06ca61f60e01b81526000917f0000000000000000000000000000000000000000000000000000000000000000169063d06ca61f90610c95908790869060040161230a565b600060405180830381865afa158015610cb2573d6000803e3d6000fd5b505050506040513d6000823e601f3d908101601f19168201604052610cda9190810190612262565b90508060018251610ceb91906122f7565b81518110610cfb57610cfb612127565b60200260200101519250505092915050565b610d15611607565b610d1f600061194c565b565b60005b92915050565b6001600160a01b03811630145b949350505050565b604080518082019091526000808252602082015260408051602081018990529081018790526060810186905260009060800160408051808303601f1901815260e0830190915263ffffffff8b16825291506000906020810130815260200187815260200187815260200186868080601f01602080910402602001604051908101604052809392919081815260200183838082843760009201829052509385525050506020808301869052604080519182018152828252928301529051633b6f743b60e01b81529192506001600160a01b037f00000000000000000000000000000000000000000000000000000000000000001691633b6f743b91610e48918591906004016123a2565b6040805180830381865afa158015610e64573d6000803e3d6000fd5b505050506040513d601f19601f82011682018060405250810190610e889190612414565b9a9950505050505050505050565b610e9e611607565b610783610eab8284612430565b61199c565b63ffffffff8416600090815260026020908152604080832061ffff87168452909152812080546060929190610ee4906120dd565b80601f0160208091040260200160405190810160405280929190818152602001828054610f10906120dd565b8015610f5d5780601f10610f3257610100808354040283529160200191610f5d565b820191906000526020600020905b815481529060010190602001808311610f4057829003601f168201915b505050505090508051600003610fad5783838080601f016020809104026020016040519081016040528093929190818152602001838380828437600092019190915250929450610d379350505050565b6000839003610fbd579050610d37565b6002831061103b5761100484848080601f016020809104026020016040519081016040528093929190818152602001838380828437600092019190915250611aae92505050565b80611012846002818861254d565b60405160200161102493929190612577565b604051602081830303815290604052915050610d37565b8383604051639a6d49cd60e01b815260040161057a92919061259f565b611060611607565b60405163ca5eb5e160e01b81526001600160a01b0382811660048301527f0000000000000000000000000000000000000000000000000000000000000000169063ca5eb5e190602401600060405180830381600087803b1580156110c357600080fd5b505af11580156110d7573d6000803e3d6000fd5b5050505050565b7f00000000000000000000000000000000000000000000000000000000000000006001600160a01b0316876001600160a01b03161461115f5760405162461bcd60e51b815260206004820152601b60248201527f556e617574686f72697a656420636f6d706f73652063616c6c65720000000000604482015260640161057a565b600061116b8686611ada565b905060006111798787611afa565b905060008060008380602001905181019061119491906125ce565b6040516370a0823160e01b815230600482015292955090935091506000906001600160a01b037f000000000000000000000000000000000000000000000000000000000000000016906370a0823190602401602060405180830381865afa158015611203573d6000803e3d6000fd5b505050506040513d601f19601f8201168201806040525081019061122791906125fc565b9050858110156112835760405162461bcd60e51b815260206004820152602160248201527f496e73756666696369656e7420737461626c65636f696e7320726563656976656044820152601960fa1b606482015260840161057a565b60405163095ea7b360e01b81526001600160a01b037f000000000000000000000000000000000000000000000000000000000000000081166004830152602482018890527f0000000000000000000000000000000000000000000000000000000000000000169063095ea7b3906044016020604051808303816000875af1158015611312573d6000803e3d6000fd5b505050506040513d601f19601f8201168201806040525081019061133691906120bb565b506040805160028082526060820183526000926020830190803683370190505090507f00000000000000000000000000000000000000000000000000000000000000008160008151811061138c5761138c612127565b6001600160a01b039092166020928302919091019091015283816001815181106113b8576113b8612127565b6001600160a01b0392831660209182029290920101526000907f0000000000000000000000000000000000000000000000000000000000000000166338ed17398986858a611408426104b0612153565b6040518663ffffffff1660e01b81526004016114289594939291906121ab565b6000604051808303816000875af1158015611447573d6000803e3d6000fd5b505050506040513d6000823e601f3d908101601f1916820160405261146f9190810190612262565b9050857ffe3f231b902a93d511942a746e055cf9fab959274e69dccb106ec56c68a2d4a1868a84600186516114a491906122f7565b815181106114b4576114b4612127565b60200260200101516040516114dc939291909283526020830191909152604082015260600190565b60405180910390a2505050505050505050505050505050565b6114fd611607565b6001600160a01b03811661152757604051631e4fbdf760e01b81526000600482015260240161057a565b6115308161194c565b50565b600060208201803590600190839061154b9086611fa4565b63ffffffff1681526020810191909152604001600020541492915050565b63ffffffff811660009081526001602052604081205480610d245760405163f6ff4fb760e01b815263ffffffff8416600482015260240161057a565b60405162461bcd60e51b815260206004820152603160248201527f43726f7373436861696e526f757465723a204f6e6c7920636f6d706f7365206d604482015270195cdcd859d95cc81cdd5c1c1bdc9d1959607a1b606482015260840161057a565b6000546001600160a01b03163314610d1f5760405163118cdaa760e01b815233600482015260240161057a565b63ffffffff8216600081815260016020908152604091829020849055815192835282018390527f238399d427b947898edb290f5ff0f9109849b1c3ba196a42e35f00c50a54b98b910160405180910390a15050565b60405163095ea7b360e01b81526001600160a01b037f000000000000000000000000000000000000000000000000000000000000000081166004830152602482018690527f0000000000000000000000000000000000000000000000000000000000000000169063095ea7b3906044016020604051808303816000875af1158015611718573d6000803e3d6000fd5b505050506040513d601f19601f8201168201806040525081019061173c91906120bb565b5060006040518060e001604052808763ffffffff168152602001611766306001600160a01b031690565b815260200186815260200186815260200184848080601f01602080910402602001604051908101604052809392919081815260200183838082843760009201829052509385525050506020808301889052604080519182018152828252928301529051633b6f743b60e01b8152919250906001600160a01b037f00000000000000000000000000000000000000000000000000000000000000001690633b6f743b9061181890859085906004016123a2565b6040805180830381865afa158015611834573d6000803e3d6000fd5b505050506040513d601f19601f820116820180604052508101906118589190612414565b80519091503410156118ac5760405162461bcd60e51b815260206004820152601d60248201527f496e73756666696369656e742066656520666f72204f46542073656e64000000604482015260640161057a565b805160405163c7c7f5b360e01b81526001600160a01b037f0000000000000000000000000000000000000000000000000000000000000000169163c7c7f5b3916118fe90869086903390600401612615565b60c06040518083038185885af115801561191c573d6000803e3d6000fd5b50505050506040513d601f19601f82011682018060405250810190611941919061265a565b505050505050505050565b600080546001600160a01b038381166001600160a01b0319831681178455604051919092169283917f8be0079c531659141344cd1fd0a4f28419497f9722a3daafe3b4186f6b6457e09190a35050565b60005b8151811015611a73576119ce8282815181106119bd576119bd612127565b602002602001015160400151611aae565b8181815181106119e0576119e0612127565b60200260200101516040015160026000848481518110611a0257611a02612127565b60200260200101516000015163ffffffff1663ffffffff1681526020019081526020016000206000848481518110611a3c57611a3c612127565b60200260200101516020015161ffff1661ffff1681526020019081526020016000209081611a6a9190612719565b5060010161199f565b507fbe4864a8e820971c0247f5992e2da559595f7bf076a21cb5928d443d2a13b67481604051611aa391906127d8565b60405180910390a150565b600281015161ffff81166003146107835781604051639a6d49cd60e01b815260040161057a9190611d90565b6000611aea602c600c848661254d565b611af391612863565b9392505050565b6060611b0982604c818661254d565b8080601f016020809104026020016040519081016040528093929190818152602001838380828437600092019190915250929695505050505050565b6001600160a01b038116811461153057600080fd5b600080600060608486031215611b6f57600080fd5b8335611b7a81611b45565b92506020840135611b8a81611b45565b929592945050506040919091013590565b60008060408385031215611bae57600080fd5b8235611bb981611b45565b946020939093013593505050565b600060608284031215611bd957600080fd5b50919050565b60008083601f840112611bf157600080fd5b5081356001600160401b03811115611c0857600080fd5b602083019150836020828501011115611c2057600080fd5b9250929050565b600080600080600080600060e0888a031215611c4257600080fd5b611c4c8989611bc7565b96506060880135955060808801356001600160401b0380821115611c6f57600080fd5b611c7b8b838c01611bdf565b909750955060a08a01359150611c9082611b45565b90935060c08901359080821115611ca657600080fd5b50611cb38a828b01611bdf565b989b979a50959850939692959293505050565b803563ffffffff81168114611cda57600080fd5b919050565b60008060408385031215611cf257600080fd5b611bb983611cc6565b803561ffff81168114611cda57600080fd5b60008060408385031215611d2057600080fd5b611d2983611cc6565b9150611d3760208401611cfb565b90509250929050565b60005b83811015611d5b578181015183820152602001611d43565b50506000910152565b60008151808452611d7c816020860160208601611d40565b601f01601f19169290920160200192915050565b602081526000611af36020830184611d64565b60008060008060008060008060e0898b031215611dbf57600080fd5b611dc889611cc6565b9750602089013596506040890135611ddf81611b45565b9550606089013594506080890135935060a0890135925060c08901356001600160401b03811115611e0f57600080fd5b611e1b8b828c01611bdf565b999c989b5096995094979396929594505050565b60008060008060a08587031215611e4557600080fd5b611e4f8686611bc7565b935060608501356001600160401b03811115611e6a57600080fd5b611e7687828801611bdf565b9094509250506080850135611e8a81611b45565b939692955090935050565b600060208284031215611ea757600080fd5b8135611af381611b45565b600080600080600080600060c0888a031215611ecd57600080fd5b611ed688611cc6565b96506020880135955060408801359450606088013593506080880135925060a08801356001600160401b03811115611f0d57600080fd5b611cb38a828b01611bdf565b815181526020808301519082015260408101610d24565b60008060208385031215611f4357600080fd5b82356001600160401b0380821115611f5a57600080fd5b818501915085601f830112611f6e57600080fd5b813581811115611f7d57600080fd5b8660208260051b8501011115611f9257600080fd5b60209290920196919550909350505050565b600060208284031215611fb657600080fd5b611af382611cc6565b60008060008060608587031215611fd557600080fd5b611fde85611cc6565b9350611fec60208601611cfb565b925060408501356001600160401b0381111561200757600080fd5b61201387828801611bdf565b95989497509550505050565b600080600080600080600060a0888a03121561203a57600080fd5b873561204581611b45565b96506020880135955060408801356001600160401b038082111561206857600080fd5b6120748b838c01611bdf565b909750955060608a0135915061208982611b45565b90935060808901359080821115611ca657600080fd5b6000606082840312156120b157600080fd5b611af38383611bc7565b6000602082840312156120cd57600080fd5b81518015158114611af357600080fd5b600181811c908216806120f157607f821691505b602082108103611bd957634e487b7160e01b600052602260045260246000fd5b634e487b7160e01b600052604160045260246000fd5b634e487b7160e01b600052603260045260246000fd5b634e487b7160e01b600052601160045260246000fd5b80820180821115610d2457610d2461213d565b60008151808452602080850194506020840160005b838110156121a05781516001600160a01b03168752958201959082019060010161217b565b509495945050505050565b85815284602082015260a0604082015260006121ca60a0830186612166565b6001600160a01b0394909416606083015250608001529392505050565b604051606081016001600160401b038111828210171561220957612209612111565b60405290565b604051601f8201601f191681016001600160401b038111828210171561223757612237612111565b604052919050565b60006001600160401b0382111561225857612258612111565b5060051b60200190565b6000602080838503121561227557600080fd5b82516001600160401b0381111561228b57600080fd5b8301601f8101851361229c57600080fd5b80516122af6122aa8261223f565b61220f565b81815260059190911b820183019083810190878311156122ce57600080fd5b928401925b828410156122ec578351825292840192908401906122d3565b979650505050505050565b81810381811115610d2457610d2461213d565b828152604060208201526000610d376040830184612166565b63ffffffff81511682526020810151602083015260408101516040830152606081015160608301526000608082015160e0608085015261236660e0850182611d64565b905060a083015184820360a086015261237f8282611d64565b91505060c083015184820360c08601526123998282611d64565b95945050505050565b6040815260006123b56040830185612323565b905082151560208301529392505050565b6000604082840312156123d857600080fd5b604051604081018181106001600160401b03821117156123fa576123fa612111565b604052825181526020928301519281019290925250919050565b60006040828403121561242657600080fd5b611af383836123c6565b600061243e6122aa8461223f565b80848252602080830192508560051b85013681111561245c57600080fd5b855b818110156125415780356001600160401b038082111561247e5760008081fd5b8189019150606082360312156124945760008081fd5b61249c6121e7565b6124a583611cc6565b81526124b2868401611cfb565b86820152604080840135838111156124ca5760008081fd5b9390930192601f36818601126124e05760008081fd5b8435848111156124f2576124f2612111565b612503818301601f19168a0161220f565b9450808552368982880101111561251c57600091508182fd5b808987018a87013760009085018901525081019190915286525093820193820161245e565b50919695505050505050565b6000808585111561255d57600080fd5b8386111561256a57600080fd5b5050820193919092039150565b60008451612589818460208901611d40565b8201838582376000930192835250909392505050565b60208152816020820152818360408301376000818301604090810191909152601f909201601f19160101919050565b6000806000606084860312156125e357600080fd5b8351925060208401519150604084015190509250925092565b60006020828403121561260e57600080fd5b5051919050565b6080815260006126286080830186612323565b9050612641602083018580518252602090810151910152565b6001600160a01b03929092166060919091015292915050565b60008082840360c081121561266e57600080fd5b608081121561267c57600080fd5b506126856121e7565b8351815260208401516001600160401b03811681146126a357600080fd5b60208201526126b585604086016123c6565b60408201529150611d3784608085016123c6565b601f821115610634576000816000526020600020601f850160051c810160208610156126f25750805b601f850160051c820191505b81811015612711578281556001016126fe565b505050505050565b81516001600160401b0381111561273257612732612111565b6127468161274084546120dd565b846126c9565b602080601f83116001811461277b57600084156127635750858301515b600019600386901b1c1916600185901b178555612711565b600085815260208120601f198616915b828110156127aa5788860151825594840194600190910190840161278b565b50858210156127c85787850151600019600388901b60f8161c191681555b5050505050600190811b01905550565b600060208083018184528085518083526040925060408601915060408160051b87010184880160005b8381101561285557888303603f190185528151805163ffffffff1684528781015161ffff1688850152860151606087850181905261284181860183611d64565b968901969450505090860190600101612801565b509098975050505050505050565b80356020831015610d2457600019602084900360031b1b169291505056fea2646970667358221220bbb588d1b2a88de7c4fd4acd1522038b5357b6aa66aa079ead8bd02a2fd2289064736f6c63430008160033",
  "devdoc": {
    "details": "This contract receives stablecoins via OFT and performs swaps using lzCompose",
    "errors": {
      "OwnableInvalidOwner(address)": [
        {
          "details": "The owner is not a valid owner account. (eg. `address(0)`)"
        }
      ],
      "OwnableUnauthorizedAccount(address)": [
        {
          "details": "The caller account is not authorized to perform an operation."
        }
      ]
    },
    "kind": "dev",
    "methods": {
      "addressToBytes32(address)": {
        "params": {
          "_addr": "The address to convert"
        },
        "returns": {
          "_0": "The converted bytes32 value"
        }
      },
      "allowInitializePath((uint32,bytes32,uint64))": {
        "details": "This indicates to the endpoint that the OApp has enabled msgs for this particular path to be received.This defaults to assuming if a peer has been set, its initialized. Can be overridden by the OApp if there is other logic to determine this.",
        "params": {
          "origin": "The origin information containing the source endpoint and sender address."
        },
        "returns": {
          "_0": "Whether the path has been initialized."
        }
      },
      "combineOptions(uint32,uint16,bytes)": {
        "details": "If there is an enforced lzReceive option: - {gasLimit: 200k, msg.value: 1 ether} AND a caller supplies a lzReceive option: {gasLimit: 100k, msg.value: 0.5 ether} - The resulting options will be {gasLimit: 300k, msg.value: 1.5 ether} when the message is executed on the remote lzReceive() function.This presence of duplicated options is handled off-chain in the verifier/executor.",
        "params": {
          "_eid": "The endpoint ID.",
          "_extraOptions": "Additional options passed by the caller.",
          "_msgType": "The OAPP message type."
        },
        "returns": {
          "_0": "options The combination of caller specified options AND enforced options."
        }
      },
      "constructor": {
        "params": {
          "_dexRouter": "The address of the PayfundsRouter02",
          "_lzEndpoint": "The LayerZero endpoint address",
          "_owner": "The owner of the contract",
          "_stablecoinOFT": "The OFT contract for the stablecoin"
        }
      },
      "crossChainSwap(uint32,bytes32,address,bytes32,uint256,uint256,bytes)": {
        "params": {
          "_amountIn": "The amount of source tokens to swap",
          "_amountOutMin": "The minimum amount of destination tokens to receive",
          "_destinationEid": "The LayerZero endpoint ID for the destination chain",
          "_destinationToken": "The token to receive on the destination chain (as bytes32)",
          "_options": "Additional options for the LayerZero message",
          "_recipient": "The recipient address on the destination chain (as bytes32)",
          "_sourceToken": "The token to swap on the source chain"
        }
      },
      "estimateSwapOutput(address,uint256)": {
        "params": {
          "_amountIn": "The amount of source tokens to swap",
          "_sourceToken": "The token to swap on the source chain"
        },
        "returns": {
          "sourceStableAmount": "The estimated amount of stablecoin after source swap"
        }
      },
      "isComposeMsgSender((uint32,bytes32,uint64),bytes,address)": {
        "details": "_origin The origin information containing the source endpoint and sender address.  - srcEid: The source chain endpoint ID.  - sender: The sender address on the src chain.  - nonce: The nonce of the message._message The lzReceive payload.Applications can optionally choose to implement separate composeMsg senders that are NOT the bridging layer.The default sender IS the OAppReceiver implementer.",
        "params": {
          "_sender": "The sender address."
        },
        "returns": {
          "_0": "isSender Is a valid sender."
        }
      },
      "lzCompose(address,bytes32,bytes,address,bytes)": {
        "params": {
          "_executor": "The executor address",
          "_extraData": "Additional data",
          "_from": "The source address (OFT contract)",
          "_guid": "The global unique identifier",
          "_message": "The compose message containing swap instructions"
        }
      },
      "lzReceive((uint32,bytes32,uint64),bytes32,bytes,address,bytes)": {
        "details": "Entry point for receiving messages or packets from the endpoint.Entry point for receiving msg/packet from the LayerZero endpoint.",
        "params": {
          "_executor": "The address of the executor for the received message.",
          "_extraData": "Additional arbitrary data provided by the corresponding executor.",
          "_guid": "The unique identifier for the received LayerZero message.",
          "_message": "The payload of the received message.",
          "_origin": "The origin information containing the source endpoint and sender address.  - srcEid: The source chain endpoint ID.  - sender: The sender address on the src chain.  - nonce: The nonce of the message."
        }
      },
      "nextNonce(uint32,bytes32)": {
        "details": "_srcEid The source endpoint ID._sender The sender address.The path nonce starts from 1. If 0 is returned it means that there is NO nonce ordered enforcement.Is required by the off-chain executor to determine the OApp expects msg execution is ordered.This is also enforced by the OApp.By default this is NOT enabled. ie. nextNonce is hardcoded to return 0.",
        "returns": {
          "nonce": "The next nonce."
        }
      },
      "oAppVersion()": {
        "returns": {
          "receiverVersion": "The version of the OAppReceiver.sol implementation.",
          "senderVersion": "The version of the OAppSender.sol implementation."
        }
      },
      "owner()": {
        "details": "Returns the address of the current owner."
      },
      "quoteSwapFee(uint32,bytes32,bytes32,uint256,uint256,bytes)": {
        "params": {
          "_amountOutMin": "The minimum amount of destination tokens to receive",
          "_destinationEid": "The LayerZero endpoint ID for the destination chain",
          "_destinationToken": "The token to receive on the destination chain (as bytes32)",
          "_options": "Additional options for the LayerZero message",
          "_recipient": "The recipient address on the destination chain (as bytes32)",
          "_stableAmount": "The amount of stablecoins to send"
        },
        "returns": {
          "fee": "The messaging fee required for the cross-chain swap"
        }
      },
      "renounceOwnership()": {
        "details": "Leaves the contract without owner. It will not be possible to call `onlyOwner` functions. Can only be called by the current owner. NOTE: Renouncing ownership will leave the contract without an owner, thereby disabling any functionality that is only available to the owner."
      },
      "setDelegate(address)": {
        "details": "Only the owner/admin of the OApp can call this function.Provides the ability for a delegate to set configs, on behalf of the OApp, directly on the Endpoint contract.",
        "params": {
          "_delegate": "The address of the delegate to be set."
        }
      },
      "setEnforcedOptions((uint32,uint16,bytes)[])": {
        "details": "Sets the enforced options for specific endpoint and message type combinations.Only the owner/admin of the OApp can call this function.Provides a way for the OApp to enforce things like paying for PreCrime, AND/OR minimum dst lzReceive gas amounts etc.These enforced options can vary as the potential options/execution on the remote may differ as per the msgType. eg. Amount of lzReceive() gas necessary to deliver a lzCompose() message adds overhead you dont want to pay if you are only making a standard LayerZero message ie. lzReceive() WITHOUT sendCompose().",
        "params": {
          "_enforcedOptions": "An array of EnforcedOptionParam structures specifying enforced options."
        }
      },
      "setPeer(uint32,bytes32)": {
        "details": "Only the owner/admin of the OApp can call this function.Indicates that the peer is trusted to send LayerZero messages to this OApp.Set this to bytes32(0) to remove the peer address.Peer is a bytes32 to accommodate non-evm chains.",
        "params": {
          "_eid": "The endpoint ID.",
          "_peer": "The address of the peer to be associated with the corresponding endpoint."
        }
      },
      "transferOwnership(address)": {
        "details": "Transfers ownership of the contract to a new account (`newOwner`). Can only be called by the current owner."
      },
      "withdrawNative(address,uint256)": {
        "params": {
          "_amount": "The amount to withdraw",
          "_to": "The recipient address"
        }
      },
      "withdrawToken(address,address,uint256)": {
        "params": {
          "_amount": "The amount to withdraw",
          "_to": "The recipient address",
          "_token": "The token to withdraw"
        }
      }
    },
    "title": "CrossChainRouter",
    "version": 1
  },
  "userdoc": {
    "errors": {
      "InvalidComposeMsg()": [
        {
          "notice": "Error when compose message is invalid"
        }
      ]
    },
    "events": {
      "CrossChainSwapCompleted(bytes32,bytes32,uint256,uint256)": {
        "notice": "Emitted when a cross-chain swap is completed"
      },
      "CrossChainSwapInitiated(address,uint32,bytes32,address,bytes32,uint256,uint256,uint256)": {
        "notice": "Emitted when a cross-chain swap is initiated"
      }
    },
    "kind": "user",
    "methods": {
      "addressToBytes32(address)": {
        "notice": "Helper function to convert an address to bytes32"
      },
      "allowInitializePath((uint32,bytes32,uint64))": {
        "notice": "Checks if the path initialization is allowed based on the provided origin."
      },
      "combineOptions(uint32,uint16,bytes)": {
        "notice": "Combines options for a given endpoint and message type."
      },
      "constructor": {
        "notice": "Initializes the CrossChainRouter"
      },
      "crossChainSwap(uint32,bytes32,address,bytes32,uint256,uint256,bytes)": {
        "notice": "Initiates a cross-chain swap using LayerZero Compose"
      },
      "dexRouter()": {
        "notice": "The local DEX router used for token swaps"
      },
      "endpoint()": {
        "notice": "Retrieves the LayerZero endpoint associated with the OApp."
      },
      "estimateSwapOutput(address,uint256)": {
        "notice": "Estimates the output amount for a cross-chain swap"
      },
      "isComposeMsgSender((uint32,bytes32,uint64),bytes,address)": {
        "notice": "Indicates whether an address is an approved composeMsg sender to the Endpoint."
      },
      "lzCompose(address,bytes32,bytes,address,bytes)": {
        "notice": "Handles LayerZero compose messages (called after OFT transfer)"
      },
      "nextNonce(uint32,bytes32)": {
        "notice": "Retrieves the next nonce for a given source endpoint and sender address."
      },
      "oAppVersion()": {
        "notice": "Retrieves the OApp version information."
      },
      "peers(uint32)": {
        "notice": "Retrieves the peer (OApp) associated with a corresponding endpoint."
      },
      "quoteSwapFee(uint32,bytes32,bytes32,uint256,uint256,bytes)": {
        "notice": "Quotes the fee for a cross-chain swap using compose"
      },
      "setDelegate(address)": {
        "notice": "Sets the delegate address for the OApp."
      },
      "setPeer(uint32,bytes32)": {
        "notice": "Sets the peer address (OApp instance) for a corresponding endpoint."
      },
      "stablecoin()": {
        "notice": "The stablecoin address"
      },
      "stablecoinOFT()": {
        "notice": "The stablecoin OFT contract used for bridging"
      },
      "withdrawNative(address,uint256)": {
        "notice": "Allows the owner to withdraw native currency from this contract"
      },
      "withdrawToken(address,address,uint256)": {
        "notice": "Allows the owner to withdraw any tokens from this contract"
      }
    },
    "notice": "A router that enables cross-chain token swaps using LayerZero Compose functionality",
    "version": 1
  },
  "storageLayout": {
    "storage": [
      {
        "astId": 3861,
        "contract": "contracts/CrossChainRouter.sol:CrossChainRouter",
        "label": "_owner",
        "offset": 0,
        "slot": "0",
        "type": "t_address"
      },
      {
        "astId": 1390,
        "contract": "contracts/CrossChainRouter.sol:CrossChainRouter",
        "label": "peers",
        "offset": 0,
        "slot": "1",
        "type": "t_mapping(t_uint32,t_bytes32)"
      },
      {
        "astId": 2006,
        "contract": "contracts/CrossChainRouter.sol:CrossChainRouter",
        "label": "enforcedOptions",
        "offset": 0,
        "slot": "2",
        "type": "t_mapping(t_uint32,t_mapping(t_uint16,t_bytes_storage))"
      }
    ],
    "types": {
      "t_address": {
        "encoding": "inplace",
        "label": "address",
        "numberOfBytes": "20"
      },
      "t_bytes32": {
        "encoding": "inplace",
        "label": "bytes32",
        "numberOfBytes": "32"
      },
      "t_bytes_storage": {
        "encoding": "bytes",
        "label": "bytes",
        "numberOfBytes": "32"
      },
      "t_mapping(t_uint16,t_bytes_storage)": {
        "encoding": "mapping",
        "key": "t_uint16",
        "label": "mapping(uint16 => bytes)",
        "numberOfBytes": "32",
        "value": "t_bytes_storage"
      },
      "t_mapping(t_uint32,t_bytes32)": {
        "encoding": "mapping",
        "key": "t_uint32",
        "label": "mapping(uint32 => bytes32)",
        "numberOfBytes": "32",
        "value": "t_bytes32"
      },
      "t_mapping(t_uint32,t_mapping(t_uint16,t_bytes_storage))": {
        "encoding": "mapping",
        "key": "t_uint32",
        "label": "mapping(uint32 => mapping(uint16 => bytes))",
        "numberOfBytes": "32",
        "value": "t_mapping(t_uint16,t_bytes_storage)"
      },
      "t_uint16": {
        "encoding": "inplace",
        "label": "uint16",
        "numberOfBytes": "2"
      },
      "t_uint32": {
        "encoding": "inplace",
        "label": "uint32",
        "numberOfBytes": "4"
      }
    }
  }
}